S01400004150505F434D345F567878782E73726563EF
S3151001800000000208AD4C03104D5703101152031016
S31510018010515703105557031059570310000000000C
S315100180200000000000000000000000002D520310A7
S315100180305D570310000000006157031065570310C8
S3151001804041390310673903108D390310B339031001
S31510018050D9390310FF390310253A03104B3A03108F
S31510018060695703106D570310715703107557031095
S31510018070795703107D570310815703108557031045
S31510018080DFF8400C0068000A10F001007047F0B5E7
S31510018090030000200924012500260E600026300069
S315100180A0270080B2BFB2B8423ED20C27DFF860CBB0
S315100180B0300080B278433CF800009E461FFA8EFECF
S315100180C070452FD1DFF8000C0078B6461FFA8EFEE8
S315100180D007FB0EFEE6449EF808E0704520D13000FD
S315100180E080B278436044807896461FFA8EFEBEF1C0
S315100180F0030E704511D1300080B278436044406858
S3151001810000280CD0300080B207FB00F70CEB0700FB
S31510018110406808600020050001E00320050003E027
S31510018120022003E0761CBAE72800C0B2F0BDF0B415
S315100181300300002008600120302400252A002600B3
S3151001814092B2B6B2B2421BD2DFF8806B2A0092B25B
S3151001815036F832201F00BFB2BA420FD12A0092B2AE
S3151001816006EBC2025268002A07D02A0092B206EB29
S31510018170C20252680A600022100001E06D1CDDE7A0
S31510018180C0B2F0BC7047F0B40300002202240120F3
S3151001819000250D6000252A00260092B2B6B2B24221
S315100181A01FD20C26DFF8287B2A0092B27243BA5AE4
S315100181B09C461FFA8CFC624511D12A0092B2724379
S315100181C03A445268002A09D02A0092B206FB02F6F6
S315100181D007EB060252680A600022100001E06D1CCE
S315100181E0D9E7C0B2F0BC7047F0B4030000220124F5
S315100181F0012000250D6000252A00260092B2B6B294
S31510018200B2421FD20C26DFF8C87A2A0092B2724304
S31510018210BA5A9C461FFA8CFC624511D12A0092B2B9
S3151001822072433A445268002A09D02A0092B206FBD8
S3151001823002F607EB060252680A600022100001E0FE
S315100182406D1CD9E7C0B2F0BC7047F0B40300002230
S315100182500124012000250D6000252A00260092B276
S31510018260B6B2B2421FD20C26DFF8647A2A0092B255
S315100182707243BA5A9C461FFA8CFC624511D12A00E8
S3151001828092B272433A445268002A09D02A0092B235
S3151001829006FB02F607EB060252680A60002210007E
S315100182A001E06D1CD9E7C0B2F0BC704710B40200F2
S315100182B0012000231400E4B2012C02D10124230071
S315100182C00CE01400E4B2022C02D10424230005E0D0
S315100182D01400E4B2032C01D1022423001C00E4B2E1
S315100182E00C4201D00024200000B210BC7047704728
S315100182F080B5DFF8E0190878002803D0002008704F
S3151001830002F0D9FEDFF8D0190878002806D000202F
S31510018310087003F08EFF002004F026FB06F0FCFD2A
S3151001832006F009FE01BD70472DE9F04389B004003E
S315100183300D001600002750208DF8040001A8617861
S315100183404170002181703221C17001208DF8080021
S31510018350F4208DF8090094F8018018F07F0894F83C
S3151001836001905FFA89F95FEAD919280080B20228CB
S315100183705FD14046C0B201280AD10120DFF85C194D
S3151001838008700020DFF840190870FFF7B1FF3AE0D6
S315100183904046C0B2022818D1DFF8400901780329F6
S315100183A002D0017801290DD1022101700020DFF8D8
S315100183B0181908700120DFF828190870012007F034
S315100183C074FC20E07E2007001DE04046C0B2032861
S315100183D017D1DFF808090178012902D0017803299C
S315100183E00CD1032101700020DFF8DC180870012080
S315100183F0DFF8EC180870FFF796FF04E07E200700FF
S3151001840001E0122007003800C0B2002813D14846F7
S31510018410C0B200280FD100200090062301AADFF870
S31510018420C4080168DFF8C008B0F9000007F00BFABC
S3151001843001E013200700FFB2380000B209B0BDE811
S31510018440F0832DE9F04F89B004000D0016000027C6
S315100184505FF0000B51208DF8040060788DF805004F
S3151001846094F8018018F07F0894F801905FFA89F961
S315100184705FEAD919DFF87408DFF87418097800EB88
S31510018480C10A9AF80110DFF854080078FFF70EFFB9
S31510018490002846D1280080B202283FD14046C0B2FA
S315100184A0012809D04046C0B2022805D04046C0B2C4
S315100184B0032801D0122007003800C0B2002810D1BD
S315100184C04846C0B200280CD100200090022301AA10
S315100184D0DFF810080168DFF81008B0F9000007F09E
S315100184E0B2F94046C0B2012805D1642007F0A0FDBB
S315100184F009F000FA17E04046C0B2022802D101F095
S315100185007EF810E04046C0B203280CD10AF0D1F82B
S31510018510642007F08DFD09F0EDF904E01320070042
S3151001852001E07F200700FFB2380000B209B0BDE8B4
S31510018530F08F2DE9F84789B004000D0016000027C9
S315100185405FF00008DFF8A407DFF8A417097800EB3D
S31510018550C10954208DF804006078A178090211EB45
S315100185600041E07811EB000A99F80110DFF86C0769
S315100185700078FFF79BFE002839D1280080B2042825
S3151001858032D1BAF5801F02D103F0F0F91AE0BAF52B
S31510018590800F02D103F0EAF914E0BAF5000F02D107
S315100185A003F0E4F90EE0BAF5400F02D103F0DEF95B
S315100185B008E07FF07F40824502D103F0D7F901E050
S315100185C0312007003800C0B2002812D100200090D7
S315100185D0012301AADFF80C070168DFF80C07B0F9CF
S315100185E0000007F030F904E01320070001E07F20B6
S315100185F00700FFB2380000B20AB0BDE8F0872DE9D6
S31510018600F84F84B005000E0017005FF000085FF008
S31510018610000B0020029000208DF80400002003902A
S31510018620DFF8C806DFF8C816097800EBC109DFF8CC
S3151001863020AB59208AF8000068788AF8010068781A
S315100186408DF8050099F80110DFF890060078FFF70C
S315100186502DFE002840F01481300080B20228C0F2AD
S315100186600C819DF8050001280AD0022841D0042862
S3151001867061D0062800F09A800A2800F0D280F0E036
S31510018680300080B2032831D1A87810F0090F13D029
S3151001869001AA02A9A87802F065FD9DF804008AF8DE
S315100186A0020000208AF803000298000A8AF80400E2
S315100186B002988AF805000BE000208AF802000020D3
S315100186C08AF8030000208AF8040000208AF80500C1
S315100186D00020009006235246DFF808060168DFF8ED
S315100186E00806B0F9000007F0AEF801E01320804645
S315100186F0D1E0300080B203281AD1002002901AF17D
S31510018700020302AA1AF10301A87802F0E4FC002080
S31510018710009002988300DB1C9BB25246DFF8C40519
S315100187200168DFF8C405B0F9000007F08CF801E024
S3151001873013208046AFE0300080B2062833D11AF1FB
S315100187400500009003AB1AF106026979A87895F82D
S3151001875003C05FEA0C2C1CEB004C28791CEB0000C3
S3151001876002F01EFE0400200000B2002818D1A878DD
S315100187708AF80200E8788AF8030028798AF8040052
S3151001878000200090039B9B1D9BB25246DFF85405B7
S315100187900168DFF85405B0F9000007F054F804E059
S315100187A03120804601E01320804674E0300080B20B
S315100187B0062833D11AF10500009003AB1AF106020F
S315100187C06979A87895F803C05FEA0C2C1CEB004C6C
S315100187D028791CEB000002F03BFD0400200000B2DA
S315100187E0002818D1A8788AF80200E8788AF80300D8
S315100187F028798AF8040000200090039B9B1D9BB2E8
S315100188005246DFF8E0040168DFF8DC04B0F9000035
S3151001881007F019F804E03120804601E01320804664
S3151001882039E0300080B2022818D11AF1020202A9E9
S315100188301AF1030002F09EFF040000200090029836
S315100188408300DB1C9BB25246DFF898040168DFF8FF
S315100188509804B0F9000006F0F6FF01E013208046F7
S3151001886019E03800C0B2002804D05FFA88F84046F3
S3151001887000B214E0122080460DE0132080460AE073
S315100188803800C0B2002804D05FFA88F8404600B21A
S3151001889005E07F2080465FFA88F8404600B205B0B1
S315100188A0BDE8F08F2DE9F04389B004000D001600E4
S315100188B000270020DFF83414DFF83424127801EB96
S315100188C0C20868218DF8041061788DF80510290009
S315100188D089B2032901DA13206EE098F80110DFF846
S315100188E0FC030078FFF7E2FC00285FD1280080B274
S315100188F0032858D16078002805D0032803D0802892
S3151001890001D0832844D1A078002836D0A078042835
S3151001891033DA6078832802D06078032807D1A178EA
S31510018920607810F07F0000F090FF814611E06078CA
S31510018930802802D06078002807D1A178607810F0DD
S315100189407F0000F082FF814603E0FFB2380000B2DB
S3151001895032E06078C0B2C009C0B2002817D1002039
S315100189600090022301AADFF87C030168DFF878037F
S31510018970B0F9000006F067FF09E03000C0B2002828
S3151001898003D0FFB2380000B216E05FF031090FE0F4
S315100189903000C0B2002803D0FFB2380000B20BE09D
S315100189A05FF0120904E05FF0130901E05FF07F093F
S315100189B05FFA89F9484600B209B0BDE8F0832DE99E
S315100189C0F04389B004000D00160000275FF000097E
S315100189D0C648C749097800EBC108207840308DF8A0
S315100189E0040060788DF8050098F80110BB480078EE
S315100189F0FFF75CFC00283BD1280080B2022834D155
S31510018A006078401E012802D98038012822D8607862
S31510018A10012802D06078812805D10020AD4908705F
S31510018A2002F049FB04E00120AA49087002F049FB53
S31510018A306078C0B2C009C0B200280AD100200090E7
S31510018A40022301AAA7480168A748B0F9000006F059
S31510018A50FAFE0FE03000C0B2002803D0FFB2380092
S31510018A6000B20AE01220070004E01320070001E01B
S31510018A707F200700FFB2380000B209B0BDE8F083CD
S31510018A802DE9F04F8BB004000D0016000020974918
S31510018A90974A127801EBC2085FF0000994F801A019
S31510018AA0A1780902E27811EB020B71218DF80C10F5
S31510018AB003A962784A70A2788A70E278CA7029008E
S31510018AC089B2042901DA13209EE098F8011083482F
S31510018AD00078FFF7EBFB002803D07E20C0B200B26E
S31510018AE092E05046C0B201282BD102A9584680B255
S31510018AF0FFF749FB07003800C0B200281ED100203D
S31510018B00ADF8040001AB04AA291F89B2201DDDF8B6
S31510018B1008C0E04781464846C0B2002870D10020FF
S31510018B200090BDF804301B1D9BB203AA6D48016865
S31510018B306D48B0F9000006F086FE61E031208146ED
S31510018B405EE05046C0B202282BD102A9584680B227
S31510018B50FFF74AFB07003800C0B200281ED10020DB
S31510018B60ADF8040001AB04AA291F89B2201DDDF856
S31510018B7008C0E04781464846C0B2002840D10020CF
S31510018B800090BDF804301B1D9BB203AA554801681D
S31510018B905548B0F9000006F056FE31E03120814605
S31510018BA02EE05046C0B2032828D102A9584680B2F9
S31510018BB0FFF74BFB07003800C0B2002820D1002078
S31510018BC0ADF8040001AB04AA291F89B2201DDDF8F6
S31510018BD008C0E04781464846C0B2002810D100209F
S31510018BE00090BDF804301B1D9BB203AA3D480168D5
S31510018BF03D48B0F9000006F026FE01E0122081463C
S31510018C005FFA89F9484600B20BB0BDE8F08F000053
S31510018C1044460310F0B589B004000D001600002774
S31510018C20207840308DF8040060788DF80500280012
S31510018C3080B2022824D16078002801D0802814D16E
S31510018C400120274908706078C0B2C009C0B2002857
S31510018C500AD100200090022301AA22480168224865
S31510018C60B0F9000006F0EFFD0CE03000C0B20028AC
S31510018C7003D0FFB2380000B207E01220070001E06E
S31510018C8013200700FFB2380000B209B0F0BD2DE97C
S31510018C90F04104000D00160000275FF0000898F857
S31510018CA00110DFF8180C0078FFF700FB002803D03D
S31510018CB07E20C0B200B202E0FFB2380000B2BDE8B9
S31510018CC0F0810000000024405EC50108B83A031087
S31510018CD07852031065C5010866C50108EB470008FF
S31510018CE05DC5010830570310D4470008D445031059
S31510018CF068C5010870B40300002000242500160081
S31510018D00ADB2B6B2B5420CD22500ADB25D5D26004C
S31510018D10B6B28E5DB54202D00125280001E0641C71
S31510018D20ECE700B270BC70472DE9F84F8AB0040029
S31510018D300D00160000275FF00008DFF8840BDFF83E
S31510018D40841B097800EBC1000190207840308DF822
S31510018D50080060788DF8090001984178DFF85C0BFE
S31510018D600078FFF7A3FA002840F0EA81280080B2C4
S31510018D70022801DA1320E8E1607801280AD0C0F050
S31510018D80DC81032800F09C80C0F02981042800F0C2
S31510018D907D81D2E1280080B2022801D01320D4E1CE
S31510018DA0DFF8240B0078002802D03720070086E070
S31510018DB0DFF8180B0078012822D1DFF8148B414611
S31510018DC0DFF8100B09F051FF98F800905FF0000AD8
S31510018DD00DF10A0B52464946584609F063FF002029
S31510018DE0009098F800309B1C9BB202AADFF8E80AA3
S31510018DF00168DFF8E80AB0F9000006F024FD5EE02C
S31510018E00DFF8488B98F80000032842DA98F800003A
S31510018E10002806D1DFF8B81ADFF8B80A09F025FFDD
S31510018E2004E0DFF85C0B0178491C017098F800002A
S31510018E30401C88F80000DFF89C8ADFF8949A00201D
S31510018E400090DFF8403BDFF8402B99F800104046C0
S31510018E5009F044FE99F800A00DF10A0B524641465D
S31510018E60584609F053FF3000C0B2009099F800300F
S31510018E709B1C9BB202AADFF8600A0168DFF85C0A44
S31510018E80B0F9000006F0DFFC0120DFF8001B0870C6
S31510018E9015E0DFF8FC8A98F8000002280DD036207C
S31510018EA0070042F21071DFF8EC0AB0F900000AF07F
S31510018EB0E1F8022088F8000001E03720070041E1BF
S31510018EC0280080B2022801D013203EE1DFF8F8090C
S31510018ED04078002802D0372007007FE0DFF8EC0940
S31510018EE0007802281BD15FF004085FF000090DF12C
S31510018EF00A0A4A464146504609F0D4FE002000901F
S31510018F00062302AADFF8D0090168DFF8D009B0F903
S31510018F10000006F098FCFFB2380000B215E1DFF848
S31510018F202C8A98F80100032842DA98F801000028E3
S31510018F3006D1DFF89C19DFF89C0909F096FE04E0CA
S31510018F40DFF83C0A4178491C417098F80100401C31
S31510018F5088F80100DFF87C89DFF874990120009008
S31510018F60DFF8203ADFF8202A99F80010404609F078
S31510018F70B5FD99F800A00DF10A0B52464146584627
S31510018F8009F0C4FE3000C0B2009099F800309B1C65
S31510018F909BB202AADFF840090168DFF84009B0F96F
S31510018FA0000006F050FC0220DFF8E019087015E009
S31510018FB0DFF8DC09007802280ED03620070042F2CD
S31510018FC01071DFF8EC0AB0F900000AF053F802202C
S31510018FD0DFF8D41B087001E037200700B2E0280043
S31510018FE080B2062801D01320AFE0DFF8A08998F8E7
S31510018FF00000012847D1DFF88C09027892B2DFF818
S315100190008819A01CFFF776FE002815D100200090C4
S31510019010022302AADFF8C0080168DFF8C008B0F918
S31510019020000006F010FC0120DFF8A01808700020DF
S31510019030DFF81819087022E0DFF8449999F8000052
S31510019040032807DA99F80000401C89F80000484601
S31510019050FFF74DF999F80000032802DA35200700C9
S315100190600DE03620070042F21071DFF82809B0F939
S31510019070000009F0FFFF0220DFF814190870002024
S3151001908088F8000001E0242007005BE0280080B288
S31510019090062801D0132058E0DFF8F08898F8000070
S315100190A0022847D1DFF8DC08027892B2DFF8D81827
S315100190B0A01CFFF71FFE002815D1002000900223E7
S315100190C002AADFF814080168DFF81008B0F90000E9
S315100190D006F0B9FB0220DFF8F41708700020DFF85C
S315100190E06C18487022E0DFF8989899F80100032867
S315100190F007DA99F80100401C89F801004846FFF784
S31510019100F6F899F80100032802DA352007000DE078
S315100191103620070042F21071DFF89409B0F9000009
S3151001912009F0A8FF0220DFF8801A0870002088F8DD
S31510019130000001E02420070004E01220070001E0EE
S315100191407F200700FFB2380000B20BB0BDE8F08FE8
S31510019150209F01082DE9F64F85B006000F0000206B
S31510019160ADF806005FF000085FF000090020ADF8C9
S3151001917008005FF0010A00200490DFF84407DFF8C9
S315100191804417097800EBC1000490DFF820BA307853
S3151001919040308BF8000004984178DFF820070078FA
S315100191A0FFF784F8002840F09E8001200500380062
S315100191B080B20328C0F29480380080B20E2880F263
S315100191C08F80380080B2401E022190FBF1F201FB24
S315100191D01200002840F08480380080B2401E02211F
S315100191E090FBF1F0ADF80800002004002000BDF856
S315100191F0081080B288425AD200200390200080B213
S3151001920006EB40004078210089B206EB41018978CE
S3151001921051EA0021884603A9404680B2FEF787FF2E
S315100192208DF804009DF8040000283ED100208246E6
S315100192309DF80400002825D10DF10601280080B201
S315100192405844801C039A9047010009B2002916D18F
S31510019250210089B206EB410149782A0092B20BF836
S315100192600210210089B206EB410189782A0092B2D7
S315100192705A445170BDF80610891C4D1915E022216A
S31510019280894614E09DF80400012802D13120814657
S315100192900DE09DF81800002804D05FFA89F94846B8
S315100192A000B226E03120814601E0641C9EE750465B
S315100192B0C0B2002801D0312081464846C0B20028EC
S315100192C013D1002000902B009BB25A46DFF80806F6
S315100192D00168DFF80806B0F9000006F0B4FA04E0F8
S315100192E01320814601E07F2081465FFA89F94846BD
S315100192F000B207B0BDE8F08F2DE9F04F8DB0040034
S315100193000D00160003A8DFF8A818D1E90023C0E95B
S3151001931000230027DFF8A805DFF8A815097800EB68
S31510019320C1000290207840308DF8140005A86178AC
S315100193304170A1788170280080B2032801DA1320C8
S3151001934061E0607894F8028058EA00280298417822
S31510019350DFF868050078FEF7A9FF002801D07F2005
S3151001936051E02A0092B201A9404680B2FEF78FFE63
S31510019370002805D002283ED03AD3032835D03DE047
S31510019380DFF85895DFF850A50020009003230DF162
S315100193900D02DAF80010B9F9000006F054FAE91EC8
S315100193A089B2E01C019A90478346584600B20028BC
S315100193B00AD100200090032305AADAF80010B9F9A2
S315100193C0000006F040FA0AE058467FF0020100B2AA
S315100193D0884202D13120070001E072200700584669
S315100193E000B2012800DB5F460AE01320070007E000
S315100193F03120070004E03320070001E011200700A7
S31510019400FFB2380000B20DB0BDE8F08F2DE9F04182
S315100194108AB004000D0016005FF0000801AB02AA25
S31510019420290089B2200009F091FF07003800C0B267
S3151001943000280DD100200090BDF8043002AADFF8F3
S3151001944098040168DFF89404B0F9000006F0FBF9FE
S31510019450FFB2380000B20AB0BDE8F0812DE9F04143
S31510019460A2B004000D0016005FF0000801AB02AABD
S31510019470290089B220000AF050F907003800C0B25D
S3151001948000280DD100200090BDF8043002AADFF8A3
S3151001949048040168DFF84404B0F9000006F0D3F976
S315100194A0FFB2380000B222B0BDE8F08110B403005B
S315100194B001201400E4B2002C01D11124200000B2C5
S315100194C010BC70477FB506000C0015007F208DF883
S315100194D004008DF805408DF806602800C0B20028FA
S315100194E015D03000C0B211280FD03000C0B27F287D
S315100194F00BD03000C0B2122807D03000C0B27E287F
S3151001950003D03000C0B2312801D100200DE0002077
S315100195100090032301AADFF8C0030168DFF8BC033A
S31510019520B0F9000006F08FF9002004B070BD10B438
S3151001953001000022100080B20E2813D2DFF880033A
S315100195400B001400A4B210F83440DBB2A34207D1C9
S31510019550DFF870331A7092B200EBC200406803E074
S31510019560521CE7E7DFF8080A10BC70472DE9F047EF
S3151001957004000D0016000020002794F800804146D3
S31510019580C9B2112912D04046C0B228280ED0404681
S31510019590C0B22F280AD04046C0B2312806D0404664
S315100195A0C0B2102802D160780228FFD14046C0B25D
S315100195B0FFF7BDFF81463200D2B2290089B22000E1
S315100195C0C84782465046C0B200280DD05046C0B298
S315100195D0012801D1002010E03200D2B24146C9B2B1
S315100195E05046C0B2FFF76EFFB4480078012803D089
S315100195F00120DFF86C1C08700020BDE8F08780B5EB
S315100196000120AE4908700020B04908700020DFF82B
S315100196107C130870002006F048FBFEF769FE01BDB9
S315100196202DE9F14F82B000208DF80000DFF84429B2
S31510019630DFF84419002005F08CFDA8490880A748D9
S31510019640B0F90000002800F1FE8000200AF061F850
S31510019650A1480368DFF824090268DFF824090168C4
S315100196609E48B0F9000005F0C7FD09F0E6FCDFF8E9
S3151001967024130880DFF8384409F0DFFC2080DFF876
S31510019680045909F0DAFC288009F0D7FCADF802007C
S3151001969005F08AFC05F0ABFC05F0C2FC05F003FDF4
S315100196A042F210794946DFF8EC02B0F9000009F0F0
S315100196B0E1FCDFF8DC6201203070834F0120387045
S315100196C04946B4F9000009F0D5FCDFF8DC84012025
S315100196D088F80000012078704946B5F9000009F0B4
S315100196E0C9FCDFF8809B012089F800000120B870C1
S315100196F0DFF874BBDFF874AB6B46524659467748B0
S31510019700B0F9000006F06CF8ADF80400BDF90400DC
S31510019710002817D1DFF8580B0078002812D16748B6
S315100197200078022807D19DF80020BAF80010584693
S3151001973001F034F806E09DF80020BAF800105846FA
S31510019740FFF714FFDFF8181B0878002807D0002050
S31510019750087041F28831BDF9020009F08BFCBDF9A0
S31510019760020009F0C2FC002805D1BDF9020009F07A
S31510019770A2FCFFF744FFDFF81CA2BAF9000009F0BA
S31510019780B4FC002814D1BAF9000009F094FC307821
S31510019790012801D1002038703078022806D1784886
S315100197A00178491E01700020684908700020307048
S315100197B0B4F9000009F099FC002817D1B4F900009A
S315100197C009F079FC98F80000012801D10020787081
S315100197D098F80000022806D169484178491E41705F
S315100197E000205A494870002088F80000B5F9000099
S315100197F009F07BFC002817D1B5F9000009F05BFCD4
S3151001980099F80000012801D10020B87099F80000DC
S31510019810022806D15A488178491E817000204B4989
S315100198208870002089F80000052006F001FC05204B
S315100198300AF081F805F091FB05F0A7FB05F026FC6F
S3151001984005F04EFC54E7BDE8F78FF8B504000D009E
S3151001985000262000C0B2002813D12800C0B2032868
S315100198600CD1DFF8687C3878012806D102F0E1FCCA
S31510019870002003F079F8002038701CE03120060032
S3151001988019E02000C0B2032813D12800C0B2032862
S315100198900CD1DFF8387C3878002806D102F004FDA7
S315100198A0002003F079F80120387004E03120060019
S315100198B001E0122006003000C0B2F2BDEB470008ED
S315100198C0D445031068C5010878C401085EC50108AE
S315100198D064C5010878C2010830570310D44700083F
S315100198E003000020704738B504000D00FEF7C8FBD1
S315100198F0002803D101200AF00EFC02E000200AF034
S315100199000AFC002040B232BD70B504000025DFF814
S31510019910B06C5FF0FF303060DFF8A80C0368DFF839
S31510019920A82C3168DFF8A40C0AF0FDFC3060316810
S315100199305FF0FF30414031603068A04201D0012014
S315100199400500280040B270BD000000007CC401086B
S315100199501FB504007F208DF804008DF8054078208E
S315100199608DF8060000200090032301AADFF8C80B2A
S315100199700168DFF85C0CB0F9000005F064FF1FBD4B
S3151001998080C4010863C501088CC201085FC50108BE
S3151001999060C50108CE4700082DE9F84386B00400DA
S315100199A00D001600002794F8018018F07F0894F82E
S315100199B001905FFA89F95FEAD9194046C0B20128C8
S315100199C028D14846C0B200286DD150208DF8040028
S315100199D001A801214170002181703221C17001213C
S315100199E00171F42141713000C0B20090062301AA21
S315100199F0DFF8440B0168DFF8D80BB0F9000005F069
S31510019A0022FF322006F014FB07F074FF002006F047
S31510019A104CF948E04046C0B2022837D1DFF8940C21
S31510019A200178032905D00178012902D0017802298C
S31510019A3029D10121DFF82828117002210170484629
S31510019A40C0B200281BD150208DF8040001A80221B4
S31510019A504170002181703221C17001210171F421FF
S31510019A6041713000C0B20090062301AADFF8C80A7E
S31510019A700168DFF85C0BB0F9000005F0E4FE012087
S31510019A8006F013F90FE0222007000CE04046C0B2A1
S31510019A90032806D10120DFF8C81708707E200700B9
S31510019AA001E0122007003800C0B207B0BDE8F0830C
S31510019AB0D04700082DE9F84386B004000D001600C2
S31510019AC0002794F8018018F07F0894F801905FFA46
S31510019AD089F95FEAD9194046C0B201281DD1484615
S31510019AE0C0B200285AD151208DF8040001208DF8FA
S31510019AF005003000C0B20090022301AADFF8380A2F
S31510019B000168DFF8CC0AB0F9000005F09CFE64206C
S31510019B1006F08EFA07F0EEFE40E04046C0B202288B
S31510019B2018D14846C0B2002838D151208DF804000A
S31510019B3002208DF805003000C0B20090022301AA60
S31510019B40DFF8F4090168DFF8880AB0F9000005F0BA
S31510019B507AFE23E04046C0B203281DD14846C0B262
S31510019B6000281BD151208DF8040003208DF8050023
S31510019B703000C0B20090022301AADFF8BC090168C7
S31510019B80DFF84C0AB0F9000005F05DFE642006F01E
S31510019B904FFA07F0AFFE01E0122007003800C0B2FD
S31510019BA007B0BDE8F083000061C50108209F0108D8
S31510019BB0D45503102DE9F04F87B004000D0016009F
S31510019BC05FF000086778207840308DF804006078DF
S31510019BD08DF805003800C0B2012840F08980022DA9
S31510019BE001D01320C1E1DFF8500B0078002802D014
S31510019BF037208046B4E1DFF8440B0078012823D1E1
S31510019C00DFF83C9B4946DFF83C0B09F02EF899F832
S31510019C10000006905FF0000A0DF1060B52460699F8
S31510019C20584609F03FF80020009099F800309B1C27
S31510019C309BB201AADFF800090168DFF89409B0F9AF
S31510019C40000005F000FE8BE1DFF8FC0A017803291C
S31510019C5037DADFF8F81A0A78521C0A700178491CAB
S31510019C600170DFF8E0BADFF8D89A00200090DFF82B
S31510019C70E03ADFF8E02A99F80010584608F02EFF6E
S31510019C8099F800A0CDF818B00DF1060B52460699B9
S31510019C90584609F03BF83000C0B2009099F80030F0
S31510019CA09B1C9BB201AADFF890080168DFF8200916
S31510019CB0B0F9000005F0C7FD0120DFF89C1A087005
S31510019CC04EE1DFF8989A99F8000002280DD0362057
S31510019CD0804642F21071DFF8880AB0F9000009F0E7
S31510019CE0C9F9022089F800003AE13720804637E1A8
S31510019CF03800C0B2022854D1062D01D0132034E108
S31510019D00DFF8549A99F80000012847D1DFF8400A84
S31510019D10027892B2DFF83C1AA01CFEF7EBFF00287E
S31510019D2015D100200090022301AADFF80C08016862
S31510019D30DFF89C08B0F9000005F085FD0120DFF879
S31510019D40FC1908700020DFF8001A087022E0DFF80D
S31510019D50FCA99AF80000032807DA9AF80000401CBB
S31510019D608AF800005046FEF7C2FA9AF80000032856
S31510019D7002DA352080460DE03620804642F2107117
S31510019D80DFF8DC09B0F9000009F074F90220DFF8F8
S31510019D90CC190870002089F80000E1E024208046E3
S31510019DA0DEE03800C0B2032840F08080022D01D0D9
S31510019DB01320DAE0DFF880094078002802D0372036
S31510019DC08046CDE0DFF87409007802281AD15FF0D9
S31510019DD004095FF0000A0DF1060B52464946584632
S31510019DE008F060FF00200090062301AADFF848075B
S31510019DF00168DFF8DC07B0F9000005F024FD4046E4
S31510019E00C0B2B2E0DFF840094178032937DADFF84A
S31510019E103C194A78521C4A704178491C4170DFF846
S31510019E2024B9DFF81C9901200090DFF82439DFF8F6
S31510019E30242999F80010584608F050FE99F800A008
S31510019E40CDF818B00DF1060B52460699584608F092
S31510019E505DFF3000C0B2009099F800309B1C9BB298
S31510019E6001AADFF8D4060168DFF86407B0F900002B
S31510019E7005F0E9FC0220DFF8E018087070E0DFF861
S31510019E80DC08007802280ED03620804642F2107186
S31510019E90DFF8D008B0F9000009F0ECF80220DFF87D
S31510019EA0D41308705CE03720804659E03800C0B200
S31510019EB0042853D1062D01D0132056E0DFF89898C7
S31510019EC099F80000022846D1DFF88408027892B288
S31510019ED0DFF88018A01CFEF70DFF002815D1002011
S31510019EE00090022301AADFF850060168DFF8E006A8
S31510019EF0B0F9000005F0A7FC0220DFF84018087041
S31510019F000020DFF84418487021E0DFF840A89AF8DD
S31510019F100100032807DA9AF80100401C8AF80100AB
S31510019F205046FEF7E4F99AF80100032802DA3520C3
S31510019F3080460CE03620804642F21071DFF8240884
S31510019F40B0F9000009F096F80220CA4908700020FD
S31510019F5089F8000004E02420804601E012208046A2
S31510019F600120BF4908704046C0B207B0BDE8F08F66
S31510019F70AD940110D80B01082C4D03102C5703106A
S31510019F8028570310D24700082DE9F64F87B0040071
S31510019F90002560788DF80600A0780002E178401857
S31510019FA0ADF8040071208DF8080002AE607870706B
S31510019FB0A078B070E078F0709DF80600012840F0A6
S31510019FC04581BDF804004DF6FF7188425ED1DFF878
S31510019FD0E4060078012802D13320C0B23DE1DFF852
S31510019FE05C070078002802D13320C0B235E1207910
S31510019FF06179090411EB0061A07911EB0021E07977
S3151001A0000F182078FFF7A4FC3800FFF77DFC002815
S3151001A0102BD1DFF854070168DFF85027914209D395
S3151001A0200168DFF84C27914204D20120DFF844176A
S3151001A030086017E00168DFF89025914212D3006895
S3151001A040DFF8341788420DD201200AF097F80AF08A
S3151001A050F6F8012803D100200AF0C2F802E0012027
S3151001A0600AF0BEF80020307101E0012030719DF830
S3151001A07020000090052302AADFF8BC040168DFF86E
S3151001A0805005B0F9000005F0DEFBE1E0BDF8040073
S3151001A09040F20321884216D1DFF81806007803280A
S3151001A0A002D03320C0B2D8E09DF8200000900423DE
S3151001A0B002AADFF884040168DFF81405B0F900007C
S3151001A0C005F0C1FBC4E0BDF80400B0F57F4F40F0C8
S3151001A0D094802679F6B23609277917F00F075FF0C3
S3151001A0E000085FF00009300040B2042806D138009C
S3151001A0F040B2042802D15FF0050A05E004200600EB
S3151001A100042007005FF0040ADFF8A805007801288B
S3151001A11002D13320C0B2A0E0DFF820060078002873
S3151001A12002D13320C0B298E0380040B2012861DB79
S3151001A130380040B205285DDA300040B2012856DBFE
S3151001A140300040B2052852DA791E080040B20028C4
S3151001A1500BD4504640B2225CC9B2C800824052EAC2
S3151001A16008081AF1010A491EEFE7B6F1010B584624
S3151001A17040B200280ED4504640B2215C5FFA8BFBE8
S3151001A1805FEACB00814051EA09091AF1010ABBF1D4
S3151001A190010BECE72078FFF7DBFBDFF8E0058045E4
S3151001A1A002D1002009F0EAFF49464046FFF79BFB22
S3151001A1B0002819D19DF820000090042302AADFF887
S3151001A1C078030168DFF80804B0F9000005F03BFBDD
S3151001A1D0DFF8AC15DFF8F4030AF085F85FF0FF300D
S3151001A1E0DFF8DC13086033E07220050030E013203D
S3151001A1F005002DE0132005002AE0BDF804004FF6F6
S3151001A200017188421FD1DFF8AC040078012802D110
S3151001A2103320C0B221E0DFF824050078002802D1EE
S3151001A2203320C0B219E0002030719DF82000009053
S3151001A230052302AAC0480168DFF89403B0F90000AB
S3151001A24005F001FB04E03120050001E012200500B4
S3151001A2500120034908702800C0B209B0BDE8F08F8B
S3151001A2605DC5010862C50108706A010832C5010899
S3151001A27067C5010861C501082DE9F64F87B00400CD
S3151001A2800025A678F6B23609A77817F00F077420BD
S3151001A2908DF80800DFF81C040078012802D133205C
S3151001A2A0C0B27CE0DFF894040078002802D1332094
S3151001A2B0C0B274E0380040B2012868DB380040B201
S3151001A2C0052864DA300040B201285DDB300040B267
S3151001A2D0052859DA00208046002081465FF0030ADE
S3151001A2E0791E080040B200280BD4504640B2225CB9
S3151001A2F0C9B2C800824052EA08081AF1010A491E79
S3151001A300EFE7B6F1010B584640B200280ED450467D
S3151001A31040B2215C5FFA8BFB5FEACB00814051EAC8
S3151001A32009091AF1010ABBF1010BECE70120DFF86B
S3151001A33054140870FDF7A4FE18F10070DFF8281404
S3151001A3400860A048C0F800900120DFF83C1408709E
S3151001A35002A82021417040F20221ADF80410BDF887
S3151001A360041089B2090A8170BDF80410C1709DF8F4
S3151001A37020000090042302AA6F4801689448B0F99E
S3151001A380000005F060FA04E01320050001E0132037
S3151001A39005000120DFF8F41308702800C0B209B0D7
S3151001A3A0BDE8F08F2DE9F84386B004000D001600C4
S3151001A3B0002794F80180BF480078012802D1332084
S3151001A3C0C0B27FE0DFF874030078002802D1332091
S3151001A3D0C0B277E0DFF8B0030078002802D124205C
S3151001A3E0C0B26FE0DFF89C0301784246D2B29142C7
S3151001A3F061D10178491C0170DFF86C93D9F800001E
S3151001A4007149884227D3D9F80000DFF86C138842C6
S3151001A41021D22078FFF79CFAA41CAA1E2100D9F894
S3151001A420000009F00CFED9F80010A81E4118C9F851
S3151001A430001076208DF804008DF805803000C0B22A
S3151001A4400090022301AA3C4801686148B0F9000056
S3151001A45005F0F9F931E0D9F80000C449884227D34B
S3151001A460D9F80000CA49884222D2AA1EA11CD9F8DD
S3151001A4700000FFF735FA002817D1D9F80010A81EE9
S3151001A4804118C9F8001076208DF804008DF8058062
S3151001A4903000C0B20090022301AA274801684C4837
S3151001A4A0B0F9000005F0CFF907E02220070004E01B
S3151001A4B07220070001E0732007000120B3490870DC
S3151001A4C03800C0B207B0BDE8F083000066C50108C8
S3151001A4D0F8B586B004000D001600002775480078FF
S3151001A4E0012802D13320C0B223E094480078002815
S3151001A4F002D13320C0B21CE0A3490878002802D14A
S3151001A5002420C0B215E00020087077208DF80400D1
S3151001A5103000C0B20090012301AA074801682C48F7
S3151001A520B0F9000005F08FF901209849087038003C
S3151001A530C0B207B0F0BD0000305703102DE9F0414D
S3151001A5408EB004000D00160000275A480078022824
S3151001A55002D03320C0B230E078480078032802D008
S3151001A5603320C0B229E060780002A17810EB01080F
S3151001A57040464FF25A1180B2884217D12078FFF720
S3151001A580E7F96E208DF8040001A861784170A17871
S3151001A59081703000C0B20090032301AA7D48016882
S3151001A5A00B48B0F9000005F04EF901E03120070023
S3151001A5B00120764908703800C0B20EB0BDE8F081AE
S3151001A5C08CC4010888C4010800800112BC860108E8
S3151001A5D0D44700082DE9F04192B004000D00160091
S3151001A5E00020019060780002A17847185FF00008FA
S3151001A5F038004FF2901180B2884205D101A90DF1B0
S3151001A6000B0003F078FC74E038004FF28A1180B227
S3151001A610884205D101A90DF10B0003F07BFB68E01F
S3151001A62038004FF2911180B2884205D101A90DF17E
S3151001A6300B0003F0BBFF5CE038004FF2931180B2C0
S3151001A640884205D101A90DF10B0003F07BFB50E007
S3151001A65038004FF2881180B2884205D101A90DF157
S3151001A6600B0004F000F844E038004FF2951180B267
S3151001A670884205D101A90DF10B0003F077FB38E0F3
S3151001A68038004FF2CB1180B2884205D101A90DF1E4
S3151001A6900B0003F032FB2CE038004FF2861180B22A
S3151001A6A0884209D1034800788DF80B0001200190EA
S3151001A6B01FE000BFEB47000838004FF2801180B24F
S3151001A6C0884208D169460DF10B0003F0A6FBBDF8CF
S3151001A6D0000001900DE038004FF2C11180B288429E
S3151001A6E005D101A90DF10B0003F0ACFB01E03120FE
S3151001A6F080464046C0B2002815D162208DF8080068
S3151001A70002A861784170A17881703000C0B20090C2
S3151001A710019BDB1C9BB202AA1E4801681E48B0F9B8
S3151001A720000005F090F80120184908704046C0B2A3
S3151001A73012B0BDE8F081000078C401085EC50108B9
S3151001A74064C5010878C201087CC4010880C40108E7
S3151001A75063C501088CC201085FC5010860C50108FF
S3151001A760CE470008D047000884C4010800600002E3
S3151001A7700180000290C401080080071200800110B8
S3151001A780B71DC10469C501086AC501085DC501087F
S3151001A7900080000230570310D44700082DE9F84312
S3151001A7A004000D00160027785FF000083800C0B2CB
S3151001A7B0102807D13200D2B229002000FFF7ECF899
S3151001A7C0814674E03800C0B2112807D13200D2B2E6
S3151001A7D029002000FFF76EF9814668E03800C0B203
S3151001A7E0272807D13200D2B229002000FFF7E2F95B
S3151001A7F081465CE03800C0B2312807D13200D2B2AE
S3151001A80029002000FFF7C0FB814650E03800C0B296
S3151001A810342807D13200D2B229002000FFF72CFDCF
S3151001A820814644E03800C0B2362807D13200D2B290
S3151001A83029002000FFF7B6FD814638E03800C0B286
S3151001A840372807D13200D2B229002000FFF740FE87
S3151001A85081462CE03800C0B23E2808D13200D2B26F
S3151001A860290089B22000FEF7D5F981461FE038008C
S3151001A870C0B22E2807D13200D2B229002000FFF72C
S3151001A8805DFE814613E03800C0B2222807D132009E
S3151001A890D2B229002000FFF79DFE814607E0320063
S3151001A8A0D2B2290089B22000FEF700FE8146484641
S3151001A8B0C0B2002807D03200D2B23900C9B2484618
S3151001A8C0C0B2FEF7FFFDBDE8F18330B4002513E0F9
S3151001A8D050F8042BD30744BFA9F101039A18091F95
S3151001A8E0042942F8045BFAD213468C0744BF15803B
S3151001A8F09B1CC90748BF1D7050F8041B0029E7D1DE
S3151001A90030BC704730B401000122002318000C78C6
S3151001A91000B224B2A04211DADFF87C4A180000B264
S3151001A920084445783420454304EB05004078002857
S3151001A93002D0002000B203E05B1CE7E7100000B272
S3151001A94030BC704700220300197811F0010100296B
S3151001A9500ED1817802291BD1DFF8401A0978002916
S3151001A96016D1197851F0010119700121C1700FE04A
S3151001A9708178012908D0DFF8241A0978002903D132
S3151001A9801100C9B2002903D0197811F0FE0119700E
S3151001A99070470200137813F0FB031370704770B4FD
S3151001A9A003008278022A01D1012400E00024028AE0
S3151001A9B04D69AA4201D3012500E000254279002AFA
S3151001A9C016D12200D2B2002A0DD0DFF8D029127882
S3151001A9D0002A08D11A7852F008021A70002202824F
S3151001A9E00122427124E01A7812F0F7021A701FE060
S3151001A9F04279012A18D1DFF8A4693278002A03D1E5
S3151001AA002A00D2B2002A06D01A7812F0F7021A706A
S3151001AA10002242710CE08278022A09D13278002A8A
S3151001AA2006D10022028203E0002242710022028234
S3151001AA3070BC70472DE9F04104000D0016001F008F
S3151001AA400021A04698F8000010F00100002813D04C
S3151001AA5098F80000C0F3C000C0B2002802D130003F
S3151001AA6000F07DFF2878002806D0002028703800D5
S3151001AA7000F075FF00F00CFABDE8F0812DE9F04108
S3151001AA8019240025A54280F08580DFF8E06CDFF8F7
S3151001AA90E00C69013144097F405C00283DD0680112
S3151001AAA030448069002814D13421DFF8EC2801FBE9
S3151001AAB005F010444078002805D0022001FB05F16D
S3151001AAC01144887029E0012001FB05F111448870B9
S3151001AAD023E0680130448069FFF714FF002808D18C
S3151001AAE00120DFF8B418342202FB05F211448870F4
S3151001AAF013E03421DFF8A02801FB05F0104440785B
S3151001AB00002805D0022001FB05F11144887004E0EC
S3151001AB10012001FB05F1114488703427DFF878888C
S3151001AB2007FB05F04044FFF70DFF07FB05F0404416
S3151001AB3010F1140307FB05F0404410F1140207FB52
S3151001AB4005F04044C11C07FB05F04044FFF772FFB6
S3151001AB50680106EB000107FB05F04044FFF719FFFA
S3151001AB60680106EB000107FB05F04044FFF717FFEC
S3151001AB70002007FB05F14144887007FB05F04044AE
S3151001AB8000F001FF07FB05F708EB070000F06BFF6C
S3151001AB906D1C77E7BDE8F081F8B51925DFF8F86780
S3151001ABA040F21451300009F0C9FE0021A94270D2B9
S3151001ABB0342202FB01F030448089401C02FB01F370
S3151001ABC033449881002002FB01F33344D8800020DE
S3151001ABD002FB01F333445870002002FB01F33344A6
S3151001ABE09870002002FB01F333449860002002FBA9
S3151001ABF001F33344D87002FB01F03044040020788D
S3151001AC00C0F3400002FB01F333441871207810F0B1
S3151001AC10FD002070207810F0FE002070207810F0D2
S3151001AC20EF002070207810F0DF002070207810F0EF
S3151001AC30BF002070207810F07F00207002FB01F019
S3151001AC4030440079002822D1207810F0FB002070C2
S3151001AC5002FB01F03044008ADFF8103B4F013B4400
S3151001AC605B69984213D202FB01F03044008A401C02
S3151001AC7002FB01F33344188202FB01F0304490F8D1
S3151001AC802C00401C02FB01F2324482F82C00491CB4
S3151001AC908CE7F1BDF0B419220023934277D2342404
S3151001ACA0DFF8F45604FB03F028448089401C04FBAA
S3151001ACB003F62E44B081002004FB03F62E44F080E7
S3151001ACC0DFF8A86A580130448069002804D00020B2
S3151001ACD004FB03F72F447870002004FB03F72F447D
S3151001ACE0B870002004FB03F72F44B860002004FB62
S3151001ACF003F72F44F87004FB03F028440100087889
S3151001AD00C0F3400004FB03F72F443871087810F0A4
S3151001AD10FD000870087810F0FE000870087810F031
S3151001AD20EF000870087810F0DF000870087810F04E
S3151001AD30BF000870087810F07F00087004FB03F05C
S3151001AD4028440079002820D1087810F0FB000870FB
S3151001AD5004FB03F02844008A5F013E447669B04241
S3151001AD6013D204FB03F02844008A401C04FB03F6AB
S3151001AD702E44308204FB03F0284490F82C00401C2A
S3151001AD8004FB03F42C4484F82C005B1C85E7F0BC0F
S3151001AD907047F0B419220023934277D23424DFF896
S3151001ADA0F85504FB03F028448089401C04FB03F684
S3151001ADB02E44B081002004FB03F62E44F080DFF808
S3151001ADC0AC69580130448069002804D0002004FB86
S3151001ADD003F72F447870002004FB03F72F44B87053
S3151001ADE0002004FB03F72F44B860002004FB03F78F
S3151001ADF02F44F87004FB03F0284401000878C0F3CF
S3151001AE00400004FB03F72F443871087810F0FD0059
S3151001AE100870087810F0FE000870087810F0EF003E
S3151001AE200870087810F0DF000870087810F0BF007D
S3151001AE300870087810F07F00087004FB03F02844AE
S3151001AE400079002820D1087810F0FB00087004FB67
S3151001AE5003F02844008A5F013E447669B04213D25A
S3151001AE6004FB03F02844008A401C04FB03F62E441D
S3151001AE70308204FB03F0284490F82C00401C04FB9C
S3151001AE8003F42C4484F82C005B1C85E7F0BC704756
S3151001AE900120DFF8F81B08600020DFF8F41B0860BA
S3151001AEA0704770B5DFF8EC6BB6F900000AF090FC4C
S3151001AEB00400DFF8E45B2878002804D1012028700B
S3151001AEC0FFF76AFE5DE02878012820D106F03DF8EB
S3151001AED000280DD1FFF7D2FD0120DFF8B01B086065
S3151001AEE04FF47A70DFF8A81B08600220287048E03A
S3151001AEF0DFF8A8542878002806D0FFF7BFFD0020F8
S3151001AF002870FFF7C5FF3CE0FFF7B8FD39E0287858
S3151001AF10022822D1200000B2002806D10320287071
S3151001AF20B6F900000AF059FC2BE006F00EF80028DD
S3151001AF3004D001202870FFF72CFF22E0DFF85C54C3
S3151001AF402878002806D0FFF799FD00202870FFF712
S3151001AF509FFF16E0FFF792FD13E02878032810D122
S3151001AF60200000B200280CD005F0EFFF002804D114
S3151001AF70FFF70FFF0220287003E0FFF78BFE012079
S3151001AF802870DFF8081B086800280ED0DFF8000BC0
S3151001AF900268642A06D300220A600021016000F0CB
S3151001AFA0EAFC02E00168491C016070BD10B4082179
S3151001AFB0002002000B00D2B2DBB29A4207D2012264
S3151001AFC0DFF8AC370400E4B21A55401CF1E710BCA7
S3151001AFD0704710B504009DA00AF0B9FBDFF8B41A4A
S3151001AFE00880FFF7E3FF052005F022F8FFF759FF68
S3151001AFF0F9E730B4010019220800C0B2904202D319
S3151001B0005FF0FF300AE00123DFF8D8470D00EDB2FB
S3151001B0103420454304EB05004370002030BC7047D3
S3151001B02030B4010019220800C0B2904202D35FF079
S3151001B030FF300AE00023DFF8AC470D00EDB23420F3
S3151001B040454304EB05004370002030BC7047DFF820
S3151001B0504C0A0168012902DB0168491E016000687A
S3151001B060002803D10120DFF8381A08707047002034
S3151001B070DFF82C1A0870DFF8240A0168491C0160F0
S3151001B080704710B504002000C0B2002809D0DFF8BF
S3151001B090141A087800280DD101200870FFF7D7FF80
S3151001B0A008E0DFF8001A0878002803D0002008709D
S3151001B0B0FFF7DDFF10BD80B50120FFF7E2FF00208D
S3151001B0C002BD80B50020FFF7DCFF002002BDDFF8CE
S3151001B0D0D009007870472DE9F043040019250026A0
S3151001B0E00027AF4230D2DFF884C678016044007F72
S3151001B0F0022827DA5FF0340EDFF8E8860EFB07F038
S3151001B10018F8000020421DD078015CF80000000CF0
S3151001B11001F8260078015CF80000000A01EB8609A7
S3151001B12089F8010078015CF8000001EB860C8CF8B7
S3151001B13002000EFB07FE18F80E0001EB860C8CF8C8
S3151001B1400300761C7F1CCCE7166000201870187857
S3151001B15050F001001870187850F00800187000208F
S3151001B160BDE8F083F0B40300192400250026A64299
S3151001B17011D2DFF8F80577013844007F022808DA82
S3151001B180DFF86006342707FB06F7C05D184200D0CA
S3151001B1906D1C761CEBE70D6000201070107850F0D6
S3151001B1A001001070107850F0080010700020F0BCEB
S3151001B1B070472DE9F0430400192500260027AF42F8
S3151001B1C035D2DFF8A8C578016044007F02282CDA51
S3151001B1D05FF0340EDFF80C860EFB07F018F800004E
S3151001B1E0204222D078016044406800281DD07801A1
S3151001B1F060444068000C01F82600780160444068FC
S3151001B200000A01EB860989F801007801604440685B
S3151001B21001EB860C8CF802000EFB07FE18F80E00E7
S3151001B22001EB860C8CF80300761C7F1CC7E71660B1
S3151001B23000201870187850F001001870187850F026
S3151001B240080018700020BDE8F083000064746300E4
S3151001B2502DE9F04105000C00069E19275FF0FF301D
S3151001B2605FF0000CBC4580F08E80DFF800155FEAB8
S3151001B2704C1E51F80E10A94240F082802100C9B22D
S3151001B28001293AD1012111703421DFF858E501FB6A
S3151001B2900CF8F04498F82D8082F8018001FB0CF827
S3151001B2A0F04498F82C8082F8028001FB0CF8F044E7
S3151001B2B098F82E8082F8038001FB0CF8F04498F878
S3151001B2C02F8082F8048001FB0CF8F04498F8308046
S3151001B2D082F8058001FB0CF8F04498F8318082F869
S3151001B2E006805FF00708C3F8008001FB0CF11EF819
S3151001B2F0011031700021080041E02100C9B2FF2977
S3151001B3003AD1012111703421DFF8D8E401FB0CF890
S3151001B310F04498F82D8082F8018001FB0CF8F04476
S3151001B32098F82C8082F8028001FB0CF8F04498F80A
S3151001B3302E8082F8038001FB0CF8F04498F82F80D8
S3151001B34082F8048001FB0CF8F04498F8308082F8FA
S3151001B350058001FB0CF8F04498F8318082F80680DC
S3151001B3605FF00708C3F8008001FB0CF11EF801100D
S3151001B37031700021080002E07FF00101080002E0AF
S3151001B3801CF1010C6EE7010009B2002901D000B2CF
S3151001B39000E000B2BDE8F0815C6501086BC50108EB
S3151001B3A02DE9FB4F82B0050016000E9F5FF01908BC
S3151001B3B05FF0FF3900249DF80C00002840F0E4806E
S3151001B3C05FF0000AC24580F0CB81E8485FEA4A1176
S3151001B3D04058A84240F0D5803421DFF8082401FBFB
S3151001B3E00AF0105C3870387800280AD11C200190B8
S3151001B3F000200090B346009A0199584607F052FC76
S3151001B400B8E0002023009BB2F054641C05202300F1
S3151001B4109BB2F054641CFE2023009BB2F054641CB2
S3151001B420002023009BB2F054641C01FB0AF0104467
S3151001B430007D23009BB2F054641CFE2023009BB2B6
S3151001B440F054641C012023009BB2F054641C01FBD0
S3151001B4500AF01044C08A80B2000A23009BB2F0544D
S3151001B460641C01FB0AF01044C08A23009BB2F054FD
S3151001B470641CFE2023009BB2F054641C022023009E
S3151001B4809BB2F054641C01FB0AF01044008B80B28D
S3151001B490000A23009BB2F054641C01FB0AF010440D
S3151001B4A0008B23009BB2F054641CFE2023009BB238
S3151001B4B0F054641C032023009BB2F054641C01FB5E
S3151001B4C00AF01044C069000C23009BB2F054641CAE
S3151001B4D001FB0AF01044C069000A23009BB2F05424
S3151001B4E0641C01FB0AF01044C06923009BB2F0549E
S3151001B4F0641CFE2023009BB2F054641C042023001C
S3151001B5009BB2F054641C01FB0AF0104490F8210020
S3151001B51023009BB2F054641C01FB0AF0104490F80E
S3151001B520220023009BB2F054641C01FB0AF0104464
S3151001B53090F8230023009BB2F054641C01FB0AF01F
S3151001B540104490F8240023009BB2F054641C01FBB4
S3151001B5500AF0104490F8250023009BB2F054641CA5
S3151001B56001FB0AF102EB010090F82600210089B2D5
S3151001B5707054641C00208146200080B20499086032
S3151001B580EEE01AF1010A1DE79DF80C00FF2840F0C4
S3151001B590E4805FF0000AC24580F0E28073485FEAFA
S3151001B5A04A114058A84240F0D58034218D4A01FBFA
S3151001B5B00AF0105C3870387800280AD138200190CA
S3151001B5C000200090B346009A0199584607F06AFB8D
S3151001B5D0B8E0002023009BB2F054641C0520230020
S3151001B5E09BB2F054641CF02023009BB2F054641CEF
S3151001B5F0002023009BB2F054641C01FB0AF0104496
S3151001B600007D23009BB2F054641CF02023009BB2F2
S3151001B610F054641C012023009BB2F054641C01FBFE
S3151001B6200AF01044C08A80B2000A23009BB2F0547B
S3151001B630641C01FB0AF01044C08A23009BB2F0542B
S3151001B640641CF02023009BB2F054641C02202300DA
S3151001B6509BB2F054641C01FB0AF01044008B80B2BB
S3151001B660000A23009BB2F054641C01FB0AF010443B
S3151001B670008B23009BB2F054641CF02023009BB274
S3151001B680F054641C032023009BB2F054641C01FB8C
S3151001B6900AF01044C069000C23009BB2F054641CDC
S3151001B6A001FB0AF01044C069000A23009BB2F05452
S3151001B6B0641C01FB0AF01044C06923009BB2F054CC
S3151001B6C0641CF02023009BB2F054641C0420230058
S3151001B6D09BB2F054641C01FB0AF0104490F821004F
S3151001B6E023009BB2F054641C01FB0AF0104490F83D
S3151001B6F0220023009BB2F054641C01FB0AF0104493
S3151001B70090F8230023009BB2F054641C01FB0AF04D
S3151001B710104490F8240023009BB2F054641C01FBE2
S3151001B7200AF0104490F8250023009BB2F054641CD3
S3151001B73001FB0AF102EB010090F82600210089B203
S3151001B7407054641C00208146200080B20499086060
S3151001B750641C05E01AF1010A1DE7484600B201E032
S3151001B760484600B205B0BDE8F08F0000CC31031099
S3151001B770A4C30108F0B40300192400250026A6422B
S3151001B78021D2C948770107443F7F022F19DA770181
S3151001B790C7593F0C03F825707701C7593F0A03EBC8
S3151001B7A0850C8CF801707701C05903EB8507B870C9
S3151001B7B00C48342707FB06F7C05D03EB8507F870C5
S3151001B7C06D1C761CDBE70D6000201070107850F0B0
S3151001B7D001001070107850F0080010700020F0BCB5
S3151001B7E0704700005C65010830B401000800C0B262
S3151001B7F0642390FBF3F203FB12020800C0B2642328
S3151001B800B0FBF3F000021300DBB20A2493FBF4F34E
S3151001B81050EA03101300DBB20A2493FBF4F504FB80
S3151001B8201533184330BC70472DE9F84388B004002E
S3151001B830002004900C21002205AD280007F032FAF1
S3151001B8400027002003905FF0000825000AF018F881
S3151001B850060004A9002005F0EBFE04986421B0FB54
S3151001B860F1F0049004982870DFF8409203AA310091
S3151001B87099F800000AF09DF90398688003AA16F159
S3151001B880200199F800000AF094F90398A98860F349
S3151001B8900511A98003AA16F1400199F800000AF0D2
S3151001B8A088F90398A98860F30101A98005F04DFB79
S3151001B8B0012805D10220A98860F30D31A98004E081
S3151001B8C00120A98860F30D31A98003AA16F1600140
S3151001B8D099F800000AF06DF903A80088A86007A876
S3151001B8E002900DF11B0001900DF11A0000900DF15F
S3151001B8F0190306AA05A900200AF0C4FA002821D1C5
S3151001B9002020287305983030C0B2FFF76DFF687399
S3151001B9109DF81800FFF768FFA8739DF81900FFF747
S3151001B92063FFE8739DF81A00FFF75EFF28749DF810
S3151001B9301B00FFF759FF68749DF81C00FFF754FFB1
S3151001B940A87409E007275FF0000815F10C094246B3
S3151001B9503900484607F0A6F909B0BDE8F08310B5DD
S3151001B96004002000FFF760FF002010BD01205049A0
S3151001B97008700020704780B540F214514D4808F008
S3151001B980A7FF00B202BD002302001178C1F34001E6
S3151001B990C9B2002903D1012180F8281013E090F8CB
S3151001B9A0281001290FD1002180F8281090F82A10AB
S3151001B9B0FF2905D090F82A10491C80F82A1002E0B8
S3151001B9C0FF2180F82A101178C1F38001C9B200292C
S3151001B9D010D0012180F8291090F82B10FF2905D0DD
S3151001B9E090F82B10491C80F82B101AE0FF2180F8D3
S3151001B9F02B1016E0002180F82B1090F82910012940
S3151001BA000FD1002180F8291090F82C10282905D083
S3151001BA1090F82C10491C80F82C1002E0282180F88F
S3151001BA202C10117811F00101002912D0002180F893
S3151001BA302C1090F8201080F82E1090F8211080F814
S3151001BA402F1090F8221080F8301090F8231080F8FB
S3151001BA50311090F82C10282904D190F82D10491C7A
S3151001BA6080F82D107047F8B50400114800780028A9
S3151001BA7002D1208A282808DB0A25002614F1280776
S3151001BA8032002900380007F00DF9F1BD98C40108FC
S3151001BA9094C40108D64700086CC501089CC4010866
S3151001BAA0EC4700086DC50108CC31031002DC021009
S3151001BAB06BC501085C65010810B586B0040005A8C0
S3151001BAC002900DF1130001900DF1120000900DF18D
S3151001BAD0110304AA03A900200AF0D4F900282CD1D5
S3151001BAE0039840F2E571884216D3039830302070DE
S3151001BAF09DF8100060709DF81100A0709DF812005D
S3151001BB00E0709DF8130020719DF8140060710020FB
S3151001BB10A0710020E07120E00020207000206070EC
S3151001BB200020A0700020E0700020207100206071BC
S3151001BB300020A0710020E0710FE00020207000208D
S3151001BB4060700020A0700020E0700020207100209D
S3151001BB5060710020A0710020E071002006B010BDB8
S3151001BB602DE9F8418FB004002C21002204AD2800E4
S3151001BB7007F098F80721002202AD280007F092F885
S3151001BB804FF48C6508260027A0463A00310040463E
S3151001BB9007F088F804A80AF018FC02A80AF038FC85
S3151001BBA09DF8120010F03F0F03D1A07850F020003D
S3151001BBB0A07001A9002005F03BFD019844F25161E6
S3151001BBC0884204D3A07850F08000A07007E0019855
S3151001BBD0B0F5FA5F03D2A07850F04000A070684625
S3151001BBE00AF0D7FB9DF80E00022804D1607850F0B8
S3151001BBF00100607007E09DF80E00032803D16078FC
S3151001BC0050F0020060700AF091FD012803D16078AE
S3151001BC1050F0080060709DF80000012803D160788B
S3151001BC2050F0200060709DF80100012803D1607862
S3151001BC3050F0400060700BF0D7F9012803D16078FD
S3151001BC4050F0800060709DF81000012803D1207813
S3151001BC5050F0010020709DF81100012804D12078C0
S3151001BC6050F0040020700BE09DF81100022803D05B
S3151001BC709DF81100032803D1207850F0020020709E
S3151001BC809DF80200012803D1207850F00800207099
S3151001BC900BF0E8FC012803D1207850F01000207039
S3151001BCA09DF80D00022804D1607850F040006070B4
S3151001BCB007E09DF80D00032803D1607850F080004D
S3151001BCC060700020E070002020710020607100205B
S3151001BCD0A0710020E071DFF82C1791F90000000126
S3151001BCE0E0710022100040B2072813DA100040B2AA
S3151001BCF0205C2D18280000B2B0F5807F08DB2800E3
S3151001BD0000B200F0FF002DB210EB252505F0FF055E
S3151001BD10521CE7E791F9000045FA80F31133E579F2
S3151001BD2013F00F000543E5710878401C10F00F0061
S3151001BD300870002010B0BDE8F0817CB5040040F217
S3151001BD40751500202070002060700020A070002062
S3151001BD50E07000202071002060710020A071002089
S3151001BD60E07105F0F2F806006946002005F060FC66
S3151001BD70009843F27E1188420FD2207850F01000BD
S3151001BD80207000980A21B0FBF1F00090009800098C
S3151001BD90607000980001A07003E0207810F0EF00A9
S3151001BDA0207005F0D2F8012804D1A07850F00400D3
S3151001BDB0A07003E0A07810F0FB00A070DFF8481621
S3151001BDC091F900000001E0710022100040B207282D
S3151001BDD013DA100040B2205C2D18280000B2B0F51D
S3151001BDE0807F08DB280000B200F0FF002DB210EBB7
S3151001BDF0252505F0FF05521CE7E791F9000045FAE4
S3151001BE0080F31133E57913F00F000543E5710878D6
S3151001BE10401C10F00F000870002076BDF0B58BB0F5
S3151001BE20040068460AF0D1FA002840F096809DF881
S3151001BE3002000199DFF8D425B1FBF2F1090911EBE2
S3151001BE40001121700199DFF8C405019ADFF8BC359C
S3151001BE50B2FBF3F2B1FBF0F300FB1311DFF8B035CF
S3151001BE60B1FBF3F18908091D8A406270019A019BA1
S3151001BE703C21B3FBF0F500FB15334B43B2FBF0F558
S3151001BE8000FB1522DFF88855B2FBF5F2B3FBF0F58E
S3151001BE9000FB15334B43DFF87C55B3FBF5F3DB0998
S3151001BEA013EB8213A370019AB2FBF0F300FB13227A
S3151001BEB04A43B2FBF0F300FB13224A43DFF8543531
S3151001BEC0B2FBF3F292019DF80230DBB2DB0952FAB2
S3151001BED083F2E270029ADFF83435B2FBF3F2227183
S3151001BEE0029A019BB3FBF0F500FB15334B43B2FBF2
S3151001BEF0F0F500FB1522DFF81855B2FBF5F2B3FB8E
S3151001BF00F0F500FB15334B43DFF80855B3FBF5F39A
S3151001BF10DB0A13EB82036371019AB2FBF0F300FBA8
S3151001BF2013224A43B2FBF0F300FB13224A43DFF814
S3151001BF30E434B2FBF3F2D208A271019AB2FBF0F328
S3151001BF4000FB132201FB02F19DF80200C0B2800929
S3151001BF50000110F01000E07107E008250026270007
S3151001BF6032002900380006F09DFE00200BB0F0BD0E
S3151001BF70F0B58BB0040068460AF027FA00281DD1E7
S3151001BF800020207000206070BDF81C000A2190FB73
S3151001BF90F1F00012A070BDF81C000A2190FBF1F01F
S3151001BFA0E07000202071002060710020A071BDF8A2
S3151001BFB020000A2190FBF1F0E07107E00825002628
S3151001BFC0270032002900380006F06CFE00200BB065
S3151001BFD0F0BD38B584B004000A21002201AD280055
S3151001BFE006F060FE00200090694601A80BF062FB86
S3151001BFF001AD9DF80400697811EB0011B1F1300023
S3151001C0002070E878297911EB0011B1F130006070D8
S3151001C0106A4601A9022008F016FC01009DF80400E9
S3151001C0206A7812EB0012B2F13000A070E8782A7922
S3151001C03012EB0012B2F13000E070002020710020E6
S3151001C04060710020A0710020E071DFF8CC03026856
S3151001C050521C0260002005B030BD70B400259D420F
S3151001C0600CD22C010C59002C06D02C010C59241A77
S3151001C070442606FB05F694516D1CF0E770BC70471B
S3151001C08070B400259D420CD22C010C59002C06D0FF
S3151001C0902C010C59241A442606FB05F694516D1CE5
S3151001C0A0F0E770BC7047DFF874030178491C017022
S3151001C0B070472DE9FC4704000D0016001F005FF0C4
S3151001C0C00009B9454AD25FEA09102858002842D01A
S3151001C0D05FF0440A0AFB09F03158DFF8440300689F
S3151001C0E041180AFB09F031500AFB09F030585FEA92
S3151001C0F00911695888422ED30020804600200AFB78
S3151001C10009F170505FEA09102844C068002809D067
S3151001C1100AFB09F03044001D5FEA09112944C96878
S3151001C12088478046404600B2002814D1002000906E
S3151001C1305FEA09102844037A0AFB09FA06EB0A009A
S3151001C140021D5FEA091028444168200000B20DF073
S3151001C15003F8FFF7A8FF19F10109B2E7BDE8F38764
S3151001C1602DE9F84384B004006846DFF8B8121022AE
S3151001C17006F0DCFD002000252800C0B2002833D1CE
S3151001C1800626DFF8A4921427DFF8A0822800C0B291
S3151001C190784318F800000CF0BCFD2900C9B27143B0
S3151001C1A029F801002800C0B206FB00F609EB0600CB
S3151001C1B0002181702800C0B278434044037A2800D8
S3151001C1C0C0B27843404402692800C0B27843404463
S3151001C1D041682800C0B207FB00F708EB0700C068EA
S3151001C1E0FFF74EFF6D1CC7E7684609F0B0FADFF896
S3151001C1F040120870002C02D0DFF8240204600020DF
S3151001C20005B0BDE8F08310B4002000210800C0B2CB
S3151001C21000280BD10122DFF810320C00E4B20620FF
S3151001C220444303EB04008270491CEFE7002010BC65
S3151001C230704770B40020002200210800C0B2002807
S3151001C2402FD10123784C0D00EDB20620454304EBA6
S3151001C25005008370002002001423744C10000D0099
S3151001C260EDB25D4325442D7AC0B2A84217D208001B
S3151001C270C0B25843204405691600F6B2442046431D
S3151001C2800800C0B203FB00F304EB0300406813007F
S3151001C290DBB21B01C058C01FA851521CDCE7491C58
S3151001C2A0CBE7002070BC704770B400221000C0B2FA
S3151001C2B000282FD10020010014235C4C0800150022
S3151001C2C0EDB25D4325442D7AC0B2A84217D21000B3
S3151001C2D0C0B25843204405690E00F6B244204643C5
S3151001C2E01000C0B203FB00F304EB030040680B001F
S3151001C2F0DBB21B01C058C01EA851491CDCE7002344
S3151001C300494C1500EDB20620454304EB0500837038
S3151001C310521CCBE7002070BC7047F8B50020009086
S3151001C320002700266946002005F082F9404D28783D
S3151001C33000B209F04DFA0400200000B2002807D11E
S3151001C340287800B209F049FA01203A49087055E0F7
S3151001C350384D2878002821D000200600300080B200
S3151001C36000281BD11420314F310089B24143394481
S3151001C3700B7A310089B2414339440A69310089B2D5
S3151001C380414339444968B4461FFA8CFC00FB0CF052
S3151001C3903844C068FFF761FE761CDFE7002006000F
S3151001C3A0300080B2002827D10627DFF87CC0300084
S3151001C3B080B27843604490F9020000281AD0142004
S3151001C3C01A49320092B242430A44137A320092B2A7
S3151001C3D042430A441269B6461FFA8EFE00FB0EF05E
S3151001C3E008444168300080B207FB00F73CF90700AA
S3151001C3F0FFF75FFE761CD3E7002028700020F2BD00
S3151001C400000000003FC5010840C50108809698004C
S3151001C4100A8B0200A0860100E4C3010841C5010888
S3151001C420CC40000804530310B4C30108A8520310EA
S3151001C430EA4700083EC501081CB504000520FFF7B0
S3151001C4408FFE03F0E2FE0090FFF767FF05216846B5
S3151001C45003F095FDF8E7816911F8021C0A00D2B2C2
S3151001C460026070472DE9F04F85B004000D002800D9
S3151001C470C0B2022802D35FF0FF30A3E1DFF8806B70
S3151001C4803460DFF8807B3D70002001003A78C9B234
S3151001C490914280F0C3804FF4D271DFF86C2B0023E8
S3151001C4A084465FFA8CFC01FB0CFC02F80C305FF041
S3151001C4B0FF3384465FFA8CFC01FB0CFC9444ACF808
S3151001C4C0023084465FFA8CFC01FB0CFC94445FF04D
S3151001C4D0000E8CF804E084465FFA8CFC01FB0CFC20
S3151001C4E094445FF0000E8CF805E084465FFA8CFCEC
S3151001C4F001FB0CFC94445FF0000E8CF806E08446B8
S3151001C5005FFA8CFC01FB0CFC94445FF0000E8CF876
S3151001C51007E084465FFA8CFC01FB0CFC94445FF047
S3151001C520000E8CF808E084465FFA8CFC01FB0CFCCB
S3151001C53094445FF0000E8CF81CE084465FFA8CFC84
S3151001C54001FB0CFC9444ACF80C3084465FFA8CFC6D
S3151001C55001FB0CFC9444ACF80E3084465FFA8CFC5B
S3151001C56001FB0CFC9444ACF8103084465FFA8CFC49
S3151001C57001FB0CFC9444ACF8123084465FFA8CFC37
S3151001C58001FB0CFC9444ACF82C300300DBB24B439A
S3151001C59013445FF0000C83F809C00300DBB24B4370
S3151001C5A013445FF0000C83F814C00300DBB24B4355
S3151001C5B013445FF0000C83F815C00300DBB24B4344
S3151001C5C013445FF0000C83F816C00300DBB24B4333
S3151001C5D013445FF0000C83F829C00300DBB24B4310
S3151001C5E013445FF0000C83F82AC00300DBB24B43FF
S3151001C5F013445FF0000CC3F89CC10300DBB24B433C
S3151001C60013445FF0000C83F8A0C10300DBB201FBF9
S3151001C61003F1114400228A72401C36E75FF00008CC
S3151001C62040463978C0B2884280F0CB805FF04C0921
S3151001C63030684146C9B209FB01F10844007B0DF08F
S3151001C6401BFB30684146C9B209FB01F10844007B66
S3151001C6500DF0AAF94FF4D27ADFF8ACB94046C0B260
S3151001C6600AFB00F05844009030684146C9B209FBF4
S3151001C67001F10844007B0CF04CFB00994880012025
S3151001C6808DF8100030684146C9B209FB01F1084422
S3151001C6900069ADF80C0030684146C9B209FB01F1D9
S3151001C6A00844016930684246D2B209FB02F21044CD
S3151001C6B080684118ADF80E1000208DF81100012088
S3151001C6C001900120029001A94046C0B20AFB00F078
S3151001C6D05844B0F902000CF0D5FB05224046C0B211
S3151001C6E00AFB00F0584410F130014046C0B20AFB73
S3151001C6F000F05844B0F902000CF061FB4046C0B29C
S3151001C7000AFB00F05844009030684146C9B209FB53
S3151001C71001F94844007B0CF0FCFA0099A1F8980144
S3151001C72001208DF810000020ADF80C004FF40060C8
S3151001C730ADF80E0001208DF81100002001905FF078
S3151001C740FF30029001A94046C0B20AFB00F05844DE
S3151001C750B0F998010CF096FB4046C0B20AFB00F006
S3151001C7600BEB000906F069FCA9F80C004046C0B2B3
S3151001C7700AFB00F00BEB000906F05FFCA9F80E00AE
S3151001C7804046C0B20AFB00F00BEB000906F055FC5F
S3151001C790A9F810004046C0B20AFB00F00BEB0009E5
S3151001C7A006F04BFCA9F812004046C0B20AFB00FA8B
S3151001C7B00BEB0A0906F041FCA9F82C0018F1010847
S3151001C7C02EE7002005B0BDE8F08F10B40100080077
S3151001C7D000B2012802DB7FF0630044E04FF4D2720D
S3151001C7E0DFF8240811FB02F3C35C012B0AD111FBFC
S3151001C7F002F3034401245C7511FB02F21044012279
S3151001C80042712FE011FB02F3C35C022B0AD111FB1B
S3151001C81002F3034401245C7511FB02F21044012258
S3151001C82042711FE011FB02F3C35C052B05D111FB0D
S3151001C83002F210440122427114E011FB02F3C35CAF
S3151001C840032B05D111FB02F210440122427109E0BA
S3151001C85011FB02F3C35C042B04D111FB02F2104449
S3151001C86001224271002010BC704710B4010008006B
S3151001C87000B2012802DB7FF063002AE0080000B253
S3151001C880012802DB7FF0630023E04FF4D272DFF858
S3151001C890780711FB02F3C35C012B0AD111FB02F3DA
S3151001C8A0034401249C7111FB02F210440122C2714E
S3151001C8B00EE011FB02F3C35C022B09D111FB02F34B
S3151001C8C0034401249C7111FB02F210440122C2712E
S3151001C8D0002010BC704770B5040000260025280002
S3151001C8E0C0B2002816D12000C0B2002806D02800F8
S3151001C8F0C0B200B2FFF769FF060005E02800C0B21A
S3151001C90000B2FFF7B2FF0600300000B2002801D1D5
S3151001C9106D1CE4E7300000B270BD0100080000B2E2
S3151001C920012802DB7FF063001DE04FF4D270DFF8BF
S3151001C930D82611FB00F3D35C032B05D111FB00F0B4
S3151001C9401044002242710DE011FB00F3D35C042B5D
S3151001C95005D111FB00F010440022427102E07FF074
S3151001C960010000E00020704710B401000800C0B2B9
S3151001C970002802D07FF063000CE00022DFF8883631
S3151001C9800C00E4B24FF4D270444303EB040080F878
S3151001C9902920002010BC704710B401000800C0B255
S3151001C9A0002802D07FF063000CE00122DFF8583630
S3151001C9B00C00E4B24FF4D270444303EB040080F848
S3151001C9C02920002010BC704730B40300002201203A
S3151001C9D008704FF4D270DFF830461D00EDB24543B2
S3151001C9E0655D012D02D1012008700CE01D00EDB22C
S3151001C9F000FB05F020444079002802D0022008707F
S3151001CA0001E000200870100000B230BC704730B44D
S3151001CA100300002001220A70DFF8EC451D00EDB27B
S3151001CA204FF4D272554304EB050292F8A021002A65
S3151001CA3001D000220A7000B230BC704730B4030036
S3151001CA40002000220A70DFF8B44D1D00EDB24FF43C
S3151001CA50D272554304EB05021279002A01D0012244
S3151001CA600A7000B230BC704710B40022DFF88C3D5A
S3151001CA700400E4B24FF4D2714C4303EB04010A7182
S3151001CA8010BC704710B50400DFF874050168220068
S3151001CA90D2B24C20424301EB02008169DFF85C2DD2
S3151001CAA02300DBB24FF4D270434302EB0300B0F91B
S3151001CAB00C0006F0DFFA10BD10B50400DFF84005D2
S3151001CAC001682200D2B24C20424301EB0200C16937
S3151001CAD0DFF834252300DBB24FF4D270434302EB67
S3151001CAE00300B0F9100006F0C5FA10BD10B5040028
S3151001CAF0DFF814152200D2B24FF4D270424301EB83
S3151001CB000200B0F9100006F0D6FA10BD38B50400CF
S3151001CB104FF4D272DFF8F0342000C0B250431844FB
S3151001CB20407A002814D0DFF8D80401682500EDB248
S3151001CB304C20454301EB0500416A2000C0B202FBBF
S3151001CB4000F203EB0200B0F90E0006F093FA13E0BF
S3151001CB50DFF8AC0401682500EDB24C20454301EB2A
S3151001CB600500816A2000C0B202FB00F203EB02004D
S3151001CB70B0F90E0006F07EFA31BD10B50400DFF8EB
S3151001CB8088142200D2B24FF4D270424301EB020054
S3151001CB90B0F90E0006F08FFA10BD10B50400DFF8DB
S3151001CBA0600401682200D2B24C20424301EB02001C
S3151001CBB04169DFF854242300DBB24FF4D2704343AA
S3151001CBC002EB0300B0F9120006F054FA10BD10B5CD
S3151001CBD00400DFF834142200D2B24FF4D27042436B
S3151001CBE001EB0200B0F9120006F065FA10BD2DE94D
S3151001CBF0F84380460C0015004FF4D276DFF808741E
S3151001CC004046C0B2704338440121017195F8019034
S3151001CC1019F001094046C0B27043385C01280ED1A3
S3151001CC204046C0B270433844012181714046C0B2BA
S3151001CC3006FB00F607EB06000121C1714CE04046E8
S3151001CC40C0B27043385C02280ED14046C0B2704360
S3151001CC503844012181714046C0B206FB00F607EB4C
S3151001CC6006000121C17137E04046C0B27043385CFD
S3151001CC70032804D14046C0B2FFF704FF2CE040461A
S3151001CC80C0B27043385C042810D14046C0B2FFF7D9
S3151001CC90F9FE4846C0B200281ED04046C0B206FB77
S3151001CCA000F607EB06000121017215E04046C0B2FD
S3151001CCB07043385C05280FD14046C0B2FFF7E2FE3B
S3151001CCC04846C0B2002807D04046C0B206FB00F65F
S3151001CCD007EB060001210172BDE8F18338B50400A6
S3151001CCE00D004C21C64A10682300DBB24B43184491
S3151001CCF0806C002809D02800C0B212682300DBB26C
S3151001CD0001FB03F11144896C884731BD10B500242C
S3151001CD100DF055F801000800C0B2002801D100201D
S3151001CD2012E00800C0B20A2801D101200CE0080067
S3151001CD30C0B2012801D1032006E00800C0B20D28B7
S3151001CD4001D1042000E0062010BD10B500240DF01D
S3151001CD5036F801000800C0B2002801D100200CE00D
S3151001CD600800C0B20A2801D1012006E00800C0B2AD
S3151001CD700D2801D1042000E0112010BD2DE9FF4737
S3151001CD8004004FF4D276A04F2000C0B27043385C35
S3151001CD90012818D02000C0B27043385C022812D086
S3151001CDA02000C0B27043385C03280CD02000C0B2FA
S3151001CDB07043385C042806D02000C0B27043385C3A
S3151001CDC0052840F0DF802000C0B270433844407A15
S3151001CDD0002826D02000C0B2704338442100C9B2C1
S3151001CDE0714339448969491C81612000C0B270437D
S3151001CDF038448169824802682300DBB24C204343E0
S3151001CE0002EB0300C06A81420BD32000C0B270430B
S3151001CE103844002181612000C0B27043384400219A
S3151001CE2041722000C0B2FFF771FE2000C0B2FFF7B9
S3151001CE3029FE2000C0B27043384490F8290000281A
S3151001CE4040F0A08000208DF804000DF104080020A8
S3151001CE5088F80100002088F80200002088F80300F5
S3151001CE60002088F80400002088F8050000208DF8BD
S3151001CE700A0000208DF80B004C2061490A68230036
S3151001CE80DBB243431A4412690B68A4465FFA8CFC61
S3151001CE9000FB0CFC13F80C3012EB03090968220095
S3151001CEA0D2B200FB02F0085C8DF804005FF0000AB4
S3151001CEB02000C0B270433844407D00281AD00120AA
S3151001CEC082462000C0B2704338442100C9B2714372
S3151001CED03944897D11F0BF0181752000C0B27043BC
S3151001CEE038442100C9B271433944897D51F080011A
S3151001CEF0817517E02000C0B2704338442100C9B2D1
S3151001CF0071433944897D51F0400181752000C0B2C9
S3151001CF10704338442100C9B271433944897D11F0F7
S3151001CF207F01817588F801A02000C0B27043384492
S3151001CF30807D88F80200FFF7E9FE88F80300FFF705
S3151001CF4004FF88F8040000200090082301AA49462E
S3151001CF502000C0B270433844B0F902000CF0FCF95D
S3151001CF600500280000B200280CD12000C0B206FB33
S3151001CF7000F607EB06000021016200212000C0B275
S3151001CF80FFF7ACFEBDE8FF8770B505004FF4D2740C
S3151001CF901D4E2800C0B260433044807A00280FD05D
S3151001CFA02800C0B260433044B0F902000CF01CFBFB
S3151001CFB02800C0B204FB00F406EB040000218172C4
S3151001CFC070BD70B505004FF4D2740F4E2800C0B273
S3151001CFD060433044807A00280FD12800C0B26043E4
S3151001CFE03044B0F902000CF0D9FA2800C0B204FBA3
S3151001CFF000F406EB04000121817270BD00000000EF
S3151001D000BCC3010834C5010820A1010870B504008C
S3151001D0104FF4D275DFF8E4672000C0B26843305C84
S3151001D020002804D101202100C9B26943705420009F
S3151001D030C0B26843305C01286ED12000C0B268438B
S3151001D0403044407900282DD003202100C9B269430C
S3151001D05070542000C0B2684330440121417220004F
S3151001D060C0B268433044002101752000C0B2684344
S3151001D0703044012141752000C0B26843304401217A
S3151001D08081752000C0B2FFF731FD2000C0B2FFF755
S3151001D09075FE2000C0B2FFF780FD2000C0B2FFF779
S3151001D0A090FF39E02000C0B26843304480790028EF
S3151001D0B032D003202100C9B2694370542000C0B296
S3151001D0C068433044002181712000C0B26843304466
S3151001D0D0012141722000C0B268433044002101751C
S3151001D0E02000C0B268433044012141752000C0B20E
S3151001D0F068433044012181752000C0B2FFF7F6FC68
S3151001D1002000C0B2FFF73AFE2000C0B2FFF745FD7E
S3151001D1102000C0B2FFF755FF2000C0B26843305C53
S3151001D120032860D12000C0B26843304440790128F9
S3151001D1301FD12000C0B268433044B0F9120005F087
S3151001D140D4FF002815D12000C0B2FFF740FD200002
S3151001D150C0B2684330440021017504202100C9B2D0
S3151001D160694370542000C0B2684330441021817560
S3151001D1702BE02000C0B2684330444079002824D106
S3151001D1802000C0B268433044B0F9120005F0ADFF7B
S3151001D19000281AD12000C0B2FFF719FD2000C0B235
S3151001D1A068433044002101752000C0B26843304401
S3151001D1B0002141752000C0B2684330440021C1717D
S3151001D1C005202100C9B2694370542000C0B26843DA
S3151001D1D03044B0F90C0005F088FF002803D1200077
S3151001D1E0C0B2FFF74FFC2000C0B26843305C05287F
S3151001D1F040F0B1802000C0B2FFF7BFFC2000C0B2E2
S3151001D200FFF7E5FC2000C0B268433044007F0028D8
S3151001D2102FD02000C0B2684330440021017720008E
S3151001D220C0B268433044012141722000C0B2684344
S3151001D2303044012101752000C0B2684330440021F9
S3151001D240417503202100C9B2694370542000C0B250
S3151001D25068433044082181752000C0B2FFF79DFC58
S3151001D2602000C0B2FFF78AFD2000C0B2FFF7A9FE69
S3151001D2705AE02000C0B268433044007A00282FD00B
S3151001D2802000C0B268433044002101722000C0B2B0
S3151001D290684330440121417203202100C9B2694318
S3151001D2A070542000C0B268433044082181752000B3
S3151001D2B0C0B268433044002101752000C0B26843F2
S3151001D2C03044002141752000C0B2FFF766FC2000F2
S3151001D2D0C0B2FFF753FD2000C0B2FFF772FE23E084
S3151001D2E02000C0B268433044407901281CD1200087
S3151001D2F0C0B2FFF7C7FB2000C0B2FFF707FC200042
S3151001D300C0B2684330440021417504202100C9B2DE
S3151001D310694370542000C0B268433044202181759E
S3151001D3202000C0B2FFF74DFE2000C0B26843304462
S3151001D330B0F90C0005F0D9FE00280CD12000C0B2BE
S3151001D340FFF7BAFB2000C0B2FFF71EFE0220210034
S3151001D350C9B2694370542000C0B26843305C0428D6
S3151001D36040F08E802000C0B268433044007F002810
S3151001D3702FD02000C0B2684330440021017720002D
S3151001D380C0B268433044012141722000C0B26843E3
S3151001D3903044012101752000C0B268433044002198
S3151001D3A0417503202100C9B2694370542000C0B2EF
S3151001D3B068433044042181752000C0B2FFF7DEFCBA
S3151001D3C02000C0B2FFF7E9FB2000C0B2FFF7F9FD5C
S3151001D3D048E02000C0B268433044007A00282FD0BC
S3151001D3E02000C0B268433044002101722000C0B24F
S3151001D3F068433044012141722000C0B26843304471
S3151001D400002101752000C0B26843304400214175E6
S3151001D41003202100C9B2694370542000C0B2684389
S3151001D4203044042181752000C0B2FFF7A7FC20000B
S3151001D430C0B2FFF7B2FB2000C0B2FFF7C2FD11E088
S3151001D4402000C0B268433044407900280AD1200038
S3151001D450C0B2684330440021417505202100C9B28C
S3151001D460694370542000C0B268433044B0F90C00CF
S3151001D47005F03BFE002803D12000C0B2FFF702FBE6
S3151001D4802000C0B26843305C022840F0888020003A
S3151001D490C0B268433044407900282FD02000C0B272
S3151001D4A068433044012141722000C0B268433044C0
S3151001D4B0002101752000C0B2684330440121417535
S3151001D4C003202100C9B2694370542000C0B205FB84
S3151001D4D000F506EB0500022181752000C0B2FFF7A9
S3151001D4E005FB2000C0B2FFF758FB2000C0B2FFF7C2
S3151001D4F045FC2000C0B2FFF764FD50E02000C0B229
