S00F0000636D30706C75732E7372656351
S3151000000000400008615C0010156300106561001067
S3151000001000000000000000000000000000000000CA
S3151000002000000000000000000000000081610010C8
S315100000300000000000000000196300101D6300108E
S31510000040295800104F580010755800109B58001072
S31510000050C1580010E75800100D5900103359001000
S315100000602163001025630010296300102D63001012
S315100000703163001035630010396300103D630010C2
S315100000804F4940580007000F7047C9B20422514328
S315100000904018A62149014058C004C00C7047C9B287
S315100000A0042251434018A62149014058000CC004AF
S315100000B0C00C7047F8B586B00025059501798268A1
S315100000C00492C268009202690292006803902B00A3
S315100000D02A002C002800C9B200290CD0012912D000
S315100000E0022918D011290AD0122910D022291AD083
S315100000F0322914D01BE0334B0F22142417E0324B55
S3151000010013221C2413E0314B132220240FE0304B12
S31510000110132230240BE02F4B1322402407E02E4BE2
S3151000012013221C2403E0CE4B13222024FFE70121C7
S315100001300E00039F3E70029E17190B37BE4200D267
S315100001400800029E361BB61AF61E019600280DD11F
S31510000150009E3678002E09D1009E7678012E05D1A4
S31510000160009E019FF619B678002E00D008000028D0
S315100001700BD12E0000E0761C019FBE4205DA009FCF
S31510000180BF19BF78FF2FF6D00800002806D10098B7
S3151000019001994018C11C180001F0E8F8002808D190
S315100001A0220000980299401861424118049801F003
S315100001B0DDF8002801D103980570059807B0F0BD49
S315100001C04410000060620010B4610010C861001095
S315100001D0DC610010F061001004620010F3B585B008
S315100001E0040015001E00092004900A2003900B201D
S315100001F001900C2002900D270E2000902000FFF792
S315100002003FFF0728FAD2802040059649605020000B
S31510000210FFF736FF0728FAD2069800990903084314
S31510000220904960502000FFF72BFF0728FAD2049858
S31510000230000305438B4825502000FFF721FF0728B0
S31510000240FAD290256D0501980004711E01432943C9
S31510000250844821502000FFF713FF0728FAD202988E
S315100002600004711E014329437E4821502000FFF7E8
S3151000027007FF0728FAD23804711E01430D43794847
S3151000028025502000FFF7FCFE0728FAD23803D421A8
S3151000029089050143734821502000FFF7F1FE072816
S315100002A0FAD2D025AD050098000328436D49605059
S315100002B02000FFF7E5FE0728FAD201980003054350
S315100002C0684825502000FFF7DBFE0728FAD203986E
S315100002D08006761E7103014380200006084361499B
S315100002E060502000FFF7CCFE0728FAD201980003D1
S315100002F003990143A020800508435A496050200005
S31510000300FFF7BEFE0728FAD20298000304990143AC
S31510000310C020800508435349605017E02000FFF7BE
S31510000320AFFE0728FAD238033901014329434D4855
S3151000033021502000FFF7A4FE0728FAD200980003E8
S315100003400099090101430D4346482550200001F04C
S3151000035062F82000FFF794FE0728FAD2FC26B605AD
S31510000360019830433F496050200001F058F80421AD
S31510000370084080B200281ED02000FFF781FE072813
S31510000380FAD20120019902008A40029903008B409B
S315100003901343B84018439821490501433148215069
S315100003A02000FFF76DFE0728FAD2882040052D4958
S315100003B0605007B0F0BD2000FFF762FE0728FAD2A2
S315100003C0924D0198000301990901014329432548DB
S315100003D021502000FFF754FE0728FAD23E43214849
S315100003E02650200001F01BF80221084080B2002898
S315100003F094D12000FFF744FE0728FAD238033901BA
S31510000400014302980843D821890501431548215014
S315100004102000FFF735FE0728FAD2380339010143C9
S315100004207B4808430F4960502000FFF729FE072834
S31510000430FAD2009800030099090101430D430948B7
S3151000044025502000FFF71CFE0728FAD2009800035B
S3151000045003990143A020800508430249605075E7BF
S315100004601862001048100000F7B584B004001E0092
S3151000047000270125029502200090032003902000FA
S31510000480FFF7FEFD0728FAD20196380401990143B9
S315100004909020400508435F4960502000FFF7F0FDAB
S315100004A00728FAD29026760502980004019901438E
S315100004B03143584821502000FFF7E2FD0728FAD2B1
S315100004C000980004019901430E435248265020001B
S315100004D0FFF7D6FD0728FAD203988006019949033B
S315100004E001438020000608434A4960502000FFF768
S315100004F0C7FD0728FAD2D026B6053803304345493A
S3151000050060502000FFF7BCFD0728FAD23803039984
S315100005100143A020800508433E4960502000FFF7A4
S31510000520AFFD0728FAD2009800033843C021890589
S315100005300143384821502000FFF7A2FD0728FAD2C0
S3151000054005980003064333482650019E47E02000D5
S31510000550FFF796FD0728FAD20298000339010143E6
S3151000056006980843DC21890501432A4821502000BA
S31510000570FFF786FD0728FAD2380102990143CC20ED
S3151000058080040843234960502000FFF779FD0728AF
S31510000590FAD205980003059909010143009808430A
S315100005A01D4901431B4821502000FFF769FD07280C
S315100005B0FAD23803390101431848084315496050E7
S315100005C02000FFF75DFD0728FAD200980003009976
S315100005D0090101430D4808430E496050761E002E4E
S315100005E0B5D52000FFF74CFD0728FAD22800B840F1
S315100005F000992A008A4002430298854015439820A4
S31510000600400528430349605007B0F0BD010000249F
S3151000061001000025481000000000303A01000021BA
S31510000620FFB585B0040000200490012503950090C5
S3151000063002200290032001902000FFF721FD0728D9
S31510000640FAD20F9E0298000402217143491E0143FB
S31510000650902040050843824960502000FFF710FDA6
S315100006600728FAD290277F050198000402217143CA
S31510000670491E014339437A4821502000FFF700FDF7
S315100006800728FAD2049880067103014380200006D9
S315100006900843734960502000FFF7F2FC0728FAD28E
S315100006A0089802990903079A12010A431043CC21AC
S315100006B0890501436A4821502000FFF7E1FC07280D
S315100006C0FAD20198000302990901014304980843DC
S315100006D08C2189050143624821502000FFF7D0FC88
S315100006E00728FAD2029800030199090101430E98CE
S315100006F00843CC2189050143594821500498042107
S3151000070048432018A62149014058000CC004C00CCB
S31510000710002810D02000FFF7B3FC0728FAD2019862
S3151000072000030799090101430498084380218905AC
S3151000073001434B4821502000FFF7A2FC0728FAD2AC
S31510000740009800043100491C0143394344482150A4
S315100007502000FFF795FC0728FAD2009800030199AC
S315100007600901014302980843DC21890501433C48ED
S3151000077021502000FFF784FC0728FAD2019829009F
S31510000780814002982A0082400A439820400510436F
S31510000790334960502000FFF773FC0728FAD20398FC
S315100007A00004761C064337432D4827502000FFF7D8
S315100007B067FC0728FAD2DC26B605039800030099D1
S315100007C0090101430E980843304325496050200023
S315100007D0FFF756FC0728FAD2039800010099014347
S315100007E0D020800408431E4960502000FFF748FCC3
S315100007F00728FAD2009800030399090101430E98BD
S3151000080008430643164826502000FFF739FC0728F0
S31510000810FAD2069E300303990143C120800508438E
S315100008200F4960502000FFF72BFC0728FAD230033F
S3151000083000990143C0480843094960502000FFF75A
S315100008401FFC0728FAD2009829008140039885409A
S315100008500D439820400528430149605009B0F0BD6A
S3151000086048100000FEB584B0040000200290012557
S315100008700095022703200190042003902000FFF723
S31510000880FFFB0728FAD2009800040E990143902026
S3151000089040050843A94960502000FFF7F1FB0728DF
S315100008A0FAD29026760538040E9902225143491E33
S315100008B001433143A14821502000FFF7E1FB0728EF
S315100008C0FAD2019800040E9902225143491E01439F
S315100008D00E439A4826502000FFF7D2FB0728FAD27B
S315100008E0029880060E9949030143802000060843AA
S315100008F0924960502000FFF7C3FB0728FAD20698EA
S315100009000599019A1203090111430843CC2189055F
S3151000091001438A4821502000FFF7B2FB0728FAD27C
S315100009200C98CC26B60500990903019A12010A43C0
S3151000093010433043814960502000FFF7A1FB072880
S31510000940FAD2009800030099090101437C48084334
S315100009507A4960502000FFF793FB0728FAD20098D7
S315100009600003009909010143764808437349605012
S315100009702000FFF785FB0728FAD2380300990901F2
S3151000098001430D98084306436C4826502000FFF794
S3151000099077FB0728FAD23803390101430198084337
S315100009A0D82189050143654821502000FFF768FBCF
S315100009B00728FAD203980003A021C90401435F480F
S315100009C021502000FFF75CFB0728FAD238033901C3
S315100009D00143029808438C21890501435748215049
S315100009E02000FFF74DFB0728FAD200980003D0210C
S315100009F089050143514821502000FFF741FB072884
S31510000A00FAD2802636060298800630434B4960504B
S31510000A102000FFF735FB0728FAD200980003029949
S31510000A200143A02080050843444960502000FFF789
S31510000A3027FB0728FAD2029880060E99490301432C
S31510000A400E433E4826500298042148432018A621FA
S31510000A5049014058000CC004C00C002810D02000DA
S31510000A60FFF70EFB0728FAD2009800030099090138
S31510000A700143029808438021890501432F482150DC
S31510000A802000FFF7FDFA0728FAD203988021C9043F
S31510000A9001432A482150200000F0BDFC2000FFF73A
S31510000AA0EFFA0728FAD238033901014300980843B0
S31510000AB025490143214821502000FFF7E1FA072874
S31510000AC0FAD201980003390101430D980843DC213D
S31510000AD089050143194821502000FFF7D1FA07284C
S31510000AE0FAD2380101990143CC20800408431349F6
S31510000AF060502000FFF7C4FA0728FAD204980003C2
S31510000B003843C021890501430C4821502000FFF7C6
S31510000B10B7FA0728FAD20198290081402800B84070
S31510000B20084300998D400543982040052843034902
S31510000B30605007B0F0BD00000000303048100000D3
S31510000B4001000021010000240000303AF3B58BB0FB
S31510000B50040015001E00052706200A90072009909C
S31510000B6008200590092004900A2007900B20039076
S31510000B700C2008900D2006900E2002902000FFF702
S31510000B807FFA0728FAD280204005AD496050200030
S31510000B90FFF776FA0728FAD20A9800030543A84801
S31510000BA025502000FFF76CFA0728FAD20C98390363
S31510000BB00843A34960502000FFF762FA0728FAD2CB
S31510000BC00998000306439E4826502000FFF758FA5E
S31510000BD00728FAD2129805990903084398496050D4
S31510000BE02000FFF74DFA0728FAD21498079909033F
S31510000BF00843934960502000FFF742FA0728FAD2BB
S31510000C0013980899090308438D4960502000FFF78F
S31510000C1037FA0728FAD21598C025AD0539030843C7
S31510000C202843874960502000FFF72AFA0728FAD28E
S31510000C3090267605049800041699491E01433143FF
S31510000C407F4821502000FFF71BFA0728FAD2069892
S31510000C5000041699491E014331437948215020005A
S31510000C60FFF70EFA0728FAD2039800041699491EC0
S31510000C7001430E437248265016980190059800902D
S31510000C80089B0A9A06992000FFF7CAFC200000F07C
S31510000C90C2FB2000FFF7F4F90728FAD203980003E5
S31510000CA0099901430D43664825502000FFF7E8F9DE
S31510000CB00728FAD204980003D02189050143604819
S31510000CC021502000FFF7DCF90728FAD2029800031A
S31510000CD003990901014304980843982189050143A2
S31510000CE057482150200000F096FB0299C9B2200007
S31510000CF0FFF7D5F905000399C9B22000FFF7C5F92A
S31510000D00401C401B694608802000FFF7B9F90728E8
S31510000D10FAD202988006ADB269030143802000061C
S31510000D200843474960500298042148432018A621D9
S31510000D3049014058000CC004C00C002810D02000F7
S31510000D40FFF79EF90728FAD20398000303990901C1
S31510000D5001430298084380218905014338482150F0
S31510000D606846058832E01698029005980190079813
S31510000D7000903B003A0039002000FFF773FD200079
S31510000D8000F049FB2000FFF77BF90728FAD20398F9
S31510000D9000030399090101432A4808432849605072
S31510000DA0200000F03CFB0100C907C90F89B20029D9
S31510000DB00BD0169802900598019007980090069B04
S31510000DC03A0039002000FFF74DFD6D1E012DCADADD
S31510000DD02000FFF755F90728FAD204980003D4210A
S31510000DE089050143164821501698029005980190DE
S31510000DF007980090049B3A0039002000FFF732FD57
S31510000E002000FFF73DF90728FAD2012004990200C5
S31510000E108A40069903008B40134303998840184370
S31510000E20982149050143064821502000FFF728F96B
S31510000E300728FAD288204005014960500DB0F0BD50
S31510000E404810000001000021F0B593B00400002204
S31510000E5012920868806811900868C0680190086846
S31510000E60006810900868456848680F9088680E906A
S31510000E70C8680D9008680069049008684069039076
S31510000E8008688069029010001000100005200B9071
S31510000E9006200A9007200990082006900920059040
S31510000EA00A2007900B2008908021890180200002DB
S31510000EB02618300000F0C0FA2000FFF7E1F80728E6
S31510000EC0FAD2902676050B980004691E0143314329
S31510000ED0AC4821502000FFF7D3F80728FAD20A9819
S31510000EE00004691E01433143A64821502000FFF734
S31510000EF0C7F80728FAD209980004691E014331433E
S31510000F00A04821502000FFF7BBF80728FAD2069810
S31510000F100004691E014331439A4821502000FFF70F
S31510000F20AFF80728FAD207980004284330439549AA
S31510000F3060502000FFF7A4F80728FAD2059800049D
S31510000F40691E014331438F4821502000FFF798F85E
S31510000F500728FAD208980004691E01430E438948EF
S31510000F602650EE080720054200D0761C2900491CA1
S31510000F70C90800912900491C0140002902D0009996
S31510000F80491C00910199CF0801990840002800D00A
S31510000F907F1C0699C9B22000FFF781F8320010991C
S31510000FA00C9180210902611880B204234343C818AA
S31510000FB001900C99019800F083FA01980999C9B229
S31510000FC02000FFF76CF83A0011990191802109026F
S31510000FD0611880B204234343CF180199380000F0FA
S31510000FE06FFA0A99C9B22000FFF759F80E990C91B9
S31510000FF00F99019180210902611880B2042242439F
S315100010008F180C9A0199380000F05AFA04980028A3
S3151000101009D12B00069A07992000FFF725FA200020
S3151000102000F0F9F914E00799C9B22000FFF737F874
S31510001030009901910499009180210902611880B2EA
S31510001040042242438F18019A0099380000F038FAAA
S315100010500298002818D12000FFF712F80728FAD2B4
S3151000106005980003D421890501434648215001956E
S3151000107006980090079B059A08992000FFF7D0FA6A
S31510001080200000F0C8F912E00899C9B22000FFF755
S3151000109006F832000299009180210902611880B287
S315100010A004234343CF180099380000F009FA039837
S315100010B0002809D12B00069A05992000FFF78EF813
S315100010C0200000F0A8F912E00599C9B22000FEF739
S315100010D0E6FF32000399009180210902611880B25F
S315100010E004234343CF180099380000F0E9F904951A
S315100010F0089803900598029007980190069800901A
S31510001100099B0A9A0B992000FFF720FD200000F09A
S3151000111082F90B99C9B22000FEF7C1FF3200802177
S315100011200902611880B204234343C9180D9D280093
S3151000113000F0C6F92000FEF7A3FF0728FAD2012017
S315100011400B9902008A400A9903008B4013430999B0
S3151000115002008A401A43069903008B4013430599EF
S3151000116002008A401A43079903008B4013430899DB
S315100011708840184398214905014302482150129886
S3151000118013B0F0BD48100000F8B58AB00400002274
S315100011900992086800680090086845680868006940
S315100011A008900868406907900868806906900B20C7
S315100011B003900C2002900D2004900E2005908021A3
S315100011C08901802000022618300000F035F9200031
S315100011D0FEF756FF0728FAD29026760503980004E4
S315100011E0691E01433143604821502000FEF748FF35
S315100011F00728FAD204980004284330435A4960500D
S315100012002000FEF73DFF0728FAD202980004691E57
S3151000121001433143544821502000FEF731FF07287F
S31510001220FAD205980004691E01430E434E48265013
S31510001230EE080720054200D0761C2900491CCF086D
S315100012402900491C0840002800D07F1C0399C9B208
S315100012502000FEF724FF3200009901918021090237
S31510001260611880B204234343C8180090019900986E
S3151000127000F026F900982B00039A04992000FFF736
S31510001280F3F8200000F0C7F80499C9B22000FEF761
S3151000129006FF3A0080210902611880B204234343F5
S315100012A0C918089F380000F00BF92000FEF7E8FE79
S315100012B00728FAD202980003D421890501432A4847
S315100012C02150019503980090049B029A05992000DD
S315100012D0FFF7A6F9200000F09EF80599C9B2200084
S315100012E0FEF7DDFE320080210902611880B2042368
S315100012F04343C918069F380000F0E2F82B00039A02
S3151000130002992000FEF76AFF200000F084F8029987
S31510001310C9B22000FEF7C3FE32008021090261180F
S3151000132080B204234343C918079D280000F0C8F86B
S315100013302000FEF7A5FE0728FAD201200399020025
S315100013408A40029903008B401343049902008A4095
S315100013501A430599884010439821490501430248CC
S31510001360215009980BB0F0BD48100000A446521E3B
S3151000137008D303780C78401C491CA342F7D0181BDD
S3151000138064467047002064467047F1B401684218FD
S3151000139041684808131800988068C9071ED5494641
S315100013A040181BE01778521C0770401C761EF9D1A6
S315100013B0002C13D01678521C89080D40032D01D12C
S315100013C01578521C290271184D424119A41C05D0DA
S315100013D00D78491C0570401C641EF9D19A420FD035
S315100013E01178521C032503260E4002D11678F61CDE
S315100013F0521C0C090F2CD9D114780F34521CD5E776
S3151000140000980C30F2BC704700B509494158C90F15
S315100014100029FAD100BD80B5FFF7F6FF01BD10B562
S3151000142004002000FFF7F7FF0248205880B210BDD5
S3151000143004100000901400001206130A1A43130C2D
S315100014401A4300BF094205D0830707D00270401C1B
S31510001450491EF9D1704700000022FFE7130010392A
S3151000146006D330B41400150010393CC0FCD230BC81
S31510001470490700D30CC000D504C0890002D30280EE
S31510001480801C002900D502707047000070B4103A15
S3151000149003D378C9103A78C0FBD2530701D318C9C1
S315100014A018C001D508C908C0D20704D30B88038019
S315100014B0891C801C002A01D50B78037070BC7047FC
S315100014C08B0701D18307E1D0124205D00B78491C56
S315100014D00370401C521EF9D17047000008B4024B2D
S315100014E09C4608BC6047C046A10D000800B5010027
S315100014F009B2002905D40121C006C00E8140C94891
S31510001500016000BD00B5010009B2002905D4012112
S31510001510C006C00E8140C448016000BDF0B502008F
S3151000152012B2002A1CD40322A34B040024B2A4082E
S3151000153004256C431C59FF250600164008277E43D8
S31510001540B540AC438901C9B205002A4008256A4353
S315100015509140214300B2800804225043195022E0E2
S315100015600F24B24A032305002DB22540083DAD08CD
S3151000157004267543060036B23440083CA4080426F7
S3151000158074431659FF27BC4604001C4008277C43A9
S315100015906746A740BE438901C9B2034008204343AA
S315100015A0994031435151F0BD10B50400082C0AD3AF
S315100015B01822BA49BA4800F081FCCD20B949086012
S315100015C0002000F0E5FCB84820214C43001910BD5E
S315100015D010B50400082C0AD31822B049B04800F000
S315100015E06DFCE820AF490860002000F0D1FCC5482A
S315100015F020214C43001910BDC34B1B689BB212042B
S315100016001A43120C120489B2114381607047C068E4
S315100016107047BE4B1B689BB212041A43120C12047D
S3151000162089B21143016000687047B94A1268120CFA
S31510001630120489B2114341607047000C704710B50F
S3151000164003001000CA0704D51A6880242406144320
S315100016501C608A0704D51A6A8024240614431C6267
S31510001660490706D580215958802212060A4380213F
S315100016705A5080B200F082FC10BD10B50024C9B2D9
S31510001680002903D002290BD005D30FE0006804000F
S31510001690E407E40F16E0006A0400E407E40F11E023
S315100016A0802140580400E407E40F0BE01822C049DB
S315100016B07B4800F003FCFF20F2307A4908600020D6
S315100016C000F066FC200010BDC9B20164704780B5F9
S315100016D0C9B2002902D0012909D011E001690323FA
S315100016E09943D2B29207920F0A43026113E0016B3B
S315100016F003239943D2B29207920F0A4302630AE078
S315100017001822AB49664800F0D9FBAA48654908601B
S31510001710002000F03DFC01BD80B5C9B2002902D001
S3151000172001290AD013E0016930239943D2B212017C
S31510001730302313400B43036114E0016B30239943AC
S31510001740D2B21201302313400B4303630AE018226E
S315100017509749534800F0B2FBB1485249086000203F
S3151000176000F016FC01BD80B5C9B2002902D00129CE
S315100017700BD015E00169AB4B0B40D2B2110280229F
S31510001780520011401943016115E0016BA54B0B4046
S31510001790D2B21102802252001140194301630AE0AD
S315100017A0182283493E4800F089FBB2483D4908603B
S315100017B0002000F0EDFB01BD00E400E08422825819
S315100017C001239A43C9B20B00DB07DB0F13438421B5
S315100017D04350704780B5C9B2002902D001290AD0FA
S315100017E013E00169B44B0B401103802252011140E2
S315100017F01943016114E0016BAF4B0B4011038022BA
S3151000180052011140194301630AE01822684924481D
S3151000181000F054FBB24823490860002000F0B8FBE2
S3151000182001BD000000E100E080E200E01CED00E0F8
S3151000183080B5C9B2002903D0022915D00AD31FE0FA
S315100018400169B34B0B4091078022D2051140194311
S31510001850016121E0016BAE4B0B4091078022D2054E
S3151000186011401943016317E084214158A84B0B40DE
S3151000187091078022D20511401943842281500BE032
S3151000188018224B49064800F019FBE820800005494C
S315100018900860002000F07CFB01BD0000E05A00103B
S315100018A0340E0008800E00080000224080B5C9B230
S315100018B0002903D002290FD007D316E00169490089
S315100018C04908D2070A4302611AE0016B4900490828
S315100018D0D2070A43026313E084214158490049089C
S315100018E0D2070A43842142500AE018223049AF48F1
S315100018F000F0E4FA8748AE490860002000F048FB83
S3151000190001BD000000102240E4620010E8620010E1
S31510001910EC62001010B51C00C9B2002902D00129D2
S3151000192007D00DE04168090C090492B211434160D9
S3151000193011E0416A090C090492B2114341620AE0AE
S3151000194018221B49994800F0B9FA9A489849086034
S31510001950002000F01DFB200080B200F00FFB10BD30
S3151000196010B51C00C9B2002902D0012907D00DE01C
S315100019708168090C090492B21143816012E0816AF0
S31510001980090C090492B2114381620BE0182208492E
S31510001990864800F093FA8D20C00085490860002023
S315100019A000F0F6FA200080B200F0E8FA10BD000050
S315100019B0605B00106702000010B51C00C9B2002958
S315100019C002D0012907D00DE0C168090C090492B2B2
S315100019D01143C16011E0C16A090C090492B21143A6
S315100019E0C1620AE018228B49704800F067FA8A48EB
S315100019F06F490860002000F0CBFA200080B200F09A
S31510001A00BDFA10BD84228258844B1340C9B2090412
S31510001A10F82252030A401A438421425070470000AC
S31510001A208B020000FFFEFFFF80B5C9B2002902D06D
S31510001A30012905D00CE094214158C907FBD412E0C6
S31510001A40942141580A009207D20F002AF8D10AE0D1
S31510001A5018227049554800F031FABF4854490860B9
S31510001A60002000F095FA01BDBC48016849004908FC
S31510001A7001607047AF020000B9490A680E4B134067
S31510001A80C0B2000380225201104018430860086853
S31510001A907047B3480068010A0800C007C00F7047B6
S31510001AA000B50120AF490A6802430A600A6802407D
S31510001AB0002AFBD100BD0000FFEFFFFFAA48016816
S31510001AC001220A4302607047A848016801220A43AE
S31510001AD002607047A5480168012291430160704772
S31510001AE05903000080B5FFF7E9FFFFF7EDFF01206E
S31510001AF0FFF7C2FFFFF7B8FFFFF7D2FF002000F095
S31510001B00D5FA974801688022D2030A43026001BDC4
S31510001B10FFFFFFBFE603000010B501229449954868
S31510001B2000F0C2FD002840D000F0C6FE924988425F
S31510001B3011D1924C012000F0C2FEA04202D1FFF753
S31510001B40CDFC32E0002000F0BAFEA0422DD10020DC
S31510001B5000F096FE29E000F0AFFE8949884210D1C8
S31510001B60864C002000F0ABFEA0421ED0012000F0F3
S31510001B70A6FEA04219D1012000F082FEFFF7AEFCAE
S31510001B8013E07E4C002000F09AFEA04203D1002004
S31510001B9000F076FE09E0012000F091FEA04204D18B
S31510001BA0012000F06DFEFFF799FC10BD340E000801
S31510001BB0800E0008370400001CB50720FFF708FD4B
S31510001BC0FFF725FDFFF739FD0400802C21D10720F2
S31510001BD0FFF7FEFC22000021FFF71BFD0720FFF791
S31510001BE0E3FC694600F0F8FE00280CD100980028A6
S31510001BF003D0022806D001D305E004E00120A24953
S31510001C00087000E0FFE70720FFF7CEFC4021FFF742
S31510001C100CFD13BD605B001099040000FFFFE0FF90
S31510001C2010B59A4C00212000FFF74EFD002200212E
S31510001C302000FFF74CFD002200212000FFF76CFD6D
S31510001C40002200212000FFF78EFD00220121200036
S31510001C50FFF73DFD022201212000FFF75DFD002266
S31510001C6001212000FFF77FFD00212000FFF7A6FDD0
S31510001C700023002200212000FFF74CFE0023002243
S31510001C8000212000FFF798FE002364220021200087
S31510001C90FFF766FE0023002201212000FFF73AFE1F
S31510001CA00023002201212000FFF786FE0023FA22DE
S31510001CB0120201212000FFF753FE0F212000FFF72B
S31510001CC0A1FE002200212000FFF784FD0022012141
S31510001CD02000FFF77FFD012200212000FFF7A8FD5D
S31510001CE0012201212000FFF7A3FD0122022120007D
S31510001CF0FFF79EFD012200212000FFF7D7FD0122EC
S31510001D0001212000FFF7D2FD012202212000FFF75A
S31510001D10CDFD002207212000FFF791FC00212000B5
S31510001D20FFF7ABFC0128F9D101212000FFF7A5FC34
S31510001D300128F9D102212000FFF79FFC0128F9D1D3
S31510001D4010BD10B5514C0121200000F097FE012165
S31510001D502000FFF769FE10BD8D0500000004244029
S31510001D60000024400800244000F4244000F52440DC
S31510001D70986200105C0E0008BBBBBBBBA55AAA55E7
S31510001D80AAAAAAAAF8B5FFB081B000F087FE62B67B
S31510001D90FFF7A8FEFFF77DFE002842D101223C493D
S31510001DA03C4800F081FC002839D000F0AEFD3A49DD
S31510001DB0884234D090256D05280000F0E9FC37489C
S31510001DC000F0E6FC364800F0E3FC002738003C0043
S31510001DD01BE0210089B204224A438021490551188B
S31510001DE009686A4603009BB204265E439151641C3F
S31510001DF0401C010089B28029EBDB8026B6006A46BA
S31510001E003100280000F0DFFCAD192648854201D2CA
S31510001E103800EEE7FFF75EFE012000F05AFDFFF7EF
S31510001E207BFE2149214800F0F9FF00210320FFF72E
S31510001E3075FB0320FFF766FB0320FFF757FB1C48D3
S31510001E4000F031FF0720FFF7C3FB80220021FFF7C8
S31510001E50D3FB184801F04EF91749072001F06BF92A
S31510001E600220FFF74FFB0220FFF740FBFFF7D8FEDB
S31510001E70054C2078012804D1002001F06FF90020CC
S31510001E802070FFF75EFFF3E7AF0E000800802640D4
S31510001E90986200105C0E0008A55AAA550080001220
S31510001EA00000011200800112F80D000828600010D1
S31510001EB000800110880D0008B91B001071B58B0742
S31510001EC009D0521E28D30B780370401C1B421FD01A
S31510001ED0491C8B07F5D1121F3ED3274CE50140C98B
S31510001EE0331BB3432B4209D1830716D140C0121FAF
S31510001EF032D340C9331BB3432B42F7D0121DFF23F5
S31510001F001E4205D00670401C360A521E1E42F9D1DA
S31510001F1011000022FFF796FA71BDDB4216D0401E63
S31510001F204670360A4680360C0671001D121F06D3FF
S31510001F3040C9331BB3432B42F2D0401CDEE7401C92
S31510001F400AE040C9331BB3432B42D7D10680360C67
S31510001F504680001D121FF4D2121D0BD00B78037091
S31510001F60521E07D0401C491C1B42F7D10370401C5F
S31510001F70521EFBD171BD00000101010180B50100A7
S31510001F8089B212480068484301F08AF901BD000081
S31510001F9000B501BEFEE780B50D4A0E490B689342A7
S31510001FA010D00A6002684A6042688A608268CA6015
S31510001FB0C2680A6102694A6142698A618269CA61B4
S31510001FC0C069086200F008F801BD00009C0E000808
S31510001FD0F3F2F1F0D40D000800B5FEE700B50100EC
S31510001FE009B2002905D40121C006C00E8140A048BF
S31510001FF0016000BDF0B5020012B2002A1CD4032203
S315100020009C4B040024B2A40804256C431C59FF25DC
S315100020100600164008277E43B540AC438901C9B275
S3151000202005002A4008256A439140214300B28008E2
S3151000203004225043195022E00F248F4A032305002F
S315100020402DB22540083DAD0804267543060036B26C
S315100020503440083CA408042674431659FF27BC468E
S3151000206004001C4008277C436746A740BE438901ED
S31510002070C9B2034008204343994031435151F0BD42
S3151000208000B501207D490A6802430A600A680240C9
S31510002090002AFBD100BDF8B5684601F0DFF9012032
S315100020A077490870FFF7ECFF05B000BD80B5C0B2E8
S315100020B001280ED10321734801F008FA03210320E9
S315100020C0FFF798FF0320FFF789FF01206E4908707C
S315100020D002E000206C49087001206949087001BDB2
S315100020E03EB504000D00694803C86A4603C2083AA3
S315100020F02800C0B2002811D16348007801280AD000
S31510002100182263496348FFF7D9FE8B20624908609D
S315100021100020FFF73DFF002059490870684601214D
S3151000212001710021417100942A00D2B26946002043
S3151000213000F052FA00280AD0182255495548FFF7E0
S31510002140BDFE9520544908600020FFF721FF37BDDA
S315100021503EB505000C00280000F042F900280AD010
S3151000216018224B494B48FFF7A9FEAB204A49086095
S315100021700020FFF70DFF2000C0B2002811D1424801
S31510002180007801280AD0182241494248FFF796FEE6
S31510002190AF20414908600020FFF7FAFE00203849B9
S315100021A008700095280000F057F9002801D020206B
S315100021B001E08020800001902200D2B26946002002
S315100021C000F072FA002801D1012000E000203EBD87
S315100021D07FB505000E001400280000F001F9002854
S315100021E00AD018222A492B48FFF768FED5202A491B
S315100021F008600020FFF7CCFE68461021FFF72CF987
S315100022002000C0B2002811D11F48007801280AD03A
S3151000221018221F491F48FFF751FEDC201E4908608F
S315100022200020FFF7B5FE0020154908700121684609
S315100022300A0002720A00427202228272C1720021E0
S315100022400173009501962200D2B26946002000F073
S315100022506FF800280AD018220D490E48FFF72EFEF7
S31510002260EB200D4908600020FFF792FE7FBD0000AD
S3151000227000E100E000E400E01CED00E0080024406E
S31510002280AC0E000897200010AD0E000888620010F2
S31510002290285E0010340E0008800E00084C480068B6
S315100022A0410B0800C007C00F704749480068010B72
S315100022B00800C007C00F704700B5012045490A68DD
S315100022C002430A600A680240002AFBD100BD1FB50E
S315100022D00400C9B2012921D168461021FFF7BCF8C4
S315100022E06946200001F01DF80100C9B2012901D18B
S315100022F057481BE00100C9B2022901D1364815E042
S31510002300C0B2042801D1354810E0009800F010F949
S3151000231000280BD1FFF7D0FF002007E0200001F0C6
S315100023204FF8002801D04A4800E0002004B010BD44
S315100023307FB50C001500002C01D1464846E02068F8
S3151000234000F0E4F8012802D06068002801D1414865
S315100023503CE068461021FFF77FF800980002000A5B
S31510002360C021C90401430091227AFF200002494985
S31510002370009B0B40120202401A430092637A009EA1
S31510002380454A32401B04FF2636041E40164300966B
S31510002390E27A019B19401202104008430190A07A7C
S315100023A00199FF229143C0B208430190207B019905
S315100023B00902090A00060843019020680290606825
S315100023C003902900C9B26846FFF781FF04B070BDBB
S315100023D0000024400800244010005200FF00520064
S315100023E010B50400FFF75AFF002810D1A0204005B1
S315100023F0201A90214902884201D2002026E0734813
S31510002400201AC021C90188421FD200201EE0902048
S315100024100002A0214905611A814201D2002015E06F
S31510002420C02189016A4AA21A8A4201D200200DE00F
S31510002430A8225205A21A824201D2002006E065485F
S31510002440201A884201D2002000E0012010BD0000B1
S31510002450040052000F00520010B50400FFF71EFFD3
S31510002460002807D15948201AC021C90188420FD225
S3151000247001200EE0C02080015549611A814201D227
S31510002480012006E05349611A814201D2012000E081
S31510002490002010BDFF00FFFFFFFF00FF10B5040076
S315100024A0FFF703FF002810D180204005201AF021E5
S315100024B00903884201D2002026E06548201A8021AF
S315100024C0890288421FD200201EE0F020C00280211F
S315100024D04905611A814201D2002015E08021490286
S315100024E05C4AA21A8A4201D200200DE090225205BF
S315100024F0A21A824201D2002006E05748201A8842CA
S3151000250001D2002000E0012010BD000010B504002B
S315100025102000FFF765FF002801D1002007E020000A
S31510002520FFF7BCFF002801D1002000E0012010BDFC
S3151000253080B500F0B3FF002801D1002044E04749E0
S31510002540884201D146483FE04649401A1CD0801EB9
S315100025501DD0401E1DD0401E1DD0401E1DD0001F78
S315100025601DD087381DD0401E1DD012381DD0401EDC
S315100025701DD0401E1DD0801E1DD0801E1DD00838B7
S315100025801DD009381DD01EE0A420C0031CE036481B
S315100025901AE0364818E0364816E0364814E0364851
S315100025A012E0364810E036480EE036480CE0364861
S315100025B00AE0364808E0364806E0364804E0364871
S315100025C002E0364800E0264802BD00000020011453
S315100025D0009000140090001538B584B00C0015005A
S315100025E0002C01D12E4831E02068FFF78FFF01281B
S315100025F001D12B482AE02078800701D0284825E011
S3151000260068461021FEF728FF00980002000AA02154
S3151000261049050143009120790099224A0A40000297
S31510002620FF210902014011430091607900994D4A3A
S315100026300A400004FF21090401401143009120685B
S3151000264001902900C9B26846FFF741FE05B030BDBA
S3151000265000000F100080071000800712FFFFFF0F09
S31510002660FF005200010000F001005200020052006B
S3151000267003005200040052000500520006005200EA
S315100026800700520008005200090052000A005200CA
S315100026900B0052000C0052000D0052000E005200AA
S315100026A00F005200FF00FFFF38B588B00C00150070
S315100026B0002C01D12F4852E06068002801D12D4826
S315100026C04DE02068FFF78CFE012809D0206861686C
S315100026D0042251434018401EFFF782FE012801D103
S315100026E024483CE068461021FEF7B6FE009800022A
S315100026F0000AA821890501430091206801906068AD
S31510002700401E0299090C090480B208430290EDB2EA
S31510002710012D1CD104A81021FEF79EFE04A96846BF
S3151000272000F0FFFD0100C9B2012901D1104816E0E1
S315100027300100C9B2022901D10B4810E0C0B2042829
S3151000274001D10A480BE00498FFF7F2FE07E068464D
S3151000275000F036FE002801D0054800E0002009B040
S3151000276030BD0000FFFF00FF10005200FF005200B6
S31510002770040052000F0052006648016801220A4305
S3151000278002607047634801680122914301607047F7
S31510002790E0B561490CC9083969460CC10839009081
S315100027A0012269465D48FFF717FF00280AD0182254
S315100027B05B495C48FFF782FB2D205B4908600020CF
S315100027C0FFF7E6FB07BDF0B5FFB086B004000D00BD
S315100027D0160001A855491022FEF758FE0094ADB216
S315100027E02CE0FF2105AA1154401C0828F9D3220019
S315100027F092B2310005AF3800FEF762FE00980190E4
S3151000280005A80290012201A94448FFF791FD00286E
S315100028100AD0182242494348FFF750FB8A20424902
S3151000282008600020FFF7B4FB200080B22D1A009834
S31510002830210089B240180090A4B23619002D1CD080
S3151000284000208024A400A54203D3092001A9887280
S31510002850CDE7202D04D3052001A988722024C6E7D0
S31510002860082D04D3032001A988720824BFE703208A
S3151000287001A988722C002800B7E77FB006B0F0BD1A
S315100028801CB52B4CC0B2002802D02A48009001E09B
S3151000289029480090FFF770FF01212000FFF720FC68
S315100028A001212000FFF754FC012269462000FFF7A2
S315100028B08FFCFFF767FF13BD1D480068704700B512
S315100028C0C0B2002802D01E48006801E01B4800680C
S315100028D000BD1CB51C4CC0B2002802D0194800908F
S315100028E001E000200090FFF747FF01212000FFF7CD
S315100028F0F7FB01212000FFF72BFC0122694620007F
S31510002900FFF766FCFFF73EFF13BD0F4800687047E0
S315100029100000000000F52440A86200106C0E0008AC
S31510002920D45D0010340E0008800E000840620010BE
S3151000293000700114AAAAAAAABBBBBBBB00710114E2
S3151000294000720114A55AAA55007301142A4A126876
S31510002950120C120489B2114381607047274A12681B
S31510002960120C120489B2114341607047C16070475E
S31510002970C0687047C069C00FC0B2704700B5006824
S31510002980C00F002801D0002000E01D4800BD38B55A
S3151000299005000C002800FFF7EDFF002805D02100E8
S315100029A02800FFF7DBFF002000E0154832BD70B5A8
S315100029B004000D0016002000FFF7E0FF002809D1E3
S315100029C031002000FFF7D2FF29002000FFF7BEFFDD
S315100029D0002000E00A4870BD38B505000C0028003C
S315100029E0FFF7C8FF002805D02800FFF7C1FF2060B9
S315100029F0002000E0024832BDD0620010D462001000
S31510002A0001008A0010B5040000F052FC90216158B4
S31510002A1003220A439021625000F04EFC10BD10B5FF
S31510002A20040000F045FC90216158032291430122D5
S31510002A300A43902162509021615803229143022249
S31510002A400A439021625000F037FC10BD10B5030008
S31510002A5010000122114204D094241C5922439424BC
S31510002A601A5102221140002904D0942159580A43C0
S31510002A7094215A5080B2FFF781FA10BD38B5040080
S31510002A800D002000FFF7CBFF00220121A9402000F6
S31510002A90FFF7DCFF2000FFF7B5FF31BD38B500F0BA
S31510002AA095FD01248B490868032290432043086052
S31510002AB089480A6802400A6088490A6803239A43CB
S31510002AC022430A600A6802400A6085490A6803239D
S31510002AD09A4322430A600A681040086081480168D8
S31510002AE00F229143214301607F48016807229143D9
S31510002AF001607E4801680722914304220A4302605E
S31510002B000168F0229143C0220A4302600168C02284
S31510002B1092000A4302600168C02212010A43026051
S31510002B200168734A0A4080214901114301608025DA
S31510002B302D0670480168294301606F4801682140DD
S31510002B400029FAD00168490821400029FAD06B48BB
S31510002B506B490A6802400A606A490A681202120A38
S31510002B6080235B0413430B600A68104008606648B4
S31510002B7001680722914302220A43026063480168F2
S31510002B80634A0A40802189001143016001687F224F
S31510002B90914328220A43026001685E4A0A40802156
S31510002BA08902114301600168294301605A4800688F
S31510002BB020400028FAD05948016807229143016045
S31510002BC0574908680F229043204308603020C043BD
S31510002BD00A6802400A600A682A430A6051490A686C
S31510002BE00F239A4322430A600A6810400860086857
S31510002BF02843086000F0D7FC4B4801680D43056078
S31510002C0001680C43046000F0C3FC00F001F831BD0C
S31510002C1038B586B0684645491822FEF737FC68462F
S31510002C2000F0FCFDC0B200280AD0182240494148E5
S31510002C30FFF744F9D020404908600020FFF7A8F9B3
S31510002C403E4C200000F0D4FFC0B200280AD0182253
S31510002C5037493848FFF732F9D22037490860002043
S31510002C60FFF796F9364D20682860286835494018D0
S31510002C70354900F0C1FF35490860354C286835499B
S31510002C804018FA21890000F0B7FF206020688021E3
S31510002C90090248433049086007B030BD2F48006824
S31510002CA08007800F704770B5040000F0FDFF060026
S31510002CB0FFF7F4FF032808D029480460A9B2294871
S31510002CC008430321014325480160300000F0F0FF5E
S31510002CD070BD0000C4132040FFFCFFFF001320400E
S31510002CE0801320400000244000152640441526403D
S31510002CF0FF8FFFFF1C15264024152640FF00FFFFFF
S31510002D0008002040081020400412264000162640D5
S31510002D10FFE0FFFFFFFFE0FF4016264008122640A7
S31510002D204012264044122640081526409C61001089
S31510002D30CC5C0010340E0008800E0008900E0008BF
S31510002D40940E00083F420F0040420F009C0E0008F0
S31510002D50980E0008E7030000A00E0008001220409D
S31510002D60000220400000FA0510B50400082C0AD312
S31510002D70182255495548FFF7A1F8CD205449086047
S31510002D800020FFF705F9534820214C43001910BDC8
S31510002D9010B50400082C0AD318224B494B48FFF7EC
S31510002DA08DF8E8204A4908600020FFF7F1F84A48F4
S31510002DB020214C43001910BDB04B1B689BB2120466
S31510002DC01A43120C120489B2114381607047C0680D
S31510002DD07047AB4B1B689BB212041A43120C1204B9
S31510002DE089B21143016000687047000C704780B5C6
S31510002DF0FFF7F2FD02BD0068C00FC0B27047842213
S31510002E0052008150704780214900405870478022F7
S31510002E1052008150802149004058704738B505004E
S31510002E200C002868206068686060A868A060A869BF
S31510002E30E060E869206100202021605420001430F1
S31510002E40290020310622FEF73BFB20001A3029000C
S31510002E5026310622FEF734FB2800203000F04AF90E
S31510002E609D492020285E00F066F96068FFF790FF04
S31510002E70012221688A400021FFF79EFF2800263094
S31510002E8000F038F995492620285E00F054F9F8210B
S31510002E9049039348FFF7B3FF92480460002032BD00
S31510002EA010B58F4C2000FFF7AEFFF8214903014003
S31510002EB0002907D02000FFF7AAFF012089490968D9
S31510002EC02022885410BD0000A0590010340E0008AE
S31510002ED0800E0008000022400010224070B5824E7D
S31510002EE03468002C00D1C8E0804860602078012842
S31510002EF004D17B4800F0E5FE6060B1E0784D280013
S31510002F00FFF779FF002800D1AAE000206060207842
S31510002F10022826D003282ED0042832D0062836D0F0
S31510002F2008283AD009283ED00A2842D00B2846D085
S31510002F300C284AD00D284ED00E2852D0132856D021
S31510002F4014285AD015285ED0162862D0172866D0B5
S31510002F5018286AD019286ED01A2871D0552805D08D
S31510002F6074E0280000F07DFF606071E0A06A00F058
S31510002F7074FF60606CE0A16A280001F02BF96060B4
S31510002F8066E0A16A280001F046F9606060E0A16A77
S31510002F90280001F0B9F960605AE0A16A280001F032
S31510002FA076FA606054E0A16A280001F0A3FA606026
S31510002FB04EE0A16A280001F012FB606048E0A16AA9
S31510002FC0280001F06FFB606042E0A16A280001F062
S31510002FD04FFD60603CE0A16A280001F0A9FF606027
S31510002FE036E0A16A280002F0BEF8606030E0A16AFF
S31510002FF0280002F0E8F860602AE0A16A280002F0D2
S315100030000BF9606024E0A16A280002F07DF9606087
S315100030101EE0A16A280002F097F9606018E0A16A24
S315100030202800FDF711FF606012E0A16A2800FEF784
S31510003030ABF860600CE0A06AFDF73CF8606007E052
S31510003040A16A280002F0E3F9606001E02848606098
S315100030506068002804D12100280000F00CFF606091
S31510003060002030601F4C20680068FFF77DFE0121AC
S31510003070226892689140FFF78AFC70BDF0620010DA
S31510003080F462001038B5174C20684068FFF780FED0
S31510003090FFF79DFEFFF7A9FE0500012021680968CC
S315100030A08840A84216D120684068FFF771FE2A00B2
S315100030B00021FFF78EFE20680068FFF755FE0A49CB
S315100030C0FFF795FE002805D12068C068002801D1B9
S315100030D0FFF704FF31BD000085300010A12E00104F
S315100030E000001040A80E0008A40E000809003200C7
S315100030F00A00320030B5010000221000144B1B6884
S31510003100002916D04C88E4B20725AB436407640F38
S315100031101C430B79002B01D00122FFE763005B08EB
S31510003120D2071A430B4B0024095F04244C431A514F
S3151000313000E0064830BD00B5074A1368002B04D0DE
S31510003140126800B204234343D15000BD010056005B
S31510003150E062001000802040840D0008F8B50400DD
S315100031600025194E3068002804D00121012000F0F6
S3151000317031F80500002D1FD100F09AF807003068CD
S31510003180002803D00421012000F024F80F4801681C
S3151000319004220A430260E4B2012C01D030BF00E0E1
S315100031A020BF380000F088F83068002809D00821C0
S315100031B0012000F00FF804E00221012000F00AF8C7
S315100031C0034D2800F2BD0000880E000810ED00E047
S315100031D0FF0042007FB505000C0000202100C9B297
S315100031E0042903D02100C9B2012922D126490E682B
S315100031F0002E46D02549884243D031792A00D2B2D2
S31510003200914214D1B168002904D0B1682200D2B21B
S315100032100A420CD1F06840680190F068806802900C
S315100032206846047068463168884719490E607669A1
S31510003230DEE717490E682100C9B202291CD1002EFB
S315100032401AD0366918E031792A00D2B2914212D1D9
S31510003250B168002904D0B1682200D2B20A420AD15C
S31510003260F06840680190F0688068029068460470C3
S315100032706846316888473669002E02D0034988426D
S31510003280E1D104B070BD0000840E0008FF004200BA
S315100032908C0E000800000000000000000000000076
S315100032A0801C800803D0401C801EFCD100BF7047D4
S315100032B0EFF3108072B6704780F3108870470000E5
S315100032C010B50400082C0AD3182255495548FEF7A4
S315100032D0F5FDE820544908600020FEF759FE5E48C7
S315100032E020214C43001910BD694B1B689BB2120478
S315100032F01A43120C120489B2114381607047C068D8
S315100033007047644B1B689BB212041A43120C1204CA
S3151000331089B21143016000687047C069C00FC0B21E
S315100033207047F8B502000D00002A01D1052046E0CD
S315100033300F2059490B681B0A0340002B01D10020AE
S3151000334007E00968090A08400E2801D1012000E0AB
S3151000335002205B49202358430F185A4C5A4E30000E
S3151000336011001022FEF7ACF8306801218843306056
S31510003370320001213800FFF71AFB002801D0012086
S315100033801DE03800FFF7C9FF002804D0641E002C8A
S31510003390F7D1022013E02800002803D031001022B4
S315100033A0FEF78EF800F042F8012801D1032006E05E
S315100033B000F03CF8002801D1002000E00420F2BD06
S315100033C038B50100002901D1052027E00F20324A27
S315100033D013681B0A0340002B01D1002007E0126876
S315100033E0120A10400E2801D1012000E00220344AB2
S315100033F0202358431418344D28001022FEF760F885
S3151000340028680121884328602A0001212000FFF73F
S31510003410CEFA002801D0012000E0002032BD0000C5
S31510003420605A0010340E0008800E000800B52648B9
S315100034300168090F0907A0221206914201D1002046
S3151000344009E00068000F0007F0210906884201D143
S31510003450012000E0022000BD0010224038B5040013
S31510003460FFF7E4FF05002800C0B2022801D1154875
S315100034700DE0002C04D0200040491022FEF720F861
S31510003480EDB2002D01D1002001E03C48006832BDAC
S31510003490D8620010DC6200100000204000B5010F59
S315100034A00907A0221206914201D1002006E0010F61
S315100034B00907F0221206914200D0024800BD000012
S315100034C000002240FFFFFF0F4C0E00081CB5020043
S315100034D00B002B4803C86C4603C4083C6C4663803B
S315100034E0284802606846FFF705FE27490020205E3F
S315100034F0FFF721FE0220FFF7E3FE0F21234A136890
S315100035001B0A0B40002B01D1002307E01268120A98
S3151000351011400E2901D1012300E0022300220121CE
S315100035209940FFF7E1FE13BD70B50026300002206A
S31510003530FFF7C6FE04002000FFF7E1FE05000F208E
S3151000354012490A68120A0240002A07D00968090AB5
S3151000355008400E2801D1012600E002262800F0407E
S31510003560C00705D507480168002901D000688047C3
S315100035702A0CA9B22000FFF7C4FE70BD4C0E00083D
S31510003580906200107C0E00082935001000002040C3
S3151000359080B5FFF78DFE13490A68032313430B60AA
S315100035A0FFF78AFE01BD80B5FFF782FE0D490A6856
S315100035B003239A43012313430B600A6803239A4398
S315100035C0022313430B60FFF777FE01BD80B5FFF7AB
S315100035D0EAFF05480168490049080160FFF7D8FF6E
S315100035E001BD000040C0264000C0264000B50120A5
S315100035F031490A6852080240002A02D10968084077
S3151000360000E0022000BD304801680800C007C00F66
S31510003610704700B50100FF2000290AD0022908D200
S315100036202A48042251434018001F01680800C007A9
S31510003630C00FC0B200BD2648006881080800C00748
S31510003640C00F7047000010B504002000C0B2032858
S315100036500BD318221F492048FEF730FCD820C00093
S315100036601E4908600020FEF793FC1D48E4B20421B1
S315100036704C4300590007000F10BD10B50400200080
S31510003680C0B203280AD3182212491348FEF716FCB3
S315100036901448124908600020FEF77AFC1048E4B27C
S315100036A004214C43005900098007800F10BD0E48B5
S315100036B00068000EC0B27047241526400A480068FC
S315100036C0000AC0B27047000040152640401626403A
S315100036D0100027402C5D0010340E0008800E0008E4
S315100036E040122640EE0600000810204010B50400D7
S315100036F0042C0BD3182212491248FEF7DFFBC920FF
S315100037004000114908600020FEF742FC0B480421D6
S31510003710614340584007400F010009B2042908D1FF
S31510003720054804214C430059C106C90E80204000AB
S31510003730084300B210BD00000001264000122640CA
S31510003740805D0010340E0008800E00081D490968BF
S315100037508A03920B0260090E0A00D207D20FC271B9
S31510003760194909680A00D204D20C82800A00120C88
S31510003770D2B20281090CC9B24181114909680F22DE
S315100037800B00134003730B091A4042730A0AD20442
S31510003790D20CC281090F8907890F01740B49096878
S315100037A00A0A5207520F82710A00120CD205D20D64
S315100037B04282890F0A00D207D20F027570470000A5
S315100037C03815264030152640341526403C1526401F
S315100037D000B502000120002A1BD0022A19D20E4879
S315100037E004235A438018001F00684206520E0A60CE
S315100037F01F22030A13404B60030C1A408A60020F03
S315100038009207920F4A73C00E0200D207D20F0A73A4
S315100038100020C0B200BD00000016264080B5010091
S3151000382085481822FDF732FE0120844908700020D1
S3151000383002BD00B582490968C90F002903D10021CC
S31510003840016003200BE07D490978002904D07A49EC
S3151000385009680160002002E000210160032000BD1C
S3151000386010B50400FFF7C2FE002803D10020206027
S3151000387003200BE071480078002804D06E48806859
S315100038802060002002E000202060032010BD00B55B
S315100038906A490978002904D06749496801600020FF
S315100038A002E000210160032000BD000000B58E4932
S315100038B00968C90F002903D10021016003200BE01C
S315100038C05E490978002904D05B49C9680160002067
S315100038D002E000210160032000BD000000B583490D
S315100038E00968C90F002903D10021016003200BE0EC
S315100038F052490978002904D04F490969016000200E
S3151000390002E000210160032000BD000010B5040094
S31510003910FFF791FE002803D10020206003200BE062
S3151000392046480078002804D04348406920600020AB
S3151000393002E000202060032010BD000010B50C002E
S31510003940C0B2FFF7D3FE00280CD0401E0ED0401E8A
S3151000395010D087214900401A10D0401E12D0C01E28
S3151000396014D017E02000FFF764FF16E02000FFF7E1
S315100039708EFF12E02000FFF773FF0EE02000FFF726
S3151000398095FF0AE02000FFF7C1FF06E02000FFF7D1
S31510003990A5FF02E000202060032010BD80B50100C5
S315100039A00020FFF7CBFF02BD80B500221300DBB26B
S315100039B0834202D20A60012003E0401CC0B2FFF726
S315100039C0BDFF02BD30B587B004006846FFF7E6FFBD
S315100039D00100C9B2002903D000212160C0B228E03D
S315100039E001A8FFF7B3FE01AD287C022803D1009889
S315100039F0206000201DE065480068C00F002803D134
S31510003A0000982060002014E0FFF7FDFDC0B20028EA
S31510003A1003D10020206003200BE000980199484351
S31510003A20A98800F0E9F8E979491C00F0E5F820606A
S31510003A30002007B030BD00001C0E0008AE0E0008B6
S31510003A401815264078B585B005000C006946280083
S31510003A50C0B2FFF7A9FF0100C9B2002903D00021A7
S31510003A602160C0B23DE001A92800C0B2401CFFF79A
S31510003A70AFFE01A8407B022803D1009820600020E9
S31510003A802FE0002630002900C0B2C9B2884202D207
S31510003A902660012025E02800C0B2401CFFF7B9FDC2
S31510003AA0002801D0012000E03000C0B2002802D169
S31510003AB02660032015E03648EDB204214D434059E7
S31510003AC0C00F002802D1266003200AE00098019951
S31510003AD04843029900F090F8039900F08DF82060A1
S31510003AE0002006B070BD0000081526400C152640B3
S31510003AF010B50023421E0400E4B2002C03D10800C6
S31510003B00FFF760FF0CE01400DBB2E4B2A34204D36B
S31510003B101000C0B2FFF796FF02E0C0B2FFF70EFF2B
S31510003B2010BD38B504000D002000C0B2FFF78BFDA4
S31510003B306946C0B2FFF7DCFF0100C9B2002903D005
S31510003B4000212960C0B20FE02000C0B2FFF795FD3A
S31510003B50C0B2002805D002280BD006D303280CD0FB
S31510003B600FE000982860002032BD009840082860B9
S31510003B70F9E7009880082860F5E70098C0082860E3
S31510003B80F1E7002028600320EEE7000030152640FC
S31510003B90001626401CB5040069460020FFF7C1FF39
S31510003BA00100C9B2002903D000212160C0B209E08A
S31510003BB0FFF77DFD01000098C9B2491C00F01CF802
S31510003BC02060002016BD1CB504006846FFF7E2FF12
S31510003BD00100C9B2002901D0C0B208E0FFF76EFD9E
S31510003BE001000098491C00F007F82060002016BD5F
S31510003BF080B5FFF7E8FF02BD0022030A8B420BD205
S31510003C0003098B4219D243088B422ED2411A00D295
S31510003C100146524110467047FF2209023FD0120654
S31510003C208B4205D3121209028B4201D312120902DA
S31510003C3003098B4219D300E0090AC3098B4201D349
S31510003C40CB01C01A524183098B4201D38B01C01A92
S31510003C50524143098B4201D34B01C01A5241030909
S31510003C608B4201D30B01C01A5241C3088B4201D3B8
S31510003C70CB00C01A524183088B4201D38B00C01A65
S31510003C80524143088B4201D34B00C01A524188421D
S31510003C9000D3401A5241CFD201461046704708B59C
S31510003CA001F050FC08BD0000EFF3108072B67047AB
S31510003CB080F31088704700008D4940580007000FA8
S31510003CC0704770B504008B4800680721884380212F
S31510003CD049020143802080020843216849004908AF
S31510003CE021608221490160508349014082204001B0
S31510003CF0215080252D06206828432060A0680321C6
S31510003D000143A1608021890100228020000226182B
S31510003D103000FDF791FBE020802109026118A34ACB
S31510003D20A150A3496158A34A0A40C0B20002FE211D
S31510003D30C901014011439E4821502000FFF7BCFFE6
S31510003D400728FAD2BD2000069B4960502000FFF7D5
S31510003D50B3FF0728FAD2B820000697496050200012
S31510003D60FFF7AAFF0728FAD2B4200006924960503E
S31510003D702000FFF7A1FF0728FAD2B02000068E49CF
S31510003D8060502000FFF798FF0728FAD2AC200006F3
S31510003D90894960502000FFF78FFF0728FAD2A82024
S31510003DA00006854960502000FFF786FF0728FAD2E3
S31510003DB0A4200006804960502000FFF77DFF0728E9
S31510003DC0FAD2A02000067C4960502000FFF774FF4D
S31510003DD00728FAD29C200006774960502000FFF78A
S31510003DE06BFF0728FAD2982000067349605020000E
S31510003DF0FFF762FF0728FAD2942000066E4960503A
S31510003E002000FFF759FF0728FAD2902000066A49CA
S31510003E1060502000FFF750FF0728FAD28C200006CA
S31510003E20654960502000FFF747FF0728FAD288201F
S31510003E300006614960502000FFF73EFF0728FAD2BE
S31510003E40842000065C4960502000FFF735FF0728E4
S31510003E50FAD259482550002070BD0021017000206B
S31510003E6070478168032291438160016849004908BF
S31510003E7001600020704710B502000020A34B1B689C
S31510003E8020241B5D002B00D0A148136A8B60526A58
S31510003E90CA6010BDF8B504000F0015001E00200002
S31510003EA0FFF70AFF0528FAD2FFB2E020C005384313
S31510003EB041496050404825503F482650F1BD10B545
S31510003EC004002000FFF7F8FE0728FAD2C820C00524
S31510003ED03949605010BD10B504002000FFF7ECFE04
S31510003EE00728FAD2CA20C0053349605010BD000019
S31510003EF044100000F8620010FFFFFEFFF8B5040042
S31510003F000D0016002000FFF7D7FE0728FAD228006A
S31510003F10C0B280280DDA3000C0B2812809DAEDB2BD
S31510003F202802F6B20643CC20C00530432249605021
S31510003F303AE02800C0B2802814DB3000C0B28128D5
S31510003F4010DA2000FFF7C7FFEDB2803D2802F6B267
S31510003F500643CC20C0053043174960502000FFF7B8
S31510003F60BAFF21E02800C0B280281DDA3000C0B2A6
S31510003F70812819DBCC27FF052800C0B2000280215A
S31510003F802A00D2B2891A014339430B482150200026
S31510003F90FFF7A1FFF6B2803EEDB27019074306484F
S31510003FA027502000FFF797FFF1BD00008414000092
S31510003FB088140000FF80FFFF48100000F8B50400C9
S31510003FC00D0016002000FFF777FE0728FAD228000A
S31510003FD0C0B280280DDA3000C0B2812809DAEDB2FD
S31510003FE02802F6B20643CE20C0053043774960500A
S31510003FF03AE02800C0B2802814DB3000C0B2812815
S3151000400010DA2000FFF767FFEDB2803D2802F6B206
S315100040100643CE20C00530436C4960502000FFF7A0
S315100040205AFF21E02800C0B280281DDA3000C0B245
S31510004030812819DBCE27FF052800C0B20002802197
S315100040402A00D2B2891A0143394360482150200010
S31510004050FFF741FFF6B2803EEDB2701907435B4899
S3151000406027502000FFF737FFF1BD70B504000D0093
S3151000407016002000FFF720FE0728FAD22800C0B24B
S31510004080802809DAEDB22802F6B20643D020C00520
S3151000409030434E49605013E02800C0B280280FDB31
S315100040A02000FFF718FFEDB2803D2802F6B2064356
S315100040B0D020C0053043454960502000FFF70BFF64
S315100040C070BDF4B51D0000240A00D2B2112A03D225
S315100040D00A00D2B2002A01D13D4C15E00F073F0F5E
S315100040E006003000FFF7E8FD0728FAD26846007888
S315100040F0FFB23904C0B200030843EDB20543802075
S31510004100C0052843314970502000F2BDA80E0008A2
S3151000411001003200F4B51D0000240A00D2B2112AA3
S3151000412003D20A00D2B2002A01D1294C19E00F0796
S315100041303F0F06003000FFF7BFFD0728FAD206989A
S3151000414069460978FFB23A04C9B209031143EDB2C0
S315100041502A010A43C0B210438221C90501431B48F4
S3151000416031502000F2BDF4B51D0000240A00D2B271
S31510004170112A03D20A00D2B2002A01D1144C15E03A
S315100041800F073F0F06003000FFF796FD0728FAD2FB
S3151000419068460078FFB23904C0B200030843EDB296
S315100041A005438420C0052843084970502000F2BDFD
S315100041B038B505000C002800FFF77EFD0728FAD257
S315100041C0E4B220060149685031BD000048100000D5
S315100041D00B00320010B40A6880239B00C2504A6854
S315100041E081239B00C3588024240623405200520882
S315100041F01A4381239B00C2508968822292008258FA
S31510004200520F5207C900C9081143822292008150E9
S31510004210002010BC704710B5CA6883239B00C2509B
S31510004220012284239B00C35813438424A400035102
S3151000423084239B00C3581340002BF9D18622920089
S31510004240805809690860002010BD000070B4284924
S315100042500C6828490968284A1268284B1B68FF25EC
S31510004260AC43274D2540274E2E40C024A40234438C
S3151000427080256D042543802464052C438025AD05D7
S315100042802543A024A40005510124214302250D43F2
S315100042900421294308250D431021294320250D43C8
S315100042A0A12189004550B021890041580325A94311
S315100042B0B025AD00415101218A4302218A43B22122
S315100042C089004250B42189004158FF22914321436D
S315100042D0B42292008150190C09040C43A2B2802119
S315100042E049021143B8229200815070BC70470000F9
S315100042F004630010086300100C63001010630010B4
S31510004300FF00FFFFFFFF00FF38B505000C00280077
S31510004310FFF79CFF2068A8218900695880221206A1
S315100043201140400040080843A82189006850606881
S31510004330A9218900695880221206114040004008C0
S315100043400843A92189006850207AA221890069585A
S315100043503F2291438006800E0843A22189006850AF
S315100043600120A421890069580143A4229200A95072
S31510004370A4218900695801400029F9D1A62080009E
S315100043802858E1680860002032BD000000B5C34916
S315100043904158C90F0029FAD100BD38B50A79002A4B
S315100043A003D0022A05D002D305E0102403E0182416
S315100043B001E02024FFE70500087988225201AA5857
S315100043C003239A438007800F104388225201A85076
S315100043D023000A6808212800FFF75CFD0823042241
S315100043E010212800FFF76DFE103C2100002905D092
S315100043F008230522C9B22800FFF763FE002032BD4C
S3151000440070B50A79002A03D0022A05D002D305E036
S31510004410102403E0182401E02024FFE706000879A1
S3151000442088225201B25803239A438007800F104303
S3151000443088225201B05025002B000A68082130004E
S31510004440FFF728FD0823042210213000FFF739FE5C
S31510004450103D2900002905D008230522C9B23000D5
S31510004460FFF72FFE50213000FFF7A2FE062304228D
S3151000447010213000FFF725FE103C002C05D0072335
S31510004480052210213000FFF71CFE002070BD70B50C
S3151000449006000C00207B012805D151252100300093
S315100044A0FFF7AEFF04E0502521003000FFF775FF3F
S315100044B01023226A08213000FFF7ECFC08230022A3
S315100044C010213000FFF7FDFD1023E2690C213000AA
S315100044D0FFF7E0FC2900C9B23000FFF769FE01239F
S315100044E00C2210213000FFF7ECFD3000FFF74EFFD5
S315100044F0002070BDF8B50E003469377B2107090F0F
S31510004500002901D0664869E005003800C0B20128CC
S3151000451004D131002800FFF773FF03E031002800B3
S31510004520FFF73BFF1023B26909212800FFF7B2FC01
S315100045300923022210212800FFF7C3FD2300326A47
S3151000454008212800FFF7A6FC2300F2690C21280099
S31510004550FFF7A0FCFFB2012F3AD1002C3AD0082366
S31510004560002210212800FFF7ACFD51212800FFF78B
S315100045701FFE012000900223012210212800FFF7C0
S31510004580C9FD01230C2210212800FFF79AFD0023F4
S31510004590022210212800FFF794FD103CDDE70820C9
S315100045A000900223002210212800FFF7B3FD5021AE
S315100045B02800FFF7FDFD01230C2210212800FFF72C
S315100045C080FD0123022210212800FFF77AFD103CFE
S315100045D0002CE4D12800FFF7D9FE0020F2BD7CB5EF
S315100045E00E0034692107090F002901D02C4854E028
S315100045F0050031002800FFF7D0FE1023B26909210B
S315100046002800FFF747FC0923002210212800FFF796
S3151000461058FD2300326A08212800FFF73BFC2300CF
S31510004620F2690C212800FFF735FC307B01282ED1CA
S31510004630002C2ED050212800FFF7BAFD08230022A7
S3151000464010212800FFF73DFD0020009001230122D4
S3151000465010212800FFF75EFD01230C2210212800EF
S31510004660FFF72FFD103CE3E750212800FFF7A0FDD0
S31510004670082000900123002210212800FFF74AFD90
S3151000468000230C2210212800FFF71BFD103C002CE4
S31510004690EAD12800FFF77AFE002076BD041000004C
S315100046A002003200F2B584B006000498046904983A
S315100046B080690290049840690568802000023018CD
S315100046C001901020039002980090019F039A009980
S315100046D03800FCF7F5FE04993000FFF75EFE102354
S315100046E0019A09213000FFF7D5FB0923002210217A
S315100046F03000FFF7E6FC23000498026A0821300018
S31510004700FFF7C8FB23000498C2690C213000FFF79D
S31510004710C1FB1020471B0020049949690860102F1F
S3151000472000D3BAE0BC4201D22700FFE75021300087
S31510004730FFF73EFD3A00D2B229001031C9B230005F
S31510004740FFF7DCFB3A00D2B229001031C9B23000B3
S31510004750FFF734FCE41BE819102843D301980830FE
S3151000476003C8FF221204FF231B02070E050A1D4071
S315100047703D43070217402F4305063D43AC460F0E37
S315100047800D0A1D403D432F000D0215403D430806FE
S31510004790284361460025401C6941070E050A1D4045
S315100047A03D43070217402F4305063D43AC460D0E09
S315100047B00F0A3B402B430D022A401A4308061043AA
S315100047C06146019A083203C2083A1023019A092158
S315100047D03000FFF75FFB0923002210213000FFF79E
S315100047E070FC5AE0E81904994969086055E05021AF
S315100047F03000FFF7DDFC0820009001230122102174
S315100048003000FFF787FC01230C2210213000FFF740
S3151000481058FC0198083003C8FF221204FF231B021C
S31510004820070E050A1D403D43070217402F43050694
S315100048303D43AC460F0E0D0A1D403D432F000D02A1
S3151000484015403D430806284361460025401C694132
S31510004850070E050A1D403D43070217402F43050664
S315100048603D43AC460D0E0F0A3B402B430D022A402A
S315100048701A43080610436146019A083203C2083AE1
S315100048801023019A09213000FFF704FB09230022A7
S3151000489010213000FFF715FC103C102CA7D2002C6D
S315100048A016D050213000FFF783FC0820009001231A
S315100048B001222100C9B23000FFF72CFC01230C2283
S315100048C02100C9B23000FFF7FCFB04984069046070
S315100048D03000FFF75BFD1024039401980090029DB1
S315100048E0039A00992800FCF7EBFD02940020009033
S315100048F0019C009A02992000FCF79EFD002005B04D
S31510004900F0BD000000B503494158C90F0029FAD17E
S3151000491000BD00000410000000B5010000230F22A6
S3151000492009E0885C40000343180088541800C0054D
S31510004930C00F0300521E002AF3D5002B03D0C87BEC
S3151000494087224240CA7300BD80B5FFF726FD01BD20
S31510004950F8B5050014001F00069E00230022102142
S315100049602800FFF700FC102332000C212800FFF767
S3151000497091FA50212800FFF71BFC01230C2210216D
S315100049802800FFF79EFB2800FFF7BCFF3000FFF75B
S31510004990C3FF002F05D022003B0008212800FFF797
S315100049A079FAF1BD7CB506000D00140012E0002066
S315100049B000900823002210213000FFF7ABFB502196
S315100049C03000FFF7F5FB0123002210213000FFF71E
S315100049D078FB103C112CEAD2AC6073BDF8B504001C
S315100049E016001D008F680023022210212000FFF7F9
S315100049F0BAFB002F06D0082302223900C9B22000C4
S31510004A00FFF75FFB102F09D23000FFF785FF8022DA
S31510004A1020373900C9B22000FFF727FB10233200D8
S31510004A2009212000FFF736FA0920009002230222FE
S31510004A3010212000FFF76EFB0020009002230022B9
S31510004A4010212000FFF766FB50212000FFF7B0FB76
S31510004A5010232A000C212000FFF71CFA01230C2238
S31510004A6010212000FFF72DFB2000FFF74BFFF1BDB3
S31510004A70F8B586B00400CF69086A01900E690D007A
S31510004A8029002000FFF760FF02A800903300019A6A
S31510004A9029002000FFF75CFF320029002000FFF7F5
S31510004AA081FF3B0002AA29002000FFF797FF002094
S31510004AB007B0F0BD00B503494158C90F0029FAD116
S31510004AC000BD00000410000070B504000D00AE68B3
S31510004AD02000FFF7F4F90020E860AB68EA690821C6
S31510004AE02000FFF7D7F93200D2B280212000FFF75D
S31510004AF005FA70BDF8B506000D001C006F68E86871
S31510004B000019E860230008213000FFF7C3F90BE015
S31510004B103A00D2B200213000FFF7F0F96969C9B244
S31510004B203000FFF745FBE41BBC42F1D2F1BDF5B5F1
S31510004B3083B00F0078680090F8680099FFF75CF86A
S31510004B400191F86800210822002300F0FDFC040002
S31510004B500D000098802801D1702600E03826019AB1
S31510004B60D2B200210398FFF7C9F90198B0420BD3CE
S31510004B7080220199C9B20398FFF777FA7969C9B209
S31510004B800398FFF715FB05E080220199C9B2039837
S31510004B90FFF76BFA049E2A00D2B20098411FC9B2E1
S31510004BA00398FFF762FA220ED2B20098011FC9B21B
S31510004BB00398FFF75AFA2200120CD2B20098C11EBF
S31510004BC0C9B20398FFF751FA2000020092B2120AF6
S31510004BD0D2B20098811EC9B20398FFF746FA220096
S31510004BE0D2B20098411EC9B20398FFF73EFA79690E
S31510004BF0C9B20398FFF7DCFA3B6932000C2103981F
S31510004C00FFF748F93A69D2B280210398FFF7D6F92F
S31510004C100398FFF74FFF05B0F0BD10B50C00FFF776
S31510004C204EF90020E06010BDF8B506000D001C001E
S31510004C306F68E8680019E860230008213000FFF764
S31510004C4029F90BE03A00D2B200213000FFF756F9ED
S31510004C506969C9B23000FFF7ABFAE41BBC42F1D266
S31510004C60F1BDFEB506000D00170068680290E868F1
S31510004C700299FEF7C1FF01912C7E019AD2B2002152
S31510004C803000FFF73BF901980299491E884210D16E
S31510004C90802020436946087001236A4608213000A7
S31510004CA0FFF7F8F801220199C9B23000FFF726F98B
S31510004CB016E0684604708021417002236A46082176
S31510004CC03000FFF7E7F801220199C9B23000FFF76B
S31510004CD015F901220298411EC9B23000FFF70EF9EC
S31510004CE06969C9B23000FFF763FA2B693A000C21E3
S31510004CF03000FFF7CFF82A69D2B200213000FFF753
S31510004D005DF93000FFF7D6FEF7BD00B51000C0B252
S31510004D10002819D001282BD002283DD011281DD0EB
S31510004D2012282FD022284BD032283FD0812851D09C
S31510004D3082285BD0832865D084286FD0852879D0C7
S31510004D40862800D182E08DE04848C861402048603E
S31510004D501420886008616920486183E04448C8616E
S31510004D604020486088601C2008616A20486179E00C
S31510004D704048C861402048608860202008616A2049
S31510004D8048616FE03C48C8618020486088603020E8
S31510004D9008616B20486165E03848C861802048602A
S31510004DA08860402008616B2048615BE03448C86128
S31510004DB08020486088601C2008616B20486151E0A3
S31510004DC03048C861802048608860202008616B20C8
S31510004DD0486147E00020C86190234B6088601C2022
S31510004DE008616C204861062008763BE00020C86107
S31510004DF088234B608860202008616C20486106205B
S31510004E0008762FE00020C86168234B608860302048
S31510004E1008616C2048610620087623E00020C861EE
S31510004E2048234B608860402008616C20486106204A
S31510004E30087617E00020C861A8234B608860202000
S31510004E4008616C2048611F2008760BE00020C861BD
S31510004E5088234B608860402008616C2048611F20C1
S31510004E600876FFE70A700020C86000BD2C620010AB
S31510004E70D8600010F8600010F85E0010385F00105F
S31510004E80785E0010B85E001080B50A78002A0DD042
S31510004E90521E012A0DD9103A012A0AD9113A08D000
S31510004EA0103A06D04F3A052A06D908E0FFF70CFE4D
S31510004EB005E0FFF709FE02E0FFF7AFFEFFE701BDD1
S31510004EC038B50C78002C0DD0641E012C0DD9103C71
S31510004ED0012C0AD9113C08D0103C06D04F3C052CA9
S31510004EE006D908E0FFF706FE05E0FFF703FE02E02D
S31510004EF0FFF79AFEFFE731BD10B50B78002B0DD0EA
S31510004F005B1E012B0DD9103B012B0AD9113B08D082
S31510004F10103B06D04F3B052B06D908E0FFF707FEDE
S31510004F2005E0FFF704FE02E0FFF79BFEFFE710BD6A
S31510004F30F8B58AB004000D6848680190886800903A
S31510004F400E7B2021002202AF3800FCF775FA3200E2
S31510004F50D2B202A92000FFF7D8FE02A92000FFF75F
S31510004F6093FF019B2A0002A92000FFF7A9FF009AD0
S31510004F7002A92000FFF7C0FF00200BB0F0BD000013
S31510004F8000B503494158C90F0029FAD100BD0000E8
S31510004F90041000000160426083607047F7B5060098
S31510004FA01F003C00A4B200251CE008A803782A00C4
S31510004FB0D2B22100C9B23000FFF7D5F8002410E0B4
S31510004FC0082D03D33000FEF786FF0025102CECD3F6
S31510004FD008A803782A00D2B210213000FFF7C3F8D0
S31510004FE0103C6D1C002CEBD1380080B2812802D306
S31510004FF03000FEF770FF029C019A3B009BB208211D
S315100050003000FEF747FF3B009BB222000C21300018
S31510005010FEF740FF3A00D2B200213000FEF76EFFD5
S315100050203A00D2B200213000FEF7C8FF3000FFF779
S31510005030A7FFF7BDF8B584B0070014001D000A9E3F
S315100050400868019048680390886802906068B042CA
S3151000505019D221003800FFF717FF33002A0021006C
S315100050603800FFF72DFF019A21003800FFF744FFA3
S3151000507060682169411A002201982369C518280021
S31510005080FCF7DAF918E0606886420FD2320092B265
S315100050902900019D2800FCF713FA6068811B002285
S315100050A0019885192800FCF7C7F905E03200290098
S315100050B0019D2800FCF704FA0D9D0C9E36200090E9
S315100050C063689BB2039A01993800FFF767FF5C206B
S315100050D0009063689BB2029A01993800FFF75EFF51
S315100050E021003800FFF7D0FE6368039A21003800CC
S315100050F0FFF7E6FE33000B9A21003800FFF7E0FEBB
S315100051002A0021003800FFF7F7FE21003800FFF7CC
S31510005110BBFE6368029A21003800FFF7D1FE2369AF
S315100051202A0021003800FFF7CBFE2A0021003800A4
S31510005130FFF7E2FE05B0F0BDF8B505009026310088
S31510005140002422002F683800FCF776F9310022007F
S315100051506F683800FCF770F931002200AC68200047
S31510005160FCF76AF9F1BDF0B5FBB006000C000FAD07
S315100051702F009037380090300090227B07A930001E
S31510005180FFF7C3FD009B3A00290004A8FFF702FFB2
S31510005190A068039060680290206801906069009092
S315100051A0236907AA04A93000FFF744FF04A8FFF7F4
S315100051B0C3FF00207BB0F0BD00B524494158C90F8C
S315100051C00029FAD100BD10B4214A12684C69012396
S315100051D09A432300DB07DB0F1343CA691D4C1C409F
S315100051E0120280235B001A402243A0235B01C250A7
S315100051F08A69194BC358FF24A343D2B21A43164BDC
S31510005200C250CA68A1235B01C250096AA222520188
S315100052108150002010BC704738B504000D00286975
S315100052208C21490160506B682A6808212000FEF71E
S3151000523031FE58212000FEF7BBFF2000FFF7BCFF10
S3151000524006482058A9680860002032BD04100000E6
S31510005250FC620010FFFEFFFF10140000481400004F
S3151000526000B559494158C90F0029FAD100BDF8B502
S3151000527004000D0016001A002800C0B200280BD139
S31510005280082308212000FEF705FE08230422082122
S315100052902000FEF716FF10E0182308212000FEF765
S315100052A0F9FD0823042210212000FEF70AFF082327
S315100052B0052208212000FEF704FF079F069A0823FF
S315100052C00C212000FEF7E6FD08233A0008212000F5
S315100052D0FEF7E0FD0823002208212000FEF7F1FE6C
S315100052E03A48EDB202214D434019F6B2815D2000D5
S315100052F0FEF75EFF01230C2208212000FEF7E1FED7
S315100053002000FFF7ADFFF1BDFEB505000E0000242D
S31510005310270000E0641C102C0AD208222C48082111
S31510005320614341187068FCF721F80028F2D1294F23
S315100053302800F1680191B1680091736832780021F4
S31510005340FFF795FF3800FEBDF3B583B007000025C3
S315100053502E0004984068029014E008220820684342
S31510005360211802980830FCF701F8002818D00822F6
S3151000537008206843211802981030FBF7F7FF002821
S3151000538010D06D1C102D0ED2114C08220820684327
S3151000539021180298FBF7EAFF0028DED10D4E02E035
S315100053A00C4E00E00B4E38000499C968019104991F
S315100053B089680091029B04990A780121FFF757FF2B
S315100053C0300005B0F0BD00000410000000630010AE
S315100053D0E05B001003003100564940580007000FEB
S315100053E0704700B554494158C90F0029FAD100BD7C
S315100053F038B505000C002800FFF7EEFF0728FAD293
S31510005400E4B2AC20C00520434C49685031BDF8B514
S3151000541084B004000E0035681023494A0821200084
S31510005420FEF738FD0823042210212000FEF749FE5E
S315100054302023726908212000FEF72CFD082305227F
S3151000544010212000FEF73DFE082306221021200021
S31510005450FEF737FE0422310010316F463800FCF794
S315100054602FF80C22F1686846071D3800FCF728F85B
S3151000547010236A4608212000FEF70CFD0823072298
S3151000548010212000FEF71DFE2B00B2680821200017
S31510005490FEF700FD2B0072680C212000FEF7FAFCC7
S315100054A02DE0317E2000FFF7A3FF402200212000CF
S315100054B0FEF724FD402200212000FEF77FFD009814
S315100054C0401C0090009AD2B270212000FEF7CDFD4C
S315100054D00098020AD2B271212000FEF7C6FD00988C
S315100054E00200120CD2B272212000FEF7BEFD009807
S315100054F0020ED2B273212000FEF7B7FD403D402DBB
