S00F00004150505F434D342E7372656311
S3151001800000000208C9DA031079EC031025E6031003
S315100180107DEC031081EC031085EC031000000000C9
S3151001802000000000000000000000000041E60310FF
S3151001803089EC0310000000008DEC031091EC031085
S31510018040C9C70310EFC7031015C803103BC80310A7
S3151001805061C8031087C80310ADC80310D3C8031035
S3151001806095EC031099EC03109DEC0310A1EC031091
S31510018070A5EC0310A9EC0310ADEC0310B1EC031041
S3151001808010B586B001A8142103F08AF8DFF8C84BA1
S3151001809003F034FB2080B4F90000002808D5DFF87E
S315100180A0BC0B04F036F94FF47A7004F05BFBF6E77B
S315100180B002208DF8000003208DF8010003208DF8B1
S315100180C002006946B4F9000003F038FB3222DFF8EA
S315100180D0901BB4F9000003F062FBDFF8880BDFF8A0
S315100180E0881B81601421818001A805F0EDF89DF8A7
S315100180F00A0010F00100DFF8741B087006B010BDFD
S315100181002DE9F84F94B004000D0016001F0002204F
S315100181108DF8000003208DF801006F208DF8020004
S315100181205FF040085FF000090DF1100A4A4641461A
S31510018130504605F069FD8DF81050BA461FFA8AFAB5
S3151001814003960DF1110B52460399584605F096FD0B
S31510018150ADF80470ADF8067004A8029069462000C7
S3151001816000B203F04FFB002015B0BDE8F08F2DE9EA
S31510018170F84F94B004000D0016001F0030788DF8EA
S31510018180000070788DF801006E208DF802005FF006
S3151001819040085FF000090DF1100A4A464146504663
S315100181A005F032FD8DF81050BA461FFA8AFAB068FA
S315100181B003900DF1110B52460399584605F05EFDD9
S315100181C0ADF80470ADF8067004A802906946200057
S315100181D000B203F017FB002015B0BDE8F08F10B503
S315100181E000242000C0B203281BDADFF8301D20005E
S315100181F0C0B201EBC0000079002810D02000C0B237
S3151001820001EBC0000079401E2200D2B201EBC2027E
S3151001821010712000C0B251F8300005F051F9641CFC
S31510018220DFE710BDF0B50D684F680026DFF8083D91
S31510018230002484465FFA8CFC644524D2BC465FEA6E
S315100182405C1C9CEA071C17EB0C0C16F0030E52F87B
S315100182502EE01EEB060E9EEA0C0C1CEB05059E1974
S31510018260AC465FEA5C1C9CEA051C15EB0C0CC6F3CC
S31510018270C12E52F82EE01EEB060E9EEA0C0C1CEBDC
S315100182800707641CD5E70D604F60F0BD00B585B0DA
S315100182906846142102F084FF684605F015F89DF82A
S315100182A0070050F001008DF80700FF208DF8080037
S315100182B08DF809008DF80A0000208DF80B000020BA
S315100182C08DF80C0000208DF80D0000208DF80E00A1
S315100182D00120DFF8681C0870DFF8400CE621016008
S315100182E003210171684604F0DFFF05B000BD30B50A
S315100182F085B004000D006846142102F051FF68464E
S3151001830004F0E2FF2A0021002020FFF78BFF9DF8E1
S31510018310070010F0FE008DF8070000208DF8080008
S315100183202068000A8DF8090020688DF80A00606837
S31510018330000E8DF80B006068000C8DF80C0060685B
S31510018340000A8DF80D0060688DF80E00DFF8CC0B71
S31510018350E621016003210171684604F0A5FF0020A2
S3151001836005B030BD2DE9FE43040000200021CDE902
S315100183700001002500275FF0010905F0D7FC060072
S31510018380A0466A4616F1A0014846C0B205F03FFF65
S31510018390DDE9000105F0BEFF88F808006A4616F10E
S315100183A0C0014846C0B205F032FFDDE9000105F013
S315100183B0B1FF88F809006A4616F1E0014846C0B2D5
S315100183C005F025FFDDE9000105F0A4FF88F80A0094
S315100183D06A4616F580714846C0B205F018FFDDE908
S315100183E0000105F097FF88F80D006A4616F59071A1
S315100183F04846C0B205F00BFFDDE9000105F08AFF22
S3151001840088F80B006A4616F5A0714846C0B205F009
S31510018410FEFEDDE9000105F07DFF88F80C006A46D5
S3151001842016F5B0714846C0B205F0F1FEDDE900015E
S3151001843005F070FF88F80E006A4616F5C0714846B9
S31510018440C0B205F0E4FEDDE9000105F063FFA8F80E
S3151001845010006A4616F5D0714846C0B205F0D7FE2F
S31510018460DDE9000105F056FF88F812006A4616F19B
S3151001847020014846C0B205F0CAFEDDE9000105F04B
S3151001848049FF88F824006A4616F500714846C0B2BD
S3151001849005F0BDFEDDE9000105F03CFF88F81F007F
S315100184A06A4616F510714846C0B205F0B0FEDDE910
S315100184B0000105F02FFF88F823006A46310048466F
S315100184C0C0B205F0A4FEDDE9000105F023FF88F82E
S315100184D013006A4616F508714846C0B205F097FEB4
S315100184E0DDE9000105F016FF88F814006A4616F555
S315100184F018714846C0B205F08AFEDDE9000105F0A3
S3151001850009FF88F820006A4616F520714846C0B260
S3151001851005F07DFEDDE9000105F0FCFE88F800009E
S315100185206A4616F528714846C0B205F070FEDDE9B7
S31510018530000105F0EFFE88F801006A4616F5307164
S315100185404846C0B205F063FEDDE9000105F0E2FE22
S3151001855088F802006A4616F538714846C0B205F029
S3151001856056FEDDE9000105F0D5FE88F803006A46DE
S3151001857016F540714846C0B205F049FEDDE9000125
S3151001858005F0C8FE88F804006A4616F54871484693
S31510018590C0B205F03CFEDDE9000105F0BBFE88F82E
S315100185A005006A4616F550714846C0B205F02FFE11
S315100185B0DDE9000105F0AEFE88F806006A4616F5FB
S315100185C058714846C0B205F022FEDDE9000105F0FA
S315100185D0A1FE88F807006A4616F560714846C0B2D2
S315100185E005F015FEDDE9000105F094FEA8F8160068
S315100185F06A4616F568714846C0B205F008FEDDE90F
S31510018600000105F087FEA8F818006A4616F5707184
S315100186104846C0B205F0FBFDDDE9000105F07AFE22
S31510018620A8F81A006A4616F578714846C0B205F0E0
S31510018630EEFDDDE9000105F06DFEA8F81C006A46A5
S3151001864016F580614846C0B205F0E1FDDDE900018D
S3151001865005F060FE88F81E006A4616F5E071484678
S31510018660C0B205F0D4FDDDE9000105F053FE88F82E
S3151001867021006A4616F5F0714846C0B205F0C7FDED
S31510018680DDE9000105F046FE88F82200BDE8F78312
S31510018690F0B585B06846142102F082FD2625002624
S315100186A0DFF8084A270032002900380005F0ACFA35
S315100186B02000FFF757FE684604F006FE06F0DBF8C9
S315100186C0012818D1DFF8E8592878002826D1A07F8B
S315100186D0012823D007F096F801281FD10020DFF8D2
S315100186E0D41908700120287007F087F807F08EF862
S315100186F0FFF7CCFD12E006F0BEF800280ED1DFF828
S31510018700B0592878012809D10020DFF8A819087076
S3151001871007F073F808F048FC00202870E07C022866
S3151001872014D1DFF89409007800280FD1DFF88C19DD
S315100187300878002804D1DFF888090078002805D0C8
S31510018740002008700020DFF878190870DFF8741916
S315100187508878002802D1487800286ED0E07C03285A
S315100187604DD08878002835D09DF8010010F03F00D3
S3151001877050F040008DF801009DF8010010F0FC004A
S3151001878050F002008DF801009DF8020010F0FC0077
S315100187908DF802009DF8020010F0F3008DF802002A
S315100187A09DF8020010F0CF008DF802009DF803002D
S315100187B010F0F0008DF803009DF8040010F0F80099
S315100187C08DF804009DF8050010F0C0008DF8050025
S315100187D0002088704878002807D09DF8010010F015
S315100187E0F3008DF8010000204870DFF83007E8210A
S315100187F0016103210175684604F056FD1DE094F8E8
S315100188002100022819D194F82000002815D12078CA
S31510018810002812D100204870002088709DF80600AB
S3151001882010F0FE008DF80600DFF8F006E7218160F2
S3151001883003210173684604F037FDDFF830149DF803
S31510018840060010F001000A78904208D09DF8060043
S3151001885010F00100087001221A2008F02AFF05B055
S31510018860F0BDF0B585B06846142102F099FC2624B6
S315100188700025DFF8546837002A002100380005F07A
S31510018880C3F93000FFF76EFD684604F01DFDDFF8F1
S3151001889028080021017000218175DFF83018097848
S315100188A002290CD0032919D004290DD0092921D068
S315100188B00B292BD00D292ED00E292DD038E00721CA
S315100188C001700C21817533E09DF8060010F0F90056
S315100188D08DF80600684604F0E7FC29E09DF80100D2
S315100188E010F0CF0050F020008DF80100684604F01A
S315100188F0DBFC1DE09DF8000010F0F90050F00400BB
S315100189008DF80000684604F0CFFC11E007210170D4
S315100189100C2181750CE00BE09DF8100010F03F0062
S3151001892050F080008DF81000684604F0BDFCFFE79A
S31510018930002005B0F0BDF0B585B06846142102F0EF
S315100189402FFC26240025DFF8886737002A0021002E
S31510018950380005F059F93000FFF704FD684604F0B8
S31510018960B3FCDFF854170020087000208875DFF873
S315100189705C07007802280CD003281DD0042811D0DA
S31510018980092825D00B2824D00D282BD00E282AD023
S315100189902AE0B5484078022803D1072008700C2038
S315100189A0887521E09DF8060010F0F9008DF8060093
S315100189B0684604F079FC17E09DF8010010F0CF002D
S315100189C050F020008DF80100684604F06DFC0BE0B4
S315100189D00AE0A5484078002803D1072008700C202A
S315100189E0887501E000E0FFE7002005B0F0BD2DE934
S315100189F0FF4F87B004005FF0FF3600208DF80000AE
S31510018A0000255FF026085FF00009DFF8C876BA4640
S31510018A104A464146504605F0F7F83800FFF7A2FCE2
S31510018A2002A8142102F0BCFB002208A9200000B202
S31510018A3002F054FF0700380000B2002840F08D8084
S31510018A40DFF874663078002840F087809DF82000A2
S31510018A50022840F082809DF8210003287DD19DF8DF
S31510018A602200812879D1DFF864867F48007810F0DA
S31510018A707F0088F80000042308AA98F80010200047
S31510018A8000B2FFF774FB012009F0D4FE5FF0240950
S31510018A905FF0000AB34652464946584605F0B4F807
S31510018AA0DFF83406019098F80000022814D0032844
S31510018AB018D0042813D0092817D00B2820D00D2838
S31510018AC021D00E282AD00F283CD0112834D01228B4
S31510018AD02FD0132833D038E00A20307037E00A201F
S31510018AE0307034E00A20307031E0DFF8F00500789C
S31510018AF0012802D00020307001E00A20307026E0F3
S31510018B000A20307023E0DFF8D4050078012802D05E
S31510018B100020307001E00A20307018E0DFF8BC0543
S31510018B200078012802D00020307001E00A20307050
S31510018B300DE00A2030700AE00B20307007E00C209F
S31510018B40307004E00C20307001E000203070019884
S31510018B5009F0D9FD002009F0E0FD0BB0BDE8F08F5A
S31510018B602DE9F8430400002526275FF00008DFF8F9
S31510018B707065B14642463900484605F045F8300061
S31510018B80FFF7F0FB6946002006F0D4F9009843F68A
S31510018B908161884204D2009842F22831884202D279
S31510018BA00120050053E008F0EFF9002802D0022059
S31510018BB005004CE02000C0B2142802DB032005009A
S31510018BC045E0F07F002842D096F8210003280ED107
S31510018BD02000C0B209283AD02000C0B20E2836D0E3
S31510018BE02000C0B20D2832D0062005002FE096F8DD
S31510018BF0210002281ED12000C0B2022827D0200051
S31510018C00C0B2042823D02000C0B203281FD02000F0
S31510018C10C0B209281BD02000C0B20E2817D02000E0
S31510018C20C0B20B2813D02000C0B20D280FD00720D8
S31510018C3005000CE096F82400362806DB2000C0B2A9
S31510018C400D2804D00820050001E0002005002800A9
S31510018C50C0B2BDE8F2830000904900089CE30310FE
S31510018C6044C9010840CE010870CC0108A4D00108FE
S31510018C70F0B40400002C05D0002903D0002A01D03D
S31510018C80002B01D100202DE0E08A258B55EA004505
S31510018C901560608BA58B55EA004555600025042D9E
S31510018CA01FDA002043F825000026042E17DA16EBEA
S31510018CB08500102811DA53F8257016EB850011F886
S31510018CC000C0D6F10300C0B2C0001CFA00FC5CEA79
S31510018CD0070743F82570761CE7E7002002E06D1CB4
S31510018CE0DDE70120F0BC70472DE9F04F8FB000246D
S31510018CF0082100226D46280004F086FF102100226B
S31510018D0002AD280004F080FF1021002206AD2800D4
S31510018D1004F07AFF0AA8142102F042FA05F006F8C7
S31510018D20050026275FF00008DFF8B863B146424612
S31510018D303900484604F068FF3000FFF713FB5FF077
S31510018D401009DFF8A4A30DF1180B4A4651465846EF
S31510018D5004F094FFB07F012815D106F053FD0128C8
S31510018D6011D1DFF85003017802290CD00021DFF868
S31510018D707C2311800021DFF8782311700221017004
S31510018D8006F044FDBBE0DFF82C733878002807D0D5
S31510018D90022800F0AA8061D3032800F0A780A6E07C
S31510018DA008F0F8F8012803D006F02CFD012854D15B
S31510018DB0DFF840834FF4FA70C8F80000DFF82C93FF
S31510018DC0D8F80000B9F8001088423BD3DFF86CA13F
S31510018DD09AF80000012804D1B9F80000401CA9F83E
S31510018DE0000006F006FD012820D102AB6A4606A94D
S31510018DF03000FFF73DFF002815D002A96846FFF79E
S31510018E0076FA012038700020A9F80000C820C8F8A9
S31510018E10000000208AF8000006F0EFFC08F0C4F804
S31510018E2006F0F4FC19E00320387016E0B9F80000DA
S31510018E30C82804D0B9F80000B0F5C87F0DD1FFF7E6
S31510018E4025FA0AE00020A9F800000020A8490870B8
S31510018E5000203A4908700320387050E0DFF88C8200
S31510018E60A4480068B8F80010884235D3B8F8000055
S31510018E70401CA8F8000006F0BCFC012834D108F00B
S31510018E8089F8012830D19A48017804290BDA01783A
S31510018E90491C017002AB6A4606A93000FFF7E8FECD
S31510018EA0002808D115E0002101700020A8F8000063
S31510018EB00320387023E002A96846FFF718FA00204C
S31510018EC0A8F8000006F099FC08F06EF80120387039
S31510018ED00AE00320387007E00020A8F800000020FF
S31510018EE0834908700320387009E008E007E0002084
S31510018EF07E49088000207E490870002038700020C5
S31510018F000FB0BDE8F08FF8B5040010252600764F96
S31510018F102A003100380004F0B1FEF1BD30CC010851
S31510018F206E490870704780B500206249087006F0D6
S31510018F3064FC08F039F801BDB979379EA2D0010851
S31510018F402DE9F84785B004000025142100226E464C
S31510018F50300004F059FE00265FF026085FF0000984
S31510018F60654FBA464A464146504604F04DFE380012
S31510018F70FFF7F8F95FF0000A04F0D8FE07004E4833
S31510018F80817D052919D151480078022802D00B2874
S31510018F9009D011E002208DF80000D3208DF80100D0
S31510018FA00120050074E002208DF80000D3208DF811
S31510018FB00100012005006BE06AE0817D08294BD193
S31510018FC042480078022802D00B2814D043E005F05D
S31510018FD052FC002807D0684602218173D421C1733F
S31510018FE00120050006E06846012181730021C17345
S31510018FF0002005004CE005F03EFC002815D0DFF8F6
S31510019000000C4078012808D102208DF80000D420E8
S315100190108DF80100012005001CE0684602218170CF
S31510019020D421C1700120050014E0DFF8D40B40787B
S31510019030012808D101208DF8000000208DF80100CB
S315100190400020050006E06846012181700021C170EB
S31510019050002005001CE01BE0807D072818D11B4865
S315100190600078022802D00B2809D011E001208DF8D2
S31510019070000000208DF801000120050008E0012004
S315100190808DF8000000208DF8010001200500FFE792
S315100190905FF01408E946A24642464946504604F096
S315100190A0EDFD2800C0B206B0BDE8F087D8C90108A9
S315100190B0A1D001089DD0010864CB01089FD00108F9
S315100190C0A0D0010864CF010800CA01089ED001088A
S315100190D028CA010850CA0108E0930400A3D0010868
S315100190E078CA0108A0CA0108ACCD01085ED00108F2
S315100190F0A5D0010868CF0108C8CA01082DE9F14FAA
S3151001910086B00024142100226D46280004F07CFD4F
S31510019110002500265FF026095FF0000BDFF8E48AD0
S3151001912047465A464946380004F06EFD4046FFF759
S3151001913019F90020059004F0F9FD0700DFF8C8AA17
S315100191409AF80000022800F0FC86032800F0358208
S31510019150042800F0EF80092800F07F830B2800F027
S315100191606F840D2800F01A860E2800F0E9820F2868
S315100191700FD0112800F0A980122865D0132841F0CC
S3151001918089810BF064F88DF800000120040001F0CC
S3151001919081B9DFF86C1A4878002808D1DFF86C0A13
S315100191A000788DF8000000208DF8010048E048781D
S315100191B0012821D1DFF8541A0878012816D0012088
S315100191C0087001221B2008F074FA05002800C0B2AD
S315100191D0002805D16846012181700021C1702FE058
S315100191E0684602218170D321C17029E068460121A8
S315100191F081700021C17023E04878022820D1DFF860
S315100192000C1A0878002816D00020087001221B209D
S3151001921008F04FFA05002800C0B2002805D16846AB
S3151001922001210171002141710AE068460221017193
S31510019230D321417104E06846012101710021417178
S315100192400120040001F026B9DFF8B4194878002886
S3151001925015D198F82100012808D101208DF80000B8
S3151001926000208DF80100012004002CE002208DF869
S3151001927000001D208DF801000020040023E048782D
S31510019280012815D198F82100022808D101208DF85E
S31510019290000000208DF801000120040013E00220D7
S315100192A08DF800001D208DF80100002004000AE051
S315100192B04878022807D101208DF8000000208DF88A
S315100192C001000120040001F0E5B8DFF834194878EF
S315100192D0002815D198F82200002808D101208DF810
S315100192E0000000208DF801000120040020E002207A
S315100192F08DF800001D208DF801000020040017E0F4
S315100193004878012814D198F82200012808D10120A3
S315100193108DF8000000208DF801000120040007E0FF
S3151001932002208DF800001D208DF801000020040098
S3151001933001F0B0B8DFF8D808817D012900F0AA80C4
S31510019340817D022915D1DFF8B8084078012808D1A6
S3151001935002208DF8000002208DF801000120040082
S3151001936029E16846022181700221C17001200400A1
S3151001937021E1807D032837D1DFF88408417802295D
S315100193800CD198F80800012840F015816846022191
S3151001939081700421C170012004000CE1407801287C
S315100193A040F0098198F80900002807D198F80A00B9
S315100193B0002803D198F80D00002807D002208DF857
S315100193C0000014208DF801000120040098F80E0009
S315100193D0002800F0F08002208DF800001E208DF884
S315100193E0010001200400E6E017F1A001012004F0BC
S315100193F0FCFE002838D198F8080000280DD1DFF8B6
S3151001940000084078012808D10120040001208DF8B8
S31510019410000000208DF80100CDE098F80800012821
S315100194200CD1DFF8DC074078022807D101200400AF
S315100194306846012181700021C170BCE0DFF8C007C8
S315100194404078012808D102208DF800001C208DF8E3
S31510019450010000200400AEE06846022181701C2143
S31510019460C17000200400A6E0DFF8940740780128B7
S3151001947008D102208DF800001D208DF80100002072
S31510019480040098E06846022181701D21C1700020F8
S31510019490040090E09AF80000FFF762FB012815D14D
S315100194A0DFF85C074078012808D102208DF800000A
S315100194B003208DF80100012004007CE0684602219A
S315100194C081700321C1700120040074E09AF8000034
S315100194D0FFF746FB022815D1DFF82407407801284B
S315100194E008D102208DF800001A208DF80100012004
S315100194F0040060E06846022181701A21C1700120C2
S31510019500040058E09AF80000FFF72AFB052815D148
S31510019510DFF8EC064078012808D102208DF800000A
S3151001952001208DF801000120040044E06846022163
S3151001953081700121C170012004003CE09AF80000FD
S31510019540FFF70EFB062805D09AF80000FFF708FB77
S31510019550072815D1DFF8A8064078012808D102207E
S315100195608DF8000006208DF801000120040022E08C
S315100195706846022181700621C170012004001AE09B
S315100195809AF80000FFF7ECFA082814D1DFF87006F4
S315100195904078012808D102208DF8000010208DF89E
S315100195A001000120040006E06846022181701021A5
S315100195B0C1700120040000F06DBFDFF85406817DF3
S315100195C001296BD0817D022908D102208DF8000076
S315100195D002208DF8010000200400AFE0807D0328F1
S315100195E032D198F80900002807D198F80A00002806
S315100195F003D198F80D00002807D002208DF800003D
S3151001960014208DF801000120040098F808000028A4
S3151001961007D002208DF8000004208DF801000120EA
S31510019620040098F80B00012840F0888098F80C0087
S31510019630012840F0838002208DF800001F208DF84C
S3151001964001000120040079E017F50871012004F0EA
S31510019650CCFD002819D198F81400002808D1022051
S315100196608DF800001C208DF801000120040065E032
S3151001967098F81400012861D101208DF8000000200E
S315100196808DF801000120040058E002208DF8000039
S315100196901D208DF80100002004004FE09AF800000B
S315100196A0FFF75EFA012808D102208DF80000032089
S315100196B08DF801000120040040E09AF80000FFF740
S315100196C04FFA022808D102208DF800001A208DF8D1
S315100196D001000120040031E09AF80000FFF740FA7A
S315100196E0052808D102208DF8000001208DF801000F
S315100196F00120040022E09AF80000FFF731FA06284B
S3151001970005D09AF80000FFF72BFA072808D1022096
S315100197108DF8000006208DF80100012004000DE0EF
S315100197209AF80000FFF71CFA082807D102208DF8D5
S31510019730000010208DF801000120040000F0AABEDF
S31510019740DFF8CC04817D01294AD0817D022915D10A
S31510019750DFF8AC044078002808D002208DF800000C
S3151001976002208DF801000020040074E068460221F1
S3151001977081700221C170002004006CE0807D0328F5
S3151001978018D198F80E00002807D002208DF8000095
S315100197901E208DF801000120040098F812000528FA
S315100197A059D102208DF800001B208DF801000120EF
S315100197B0040050E0DFF848044078002808D0012062
S315100197C08DF8000000208DF801000120040042E010
S315100197D06846012181700021C170012004003AE020
S315100197E09AF80000FFF7BCF9012808D102208DF87C
S315100197F0000003208DF80100012004002BE09AF8E7
S315100198000000FFF7ADF9022808D102208DF80000FB
S315100198101A208DF80100012004001CE09AF80000BE
S31510019820FFF79EF9052808D102208DF800000120C6
S315100198308DF80100012004000DE09AF80000FFF7F1
S315100198408FF9082807D102208DF8000010208DF815
S3151001985001000120040000F01DBEE9460CF01AF9C2
S3151001986089F80400DFF8A803817D012900F0AB8097
S31510019870817D022916D1DFF888038078002808D067
S3151001988002208DF80000022089F801000020040052
S31510019890D4E0022089F80200022089F80300002092
S315100198A00400CBE0807D032838D1DFF8540380789B
S315100198B0002819D098F80E00002807D002208DF83C
S315100198C000001E2089F801000120040098F81200FA
S315100198D0052840F0B38002208DF800001B2089F87E
S315100198E0010001200400A9E098F80E00002807D015
S315100198F0022089F802001E2089F8030001200400C5
S3151001990098F81200052840F09980022089F8020083
S315100199101B2089F80300012004008FE017F5107150
S31510019920012004F062FC002837D1B5488078002860
S3151001993019D098F82300012808D002208DF80000CC
S315100199401C2089F801000020040077E098F8230014
S31510019950012873D101208DF80000002089F801003B
S31510019960012004006AE098F82300002808D002209C
S3151001997089F802001C2089F80300002004005DE02C
S3151001998098F82300002859D1012089F802000020F7
S3151001999089F803000120040050E0994880780028D6
S315100199A008D002208DF800001D2089F80100002042
S315100199B0040043E0022089F802001D2089F8030003
S315100199C0002004003AE09AF80000FFF7C9F80128D0
S315100199D008D102208DF80000032089F8010001202A
S315100199E004002BE09AF80000FFF7BAF8022808D114
S315100199F002208DF800001A2089F8010001200400C8
S31510019A001CE09AF80000FFF7ABF8052808D10220F0
S31510019A108DF80000012089F80100012004000DE0F5
S31510019A209AF80000FFF79CF8082807D102208DF854
S31510019A300000102089F801000120040000F02ABD61
S31510019A407348817D0A2914D16D484078012808D1BF
S31510019A5002208DF80000A9208DF8010001200400D4
S31510019A609BE1684602218170A921C1700120040081
S31510019A7093E1817D012940F08E809AF80000FFF76D
S31510019A806FF8012814D15E484078012808D10220C8
S31510019A908DF8000003208DF80100012004007CE1FF
S31510019AA06846022181700321C1700120040074E10E
S31510019AB09AF80000FFF754F8022814D1504840785C
S31510019AC0012808D102208DF800001A208DF8010016
S31510019AD00120040061E16846022181701A21C170DA
S31510019AE00120040059E19AF80000FFF739F805281A
S31510019AF014D143484078012808D102208DF800007E
S31510019B0001208DF801000120040046E1684602217A
S31510019B1081700121C170012004003EE19AF8000014
S31510019B20FFF71EF8062805D09AF80000FFF718F877
S31510019B30072814D132484078012808D102208DF81F
S31510019B40000006208DF801000120040025E1684679
S31510019B50022181700621C170012004001DE19AF8CD
S31510019B600000FEF7FDFF082840F0178124484078D1
S31510019B70012808D102208DF8000010208DF801006F
S31510019B800120040009E16846022181701021C1708B
S31510019B900120040001E1817D032940F08480DFF872
S31510019BA014090078052818DB15484178012908D1D0
S31510019BB002208DF800000B208DF801000120040011
S31510019BC0EBE04078002840F0E88068460221817079
S31510019BD00B21C17001200400DFE0DFF8DC080078FA
S31510019BE0082823DB06484178012913D102208DF874
S31510019BF000000A208DF8010001200400CDE000BF0D
S31510019C0070CC0108F0CA01089ED00108A3D0010842
S31510019C1064CB01084078002840F0BF8068460221D5
S31510019C2081700A21C17001200400B6E098F80E0077
S31510019C30002819D0DFF884084178012908D10220BB
S31510019C408DF800001E208DF8010001200400A4E00B
S31510019C504078002840F0A1806846022181701E21BB
S31510019C60C1700120040098E098F81200052840F010
S31510019C709480DFF848084178012908D102208DF82F
S31510019C8000001B208DF801000120040085E04078BA
S31510019C90002840F082806846022181701B21C17024
S31510019CA00120040079E0807D022818D1DFF80C0824
S31510019CB04178012908D102208DF8000002208DF883
S31510019CC001000120040068E04078002865D168464B
S31510019CD0022181700221C170012004005DE017F597
S31510019CE01871012004F081FA00283DD198F820005E
S31510019CF001281CD1DFF8C407417801290CD10120B4
S31510019D008DF8000000208DF80100012004000120CB
S31510019D10DFF8AC17487040E0407800283DD168461E
S31510019D20022181701C21C1700020040035E0DFF88A
S31510019D308C074178012908D102208DF800001C20DA
S31510019D408DF801000020040027E04078002824D176
S31510019D506846012181700021C17001200400002094
S31510019D60DFF85C17487018E0DFF8500741780129D1
S31510019D7008D102208DF800001D208DF80100002069
S31510019D8004000AE04078002807D102208DF800006F
S31510019D900D208DF80100002004007BE3DFF858093F
S31510019DA0817D012979D0817D022915D1DFF80C0732
S31510019DB04078002808D002208DF8000002208DF886
S31510019DC0010000200400BBE06846022181700221D7
S31510019DD0C17000200400B3E0807D032800F0B0803C
S31510019DE017F51071012004F000FA00283FD1DFF8B1
S31510019DF0CC06407800281ED098F82300002808D1F8
S31510019E0002208DF800001C208DF8010000200400AE
S31510019E1096E098F82300012840F0928001208DF8F1
S31510019E20000000208DF80100012004000120DFF858
S31510019E309016087084E098F82300012807D1684627
S31510019E40022181701C21C1700020040078E098F86D
S31510019E502300002874D16846012181700021C17048
S31510019E60012004000020DFF85816087068E0DFF8BA
S31510019E704C064078002808D002208DF800001D20DD
S31510019E808DF80100002004005AE068460221817015
S31510019E901D21C1700020040052E09AF80000FEF75F
S31510019EA05FFE012815D1DFF814064078002808D086
S31510019EB002208DF8000003208DF801000120040016
S31510019EC03EE06846022181700321C1700120040021
S31510019ED036E09AF80000FEF743FE022815D1DFF8A6
S31510019EE0DC054078002808D002208DF800001A20E1
S31510019EF08DF801000120040022E0684602218170DC
S31510019F001A21C170012004001AE09AF80000FEF728
S31510019F1027FE052814D1DFF8A4054078002808D0BB
S31510019F2002208DF8000001208DF8010001200400A7
S31510019F3006E06846022181700121C17001200400EA
S31510019F40A8E2DFF8B407817D0A2915D1DFF86C057F
S31510019F504078012808D102208DF80000A9208DF83B
S31510019F6001000120040094E2684602218170A921B2
S31510019F70C170012004008CE2817D012940F093809B
S31510019F809AF80000FEF7ECFD012815D1DFF82C0533
S31510019F904078012808D102208DF8000003208DF8A1
S31510019FA001000120040074E2684602218170032138
S31510019FB0C170012004006CE29AF80000FEF7D0FD92
S31510019FC0022815D1DFF8F4044078012808D10220BF
S31510019FD08DF800001A208DF801000120040058E2C6
S31510019FE06846022181701A21C1700120040050E2D5
S31510019FF09AF80000FEF7B4FD052815D1DFF8BC0468
S3151001A0004078012808D102208DF8000001208DF832
S3151001A0100100012004003CE2684602218170012101
S3151001A020C1700120040034E29AF80000FEF798FD91
S3151001A030062805D09AF80000FEF792FD072815D1DB
S3151001A040DFF878044078012808D102208DF8000045
S3151001A05006208DF80100012004001AE2684602214B
S3151001A06081700621C1700120040012E29AF80000E5
S3151001A070FEF776FD082840F00C82DFF840044078A0
S3151001A080012808D102208DF8000010208DF801005A
S3151001A09001200400FDE16846022181701021C17082
S3151001A0A001200400F5E1817D022919D1DFF80C04A4
S3151001A0B04178022907D16846022181700221C170B7
S3151001A0C001200400E5E14078012840F0E2810220F8
S3151001A0D08DF8000002208DF8010001200400D8E15E
S3151001A0E0807D032840F09880DFF8C80300780528A2
S3151001A0F019DBDFF8C8034178012908D102208DF850
S3151001A10000000B208DF8010001200400C1E1407808
S3151001A110022840F0BE816846022181700B21C17070
S3151001A12001200400B5E1DFF890030078082819DB57
S3151001A130DFF888034178012908D102208DF8000043
S3151001A1400A208DF8010001200400A2E140780228BE
S3151001A15040F09F816846022181700A21C170012059
S3151001A160040096E198F80E00002819D0DFF84C0388
S3151001A1704178012908D102208DF800001E208DF8A2
S3151001A18001000120040084E14078022840F0818119
S3151001A1906846022181701E21C1700120040078E1F8
S3151001A1A098F81200052819D1DFF810034178012912
S3151001A1B008D102208DF800001B208DF80100012026
S3151001A1C0040066E14078022840F063816846022166
S3151001A1D081701B21C170012004005AE1B8F81000EA
S3151001A1E03C2880F25681B5484178012908D10220D0
S3151001A1F08DF8000019208DF801000120040048E1B6
S3151001A2004078022840F04581684602218170192163
S3151001A210C170012004003CE1DFF8A09299F8010019
S3151001A22002282AD117F52071012003F0DEFF00283C
S3151001A2301BD198F8000000280AD1684601218170C7
S3151001A2400021C1700120040000209D49887020E181
S3151001A25098F80000012840F01C816846022181709F
S3151001A2601321C1700020040013E168460221817098
S3151001A2701D21C170002004000BE199F8010001288D
S3151001A28040F0078117F52071012003F0AEFF002879
S3151001A29040F0F78098F80000002808D102208DF8C8
S3151001A2A0000013208DF8010000200400F1E098F859
S3151001A2B00000012840F0ED8001208DF8000069466C
S3151001A2C0002048700120040001207D4A907099F801
S3151001A2D005003A280DDA98F80700002804D1012064
S3151001A2E008710020487126E0022008711320487178
S3151001A2F021E099F8050048280DDB98F807000F288A
S3151001A30004D1012008710020487114E0022008715F
S3151001A310132048710FE098F8070099F80520383A8C
S3151001A320904204D1012008710020487103E00220F7
S3151001A33008711320487199F8060098F80620904282
S3151001A34004D1012088710020C87103E002208871B0
S3151001A3501320C87199F8030098F80320904204D18C
S3151001A360012008720020487203E0022008721320AF
S3151001A370487299F80400002808D0022814D00CD38A
S3151001A38004281FD017D3052823D028E098F80500F4
S3151001A390002801D10120060021E098F805000228C5
S3151001A3A001D1012006001AE098F80500012801D113
S3151001A3B00120060013E098F80500032801D10120B9
S3151001A3C006000CE098F80500042801D101200600CA
S3151001A3D005E098F80400012801D10120060030009B
S3151001A3E0C0B2012805D1012088720020C872002050
S3151001A3F004E0022088721320C872002099F8022006
S3151001A400012A09D02DD3032A14D00CD3052A1DD025
S3151001A41011D3062A25D024E098F80220012A01D169
S3151001A420012210001DE098F80120012A01D1012214
S3151001A430100016E015E098F80620072A05D198F8BD
S3151001A4400720102A01D1012210000AE098F80620EF
S3151001A450072A05D198F80720012A01D101221000F7
S3151001A460FFE70200D2B2012A05D101220A730022A6
S3151001A4704A7300260DE002220A7313224A7300263C
S3151001A48007E002208DF800001D208DF80100002044
S3151001A4900400FFE75FF01408E946DDF818A042460C
S3151001A4A04946504603F0EAFB2000C0B207B0BDE8AA
S3151001A4B0F08F00009FD00108A0D0010870CC0108D0
S3151001A4C064CF01082DE9F84FA0B0040048210022FD
S3151001A4D00EAE300003F098FB082100220CAE3000BE
S3151001A4E003F092FB00208DF814006846142100F049
S3151001A4F057FE5FF026085FF00009DFF8E86B3700BA
S3151001A5004A464146380003F07FFB3000FDF72AFF2B
S3151001A5100020069003F00AFC06905FF0140A5FF023
S3151001A520000B07AF5A465146380003F06DFB6846DB
S3151001A53002F0CAFE704F387800281ED0022800F0AB
S3151001A5400281C0F0E280042800F0E681C0F02D817E
S3151001A550062800F07982C0F02C82082800F0C58206
S3151001A560C0F085820A280AD0C0F0F8820C2800F0C3
S3151001A5704585C0F0068300F0B0BD00F0B0BD0A20DD
S3151001A580B875DFF8E48B98F80000801E022809D907
S3151001A590C01F07D0801E05D0801E012802D9401F7A
S3151001A5A040F0AF8098F80000022803D098F8000018
S3151001A5B00B284ED104F05FF9002809D0F07C03284E
S3151001A5C006D00020DFF8A41B08600C20387097E035
S3151001A5D0DFF8988BD8F80000401CC8F80000D8F8AE
S3151001A5E00000C82825D2B07F012813D005F00AF93A
S3151001A5F001280FD10020C8F8000005F007F905F071
S3151001A600FCF8FDF743FE0020DFF8641B08700120FB
S3151001A610387075E0B07F012872D105F0F3F8012882
S3151001A6206ED10020C8F8000005F0F0F8012038704E
S3151001A63066E00020C8F8000005F0E8F805F0DDF83E
S3151001A640FDF724FE0020DFF8281B08700120387062
S3151001A65056E0DFF8189BD9F80000401CC9F8000035
S3151001A660D9F80000C82833D2B07F01281AD005F0D6
S3151001A670C9F8012816D10020C9F8000005F0C6F85E
S3151001A68005F0BBF8FDF702FE0020DFF8E41A0870AA
S3151001A69098F80000122802D00120387030E00B2003
S3151001A6A038702DE0B07F01282AD105F0ABF80128CA
S3151001A6B026D10020C9F8000005F0A8F898F8000086
S3151001A6C0122802D0012038701AE00B20387017E0DA
S3151001A6D00020C9F8000005F099F805F08EF8FDF78D
S3151001A6E0D5FD0020DFF8881A087098F800001228A6
S3151001A6F004D00120387003E064CB01080B203870B8
S3151001A70001E00020387000F0EABC0120B875DFF8CE
S3151001A710580A0178891E022906D9C91F04D0891E33
S3151001A72002D0891E01290AD80078FEF719FA0028E5
S3151001A73002D10220387001E00C20387001E00020AF
S3151001A740387000F0CCBC0220B875DFF81C0A00780E
S3151001A750801E022806D9C01F04D0801E02D0801E7A
S3151001A76001281ED8B07F01280CD105F04BF801281D
S3151001A77008D10020DFF8F419086005F047F8032026
S3151001A78038700DE0DFF8E4090168491C01600168C1
S3151001A79040F2E932914203D3002101600C20387056
S3151001A7A001E00020387000F09ABC0320B875DFF87C
S3151001A7B0B809007802280ED0032853D004282ED0C9
S3151001A7C009286AD00B2874D00D2800F093800E2822
S3151001A7D000F093809DE0DFF89C09007806281BDACB
S3151001A7E0DFF894090078092816DAB07C052813D009
S3151001A7F0B07B002810D1308A3D280DDBDFF87C09AB
S3151001A8004178012902D10420387007E040780228E6
S3151001A81004D10B20387001E00C2038707BE0DFF892
S3151001A8205C094178022908D1307A002802D10B201F
S3151001A830387016E00C20387013E04078012810D1DA
S3151001A840707A00280BD1B07A002808D1707B0028C5
S3151001A85005D1B07B002802D10B20387001E00C2005
S3151001A860387058E0707A002814D1B07A002811D1C6
S3151001A870707B00280ED1F07A01280BD0307A01288E
S3151001A88008D0307B012805D0B07B002802D10B20DF
S3151001A890387001E00C2038703DE0B07B002805D1FE
S3151001A8A0B07C052802D00B20387001E00C203870DE
S3151001A8B031E0DFF8C0080078062818DADFF8B808A2
S3151001A8C00078092813DAB07C052810D0B07B00284F
S3151001A8D00DD1DFF8A8084178012902D1042038707A
S3151001A8E007E04078002804D10B20387001E00C20D5
S3151001A8F0387010E00B2038700DE0B07B002805D1C0
S3151001A900B07C052802D00B20387001E00C2038707D
S3151001A91001E000203870E2E30420B875DFF848083A
S3151001A9200078022802D00B2820D03FE0F07C0328C3
S3151001A93002D0F07C022802D10B20387015E00520D8
S3151001A94038709DF8060050F001008DF80600DFF80A
S3151001A95024080178491C0170DFF82408E721816079
S3151001A96003210173684602F09FFC21E0F07C032865
S3151001A97002D0F07C022802D10B20387015E0052098
S3151001A98038709DF8060050F001008DF80600DFF8CA
S3151001A990E4070178491C0170DFF8E407E7218160BB
S3151001A9A003210173684602F07FFC01E00020387034
S3151001A9B095E30520B875DFF8B0070078022802D0B4
S3151001A9C00B281FD03DE096F82100022813D0DFF89E
S3151001A9D09C070168491C0160016840F2911291427D
S3151001A9E00FD300210160DFF890070178491C01702F
S3151001A9F00620387005E00020DFF8701708600B207C
S3151001AA00387020E096F82100022813D0DFF85C0791
S3151001AA100168491C0160016840F2911291420FD3FD
S3151001AA2000210160DFF850070178491C01700620EA
S3151001AA30387005E00020DFF8341708600B203870F5
S3151001AA4001E0002038704AE307A8FEF779FA0028DA
S3151001AA500AD0072038700F2307AADFF80C070178F0
S3151001AA60200000B2FDF74CFB0620B87537E307202E
S3151001AA70B875DFF8F4060078022802D00B2819D031
S3151001AA8030E096F82000012802D10920387010E034
S3151001AA909DF8060010F0FE008DF8060008203870AB
S3151001AAA0DFF8DC06E721816003210173684602F0B5
S3151001AAB0FBFB19E03078012802D10920387010E02B
S3151001AAC09DF8060010F0FE008DF80600082038707B
S3151001AAD0DFF8AC06E721816003210173684602F0B5
S3151001AAE0E3FB01E000203870F9E20820B875DFF8C1
S3151001AAF078060078022802D00B2816D02BE003F036
S3151001AB00BAFE00280ED0DFF864060168491C016000
S3151001AB10016840F22D12914206D3002101600920ED
S3151001AB20387001E00920387017E003F0A4FE002800
S3151001AB300ED0DFF838060168491C0160016840F241
S3151001AB402D12914206D3002101600920387001E0CF
S3151001AB500920387001E000203870C0E207A8FEF71E
S3151001AB60EFF9002808D00F2307AADFF8FC050178B2
S3151001AB70200000B2FDF7C4FA002038700020B87525
S3151001AB80ADE20B20B875DFF8E0050078022818D081
S3151001AB90032800F03D81042800F00881092800F0FF
S3151001ABA07B810B2800F0B5810D2800F045810E2818
S3151001ABB000F09381112800F00482122800F0CC8154
S3151001ABC019E2DFF8B8054178012908D19DF801107D
S3151001ABD011F03F0151F080018DF801100AE0417822
S3151001ABE0022907D19DF8011011F03F0151F04001E2
S3151001ABF08DF801108178002909D0022927D015D3A3
S3151001AC00042934D032D3062951D03FD34FE09DF8D1
S3151001AC10011011F0FC018DF801109DF8021011F0D0
S3151001AC20FC0151F001018DF8021040E09DF8011070
S3151001AC3011F0FC0151F001018DF801109DF802107F
S3151001AC4011F0FC0151F001018DF802102FE09DF871
S3151001AC50011011F0FC018DF801109DF8021011F090
S3151001AC60FC0151F002018DF8021020E01FE09DF861
S3151001AC70011011F0FC018DF801109DF8021011F070
S3151001AC80FC0151F002018DF8021010E09DF801103F
S3151001AC9011F0FC0151F001018DF801109DF802101F
S3151001ACA011F0FC0151F001018DF80210FFE7C17896
S3151001ACB0032907DAC178491C9DF8022061F3830242
S3151001ACC08DF802200179002908D0022918D00ED357
S3151001ACD0042927D01DD305292DD034E09DF8041061
S3151001ACE011F0F80151F001018DF804102BE09DF8D7
S3151001ACF0041011F0F80151F003018DF8041022E04F
S3151001AD009DF8041011F0F80151F002018DF80410AC
S3151001AD1019E09DF8041011F0F80151F004018DF8B5
S3151001AD20041010E09DF8041011F0F80151F005011E
S3151001AD308DF8041007E09DF8021011F0CF0151F0C3
S3151001AD4020018DF8021041793A2908DA9DF805108B
S3151001AD5011F0C00151F001018DF8051013E0417990
S3151001AD60482908DB9DF8051011F0C00151F01001BA
S3151001AD708DF8051007E0417938399DF8052061F302
S3151001AD8005028DF8052080799DF8031060F3030103
S3151001AD908DF80310DFF8E803E8210161032101753D
S3151001ADA0684602F081FA0C20387026E1DFF8CC03F0
S3151001ADB04178012913D19DF8060010F0F90050F0E1
S3151001ADC002008DF80600DFF8B803E7218160032140
S3151001ADD00173684602F068FA0C20387017E0407863
S3151001ADE0022813D19DF8060010F0F90050F0040066
S3151001ADF08DF80600DFF88803E721816003210173CE
S3151001AE00684602F051FA0C20387000E0F5E0F4E0E3
S3151001AE109DF8010010F0CF0050F010008DF80100E0
S3151001AE20DFF85C03E821016103210175684602F030
S3151001AE303BFA0C203870E0E0DFF840034178012935
S3151001AE4010D19DF8000010F0CF0050F010008DF8D1
S3151001AE5000009DF8000010F0F90050F002008DF886
S3151001AE6000000EE0407800280BD19DF8000010F08C
S3151001AE70CF008DF800009DF8000010F0F9008DF854
S3151001AE800000BF48E821016103210175684602F0FF
S3151001AE900BFA0C203870B0E0B8498878002808D031
S3151001AEA09DF8000010F0F90050F002008DF8000036
S3151001AEB008E08878002805D19DF8000010F0F90007
S3151001AEC08DF80000AE48E82101610321017568463D
S3151001AED002F0EAF90C2038708FE0A8484178012970
S3151001AEE008D19DF8100010F03F0050F040008DF889
S3151001AEF0100008E04078022805D19DF8100010F0E6
S3151001AF003F008DF81000684602F0CEF90C2038701B
S3151001AF1073E09A494878002808D19DF8010010F08D
S3151001AF20F3008DF801000C2038700CE048780128E8
S3151001AF3009D19DF8010010F0F30050F004008DF8CE
S3151001AF4001000C2038708E48E8210161032101753A
S3151001AF50684602F0A9F950E08849487800280FD1CF
S3151001AF609DF80F0050F008008DF80F009DF80600AF
S3151001AF7010F0FE008DF80600684602F095F91DE006
S3151001AF80487801280ED19DF8060050F001008DF881
S3151001AF9006007B48E721816003210173684602F0B0
S3151001AFA083F90BE04878022808D19DF80F0010F0BC
S3151001AFB0F7008DF80F00684602F076F90C2038700C
S3151001AFC01BE06E494878002806D19DF80F0010F055
S3151001AFD0FE008DF80F0008E04878012805D19DF88C
S3151001AFE00F0050F001008DF80F00684602F05CF971
S3151001AFF00C20387001E00020387070E0614E306826
S3151001B000401C3060584F3878042803D14FF4C8706B
S3151001B010050033E03878032803D14FF47A70050020
S3151001B0202CE038780B2807D154484078012803D1F1
S3151001B0304FF4FA60050021E038780B2807D14F4804
S3151001B0404078002803D14FF49670050016E0387841
S3151001B050092803D14FF4FA7005000FE03878022859
S3151001B06003D14FF4C870050008E03878112802D1D1
S3151001B070C820050002E04FF4FA70050007A8FEF794
S3151001B0803DF8002811D0FDF756FC002030600F2343
S3151001B09007AA3978200000B2FDF732F83A4801F0D4
S3151001B0A038F9002007F0C6FB16E03068854213D246
S3151001B0B0FDF7D7FB002030600F2307AA397820004F
S3151001B0C000B2FDF71DF807A8827841782F4801F0E4
S3151001B0D020F9002007F0AEFB01E00020387021B006
S3151001B0E0BDE8F08F18CB01087CB50500FCF7C8FF49
S3151001B0F001F025FC00900BF08AF901280FD140F6DA
S3151001B100B830040022480188491C01800188A142F7
S3151001B11024D30021018000200BF075F91EE00020D8
S3151001B1201B490880FDF7E0FDFDF7B2FA194E1A48E2
S3151001B13090E80E00B6F90000FDF759FCB6F90000CB
S3151001B140FFF7C0F915490868002804D000200860E7
S3151001B150FDF745F802E00868401C08600A216846B8
S3151001B16001F0A7FAC7E700009ED0010870CF0108C9
S3151001B1709DD001089FD00108A0D0010870CC01080C
S3151001B18030CC01086CCF0108BCE603103CE5031076
S3151001B1905CD001089049000840CE010874CF01081F
S3151001B1A000220BF069BB30B4002513E050F8042BD4
S3151001B1B0D30744BFA9F101039A18091F042942F8BC
S3151001B1C0045BFAD213468C0744BF15809B1CC90732
S3151001B1D048BF1D7050F8041B0029E7D130BC7047D9
S3151001B1E0010009B200290AD4012210F01F018A4078
S3151001B1F0DFF8081903001BB25B0941F823207047D9
S3151001B200010009B200290AD4012210F01F018A4057
S3151001B210DFF8EC1803001BB25B0941F823207047D5
S3151001B22010B4020012B2002A06D44A01DFF8D4384B
S3151001B230040024B21A5509E04A01DFF8CC3804009B
S3151001B24024B214F00F04234403F8042C10BC7047E5
S3151001B25001228A408260704701228A40426070470B
S3151001B260C0F8801FD0F8802F7047016851F0004157
S3151001B2700160704770B504000D00160032002900F8
S3151001B28020000BF063FB70BD70B504000D001600B5
S3151001B2903200290020000BF08DFB70BD1163704741
S3151001B2A002001000C0B2002804D0012807D00328DC
S3151001B2B00AD00EE0202901D301200DE00BE0102960
S3151001B2C001D3012008E006E0082901D3012003E09B
S3151001B2D001E0012000E000207047F8B504000D00E0
S3151001B2E016001F0029002000C0B2FFF7D9FF012860
S3151001B2F001D1012038E02000C0B2022815D1B6F5DF
S3151001B300803F10D2202F0ED2DFF8100950F82510E9
S3151001B31066F3172140F8251050F8251067F3C70179
S3151001B32040F825101FE001201EE02000C0B20328BE
S3151001B33017D1B6F1807F12D2202F10D2DFF8CC09A7
S3151001B34050F8251001F0FF0151EA062140F82510A9
S3151001B35050F8251067F3C70140F8251003E00120C6
S3151001B36002E0012000E00020F2BD70B504000D00DE
S3151001B370160031002800C0B2FFF792FF012801D153
S3151001B380012010E0DFF8B8092100C9B250F82110E8
S3151001B3902A00D2B262F3092166F307012200D2B262
S3151001B3A040F82210002070BD38B504000D002900A8
S3151001B3B02000C0B2FFF774FF012801D1012011E06E
S3151001B3C0DFF88009016851F0004151F0407151F4E4
S3151001B3D07F012200D2B262F3092165F307010160F0
S3151001B3E00068002032BD18B58DB06846DFF8201907
S3151001B3F0342202F053FC6A460721DFF84C090BF0A0
S3151001B4008CFB00208DF808006A460321DFF83C0901
S3151001B4100BF083FB00208DF80800012000906A468E
S3151001B4200021DFF82C090BF078FB00208DF80800BD
S3151001B430002000906A460321DFF818090BF06DFB16
S3151001B4400820019011208DF80800DFF8E8496A46B6
S3151001B450002120000BF061FB0620019011208DF8D0
S3151001B46008006A46012120000BF057FB0EB010BDF3
S3151001B47010B504002000C0B2002805D10721DFF85D
S3151001B480C808FFF7E9FE04E00721DFF8BC08FFF75B
S3151001B490DFFE10BD10B504002000C0B2002805D192
S3151001B4A00321DFF8A808FFF7D7FE04E00321DFF830
S3151001B4B09C08FFF7CDFE10BD10B504002000C0B2E8
S3151001B4C0002805D10321DFF88C08FFF7C5FE04E03B
S3151001B4D00321DFF88008FFF7BBFE10BD10B504008D
S3151001B4E02000C0B2002805D10021DFF86408FFF75B
S3151001B4F0B3FE04E00021DFF85808FFF7A9FE10BDDE
S3151001B5002DE9FC4705000E001700002001905FF0A1
S3151001B5100F095FF0000A5046494680B289B2884247
S3151001B52053D2DFF87019524692B21420424301EBFE
S3151001B5300200001D04002078012843D1606800280C
S3151001B54040D0607801283DD1A878217C884239D134
S3151001B550E878617C884235D3A07CE978884231D37A
S3151001B560608900040090002080464046310080B278
S3151001B57089B2884211D2404680B2285C61686289DC
S3151001B58088546089401C608160892189884201D371
S3151001B5900020608118F10108E7E7009810FA86F09B
S3151001B5A000903800C0B2002806D0002301AA6946CF
S3151001B5B0E0680BF0E8FC05E0002300226946E0682C
S3151001B5C00BF00EFC1AF1010AA5E7BDE8F38702009C
S3151001B5D055201070AA205070087890704878D07055
S3151001B5E088781071C88880B2000A5071C888907125
S3151001B5F00020D0710020107208207047F8B50400A1
S3151001B6000D00002608222100300080B20BF0C6FF83
S3151001B6100700EA88A968380080B20BF0BFFF80B234
S3151001B620F2BD38B50400DFF86C58A878002858D058
S3151001B630A878012806D10020DFF85C1808600220DE
S3151001B640A8704EE0A87802280ED1DFF84C080168E0
S3151001B650611801600068B0F5FA7F42D30320A87023
S3151001B6600120FFF705FF3CE0A878032806D100204A
S3151001B670DFF8241808600420A87032E0A87804289E
S3151001B6800BD1DFF814080168611801600068B0F584
S3151001B690FA7F26D30520A87023E0A878052809D1BA
S3151001B6A00620A8700120FFF7F5FE0020DFF8E81745
S3151001B6B0086016E0A87806280ED1DFF8DC070168C5
S3151001B6C0611801600068B0F5FA7F0AD30720A870E7
S3151001B6D00020FFF7DFFE04E0A878072801D1082033
S3151001B6E0A8706878022808DA6878401C687068784B
S3151001B6F0022802D10020FFF7DFFE31BD10B45FF042
S3151001B700FF30002172B60022110009B20F2911DA99
S3151001B7101423DFF8804712FB03F12144097900292C
S3151001B72006D112FB03F1214401230B71100001E034
S3151001B730521CE9E762B600B210BC70472DE9F04120
S3151001B74005000C00280000B2002824D4280000B2FD
S3151001B7500F2820DA002C14D01420DFF8381715FB27
S3151001B76000F20A44012353710326270015FB00F04A
S3151001B770084410F1140832003900404602F07EFAEE
S3151001B78007E00020DFF80C17142215FB02F2114412
S3151001B7904871002001E05FF0FF30BDE8F0812DE92E
S3151001B7A0F84305000C001600280000B2002825D425
S3151001B7B0280000B20F2821DA002C1CD01427DFF83C
S3151001B7C0D48615FB07F008EB0009002204210A2094
S3151001B7D00BF08FFAC9F8100015FB07F04044002151
S3151001B7E0C18115FB07F04044846015FB07F0404406
S3151001B7F08681002004E05FF0FF3001E05FF0FF304A
S3151001B800BDE8F2832DE9F84F88B005000C0000263B
S3151001B810280000B2002859D4280000B20F2855DAA2
S3151001B820002C4FD0E088B0F57A6F47DA72B6210056
S3151001B83003A8FFF7CCFE210003A8FFF7DFFEADF842
S3151001B84000005FF0000A08270DF10C08DFF84C968E
S3151001B850504680B209EB000B3A004146584602F0B9
S3151001B8600DFA1AF1080AE0880290A0680190504674
S3151001B87080B209EB000B029A0199584602F0FEF9C3
S3151001B880E08810EB0A0ABDF8000080B2000A5146A2
S3151001B89089B209F801001AF1010ABDF800005146F2
S3151001B8A089B209F801001AF1010AADF802A0BDF832
S3151001B8B00210484600F0C0FA62B60AE05FF0FF30A7
S3151001B8C0060006E05FF0FF30060002E05FF0FF3091
S3151001B8D00600300000B209B0BDE8F08F2DE9F84F2F
S3151001B8E086B005000C0016005FF00009280000B2B2
S3151001B8F0002800F1B380280000B20F2880F2AE8034
S3151001B90005F0FF000700002C00F0A4805FF0140A78
S3151001B910DFF880B5380080B20AFB00F058440069A0
S3151001B9200390320002A903980BF0ABFB012840F0FB
S3151001B9308D800298000C07000298ADF80000A088CF
S3151001B9400A30BDF8001088427CDB0020010089B264
S3151001B950082917DA15FB0AF1594489683A0092B297
S3151001B960895C04AA03009BB2D1547F1C390015FBD4
S3151001B9700AF25A44928989B2914201D300210F00E9
S3151001B980401CE3E75FF00008404680B2BDF80010A6
S3151001B9900A39884218DA15FB0AF0584480683900CA
S3151001B9A089B2405CA168424692B288547F1C380025
S3151001B9B015FB0AF15944898980B2884201D30020C6
S3151001B9C0070018F10108DFE7BDF800000A38E0802A
S3151001B9D015FB0AF058448068390089B2415C0902A6
S3151001B9E07F1C380015FB0AF25A44928980B29042A4
S3151001B9F001D30020070015FB0AF0584480683A006D
S3151001BA0092B2805C0143ADF80210210004A8FFF741
S3151001BA10F5FDADF80400BDF80200BDF8041088422A
S3151001BA200CD104A8817821709DF8131061700079EA
S3151001BA30A070BDF800000A38E08012E05FF0FF3018
S3151001BA4081460EE05FF0FF3081460AE05FF0FF307D
S3151001BA50814606E05FF0FF30814602E05FF0FF307D
S3151001BA608146484600B207B0BDE8F08F10B5DFF841
S3151001BA7024440A2060700020FFF71EFD0120FFF705
S3151001BA80F7FC0320A07010BD80B50020FFF7F0FC75
S3151001BA900120DFF80014887001BD80B50020FFF782
S3151001BAA0E7FC0020DFF8EC13887001BD38B50400FF
S3151001BAB02000C0B200280CD1DFF8E413DFF8E4034C
S3151001BAC00CF002F80020FFF709FDDFF8C803047037
S3151001BAD012E02000C0B201280ED1DFF8C803FFF72B
S3151001BAE0C4FB0120FFF7FAFCDFF8A85300206870A9
S3151001BAF00120FFF7E1FC2C7031BD000000E100E0F0
S3151001BB0080E200E000E400E018ED00E02DE9F041EC
S3151001BB1004000D001600DFF890735FF00008404630
S3151001BB20290080B289B2884275D2B7F898080028E0
S3151001BB3010D1404680B2205C552869D1404680B26A
S3151001BB40205CB7F898187854B7F89808401CA7F8ED
S3151001BB5098085DE0B7F89808012814D1404680B2DC
S3151001BB60205CAA280BD1404680B2205CB7F8981801
S3151001BB707854B7F89808401CA7F8980848E00020B0
S3151001BB80A7F8980844E0B7F89808082821DA40463B
S3151001BB9080B2205CB7F898187854B7F89808401C0A
S3151001BBA0A7F89808B7F89808082831D178790002CB
S3151001BBB0B9794018A7F89A08B7F89A0840F68F018C
S3151001BBC0884225D30020A7F898080020A7F89A08DC
S3151001BBD01EE0404680B2205CB7F898187854B7F842
S3151001BBE09808401CA7F89808B7F89808B7F89A1853
S3151001BBF00A3188420CDB3200D2B2B7F898183800F5
S3151001BC00FFF77EFC0020A7F89A080020A7F89808ED
S3151001BC1018F1010883E7BDE8F08100000018004023
S3151001BC2070B5A04DA14E402231002800FFF722FB2E
S3151001BC3004009B4928000CF029F80122210089B241
S3151001BC403000FFF763FF0420FFF7DAFA70BD2DE924
S3151001BC50F84F8046964C00255FEAC80A5FF0000B44
S3151001BC6026002F007F0147EAD6677601300039009A
S3151001BC7052465B460CF09AF981460322032118209D
S3151001BC80FFF773FB19F01F03C9F34B12521E032161
S3151001BC900320FFF722FB03210320FFF785FBBDE8F5
S3151001BCA0F18F70477CB504002000FFF7D0FF5020BC
S3151001BCB0ADF800000420ADF8020001208DF8040053
S3151001BCC068460CF08BFA7B49BDF900000CF0ADFA11
S3151001BCD0744D28000BF0CAFE714E320076492800C9
S3151001BCE00BF04AFD320075492800FFF7D7FA0121FA
S3151001BCF02800FFF7B5FA2800FFF7B7FA0421042048
S3151001BD00FFF78EFA0420FFF76BFA73BD001C004093
S3151001BD108CDF0310F8B543F23C1400255D4E370055
S3151001BD202A002100380001F06FFF0A2070700120EF
S3151001BD303070FFF758FB5FF4E120FFF7B3FFF1BD59
S3151001BD40000C004000040040800B314000063140D9
S3151001BD5000003140800931402DE9F0478EB00500D1
S3151001BD60DFF85CA10022042114200AF0C2FFCAF8F0
S3151001BD7000005FF0FF326946DAF800000BF081F936
S3151001BD800128F6D1002007000098000C8046009883
S3151001BD908146484680B20600484680B28742E8D2BC
S3151001BDA0292E23D3002004002000C0B2282812DA3D
S3151001BDB0404680B25044007901A92200D2B288547B
S3151001BDC018F10108404680B2B0F5805F01DB002012
S3151001BDD08046641CE8E7282201A93248FFF754FA85
S3151001BDE0012000F0BFFC2837283ED5E700200400CB
S3151001BDF02000C0B2B04212D2404680B250440079FF
S3151001BE0001A92200D2B2885418F10108404680B225
S3151001BE10B0F5805F01DB00208046641CE8E7320044
S3151001BE2001A92048FFF730FAF719012000F09AFC12
S3151001BE30B2E7000000033140F8B504000D0041F2ED
S3151001BE4004001F4F395A09040091002631002A00B7
S3151001BE5089B292B2914210D2395A3944320092B211
S3151001BE60A25C0A71395A491C3952395AB1F5805FA7
S3151001BE7001DB00213952761CE8E70099280080B2CF
S3151001BE800143009100230022694638680AF0A8FF91
S3151001BE900020F2BD2C8900083CCF010840EF0008B4
S3151001BEA0D8C8010800006440E013010840BE01082B
S3151001BEB000B4C40421BC01101CD90310A3BC011089
S3151001BEC038CF0008010009B200290AD4012210F066
S3151001BED01F018A40DFF8B81403001BB25B0941F851
S3151001BEE023207047010009B200290AD4012210F05B
S3151001BEF01F018A40DFF89C1403001BB25B0941F84D
S3151001BF002320704710B4020012B2002A06D44A0147
S3151001BF10DFF88434040024B21A5509E04A01DFF827
S3151001BF207C34040024B214F00F04234403F8042CC7
S3151001BF3010BC7047D0F8042361F30702C0F804233C
S3151001BF407047D0F80803C005C00D7047C0F8C81F68
S3151001BF507047C0F8801FD0F8802F7047016851F0E4
S3151001BF6000410160704710B504002000FFF7E9FF9A
S3151001BF7010BD70B504000D00160032002900200016
S3151001BF800AF018FD70BD1163704702001000C0B2AF
S3151001BF90002804D0012807D003280AD00EE0202952
S3151001BFA001D301200DE00BE0102901D3012008E097
S3151001BFB006E0082901D3012003E001E0012000E099
S3151001BFC000207047F8B504000D0016001F00290067
S3151001BFD02000C0B2FFF7D9FF012801D1012038E0B6
S3151001BFE02000C0B2022815D1B6F5803F10D2202FFD
S3151001BFF00ED2DFF8AC0350F8251066F3172140F87E
S3151001C000251050F8251067F3C70140F825101FE0D9
S3151001C01001201EE02000C0B2032817D1B6F1807F9F
S3151001C02012D2202F10D2DFF87C0350F8251001F020
S3151001C030FF0151EA062140F8251050F8251067F343
S3151001C040C70140F8251003E0012002E0012000E0BD
S3151001C0500020F2BD70B504000D0016003100280055
S3151001C060C0B2FFF792FF012801D1012010E0DFF8DD
S3151001C07038032100C9B250F821102A00D2B262F356
S3151001C080092166F307012200D2B240F822100020DE
S3151001C09070BD38B504000D0029002000C0B2FFF7AD
S3151001C0A074FF012801D1012010E0C048016851F048
S3151001C0B0004151F0407151F47F012200D2B262F376
S3151001C0C0092165F3070101600068002032BD38B50A
S3151001C0D0B74D2800FFF747FF0400002C09D0B54BD8
S3151001C0E02200B54928000BF00DFD00212800FFF7AD
S3151001C0F021FFB04928000BF0C9FD0420FFF7F2FE1D
S3151001C10031BD80B5AD49AE480BF0C0FD0420FFF737
S3151001C110E9FE01BD10B50400200001280AD002284D
S3151001C12009D0042808D008280CD010280BD02028B4
S3151001C1300AD00AE009E008E0A248016C9C48FFF722
S3151001C14005FF02E001E000E0FFE710BD10B50400B5
S3151001C150200001280AD0022809D0042808D008286E
S3151001C1600CD010280BD020280AD00AE009E008E0EC
S3151001C1709448016C9248FFF7E9FE02E001E000E005
S3151001C180FFE710BD78B58FB004003421002202AD4F
S3151001C190280001F039FD2000C0B2012803D020008B
S3151001C1A0C0B2032851D10820039011208DF8100038
S3151001C1B0854D02AA002128000AF0AFFC0620039043
S3151001C1C011208DF8100002AA012128000AF0A5FC01
S3151001C1D0002203211A20FFF73DFF192355220021C2
S3151001C1E00320FFF7EFFE00210320FFF752FF522035
S3151001C1F0ADF800000420ADF8020001208DF804000E
S3151001C20068460BF0EBFF7149BDF900000CF00DF813
S3151001C210674D28000BF02AFC664E3200694928004A
S3151001C2200BF0AAFA32006A492800FFF7ACFE012189
S3151001C2302800FFF78EFE2800FFF790FE0420FFF777
S3151001C24041FE04210420FFF75DFE2000C0B2022842
S3151001C25003D02000C0B2032851D108200390112029
S3151001C2608DF810005B4D02AA002128000AF055FC3A
S3151001C2700620039011208DF8100002AA0121280032
S3151001C2800AF04BFC012203211820FFF7E3FE1623C7
S3151001C290142201210320FFF795FE01210320FFF748
S3151001C2A0F8FE5020ADF800000420ADF80200012080
S3151001C2B08DF8040068460BF091FF4749BDF900005F
S3151001C2C00BF0B3FF3E4D28000BF0D0FB3B4E320076
S3151001C2D03C4928000BF050FA320040492800FFF77C
S3151001C2E052FE01212800FFF734FE2800FFF736FE23
S3151001C2F00420FFF7E7FD04210420FFF703FE384869
S3151001C30004700CF0D0F8374900200CF014FB10B073
S3151001C31070BD0EB4F0B5040005AD334E2A002100F0
S3151001C32030000CF017FB2E4F3878012802D03878E0
S3151001C330032807D130000CF027FB020031001C48FE
S3151001C340FFF717FE3878022802D03878032807D16C
S3151001C35030000CF019FB020031001948FFF709FEF5
S3151001C360F0BC5DF810FB10B504002000C0B2002827
S3151001C37004D110490E480BF0A7FB06E02000C0B20D
S3151001C380012802D10A48FFF7E9FD002010BD00007F
S3151001C39000E100E080E200E000E400E018ED00E0DA
S3151001C3A000180040001C0040000C00400004004032
S3151001C3B00000664068C80108C0BD0108A0C8010890
S3151001C3C000006440D447000880013140CFC00110FD
S3151001C3D015C101100003314003C101104DC10110F7
S3151001C3E08CD0010828E8031028B901082DE9F8476F
S3151001C3F085B006000F00904699460F9C109D002CA3
S3151001C40007D14F2080F31188BFF34F8FBFF36F8F82
S3151001C410FEE7002D07D14F2080F31188BFF34F8F10
S3151001C420BFF36F8FFEE7682000900098682807D049
S3151001C4304F2080F31188BFF34F8FBFF36F8FFEE745
S3151001C4400098002D19D0002C17D0AA46CAF83040F2
S3151001C45002208AF8630000200390CDF808A004A8F2
S3151001C46001900E9800904B4642463900300000F07C
S3151001C47043F8504600F0D0F801E0002004900498EB
S3151001C48006B0BDE8F0872DE9F84384B006000F0029
S3151001C49090469946404680B280000CF091FA05000C
S3151001C4A0002D0BD068200CF08BFA0400002C01D063
S3151001C4B0256304E028000CF01BFB00E00024002C8F
S3151001C4C015D0002084F863000020039002940D9883
S3151001C4D001900C9800904B46424692B239003000BA
S3151001C4E000F00AF8200000F097F8012001E05FF053
S3151001C4F0FF3005B0BDE8F0832DE9F94F87B00C0088
S3151001C5001600129F139DDDF85080B00001905FF068
S3151001C510A50AD8F830B052460199584601F074FB75
S3151001C520D8F8300000EB8600001FC008C00000904C
S3151001C530009810F0070F07D04F2080F31188BFF332
S3151001C5404F8FBFF36F8FFEE7002C15D00020814669
S3151001C550B9F1100F0CD214F8090008EB090181F892
S3151001C560340014F80900002802D019F10109EFE787
S3151001C570002088F8430002E0002088F83400082FD4
S3151001C58001D307200700C8F82C70C8F844700020A2
S3151001C590C8F8480018F104000CF069FB18F11800EE
S3151001C5A00CF065FBC8F81080D7F10800C8F8180020
S3151001C5B0C8F82480082005900020049018F14C0A30
S3151001C5C0049A0599504601F01FFB0C200390002098
S3151001C5D0029018F1540A029A0399504601F014FB7D
S3151001C5E0032001905FF0000A18F1600B5246019981
S3151001C5F0584601F009FB002088F86400089A07994B
S3151001C60000980CF073FBC8F80000002D01D0C5F896
S3151001C610008009B0BDE8F08F38B504000CF0E9FBD5
S3151001C620DFF824130868401C0860DFF820532868D7
S3151001C630002806D12C60086801280DD100F059FB9D
S3151001C6400AE0DFF80C030068002805D1E06A2968C2
S3151001C650C96A884200D32C60DFF8F8020168491CC8
S3151001C6600160DFF8F4120A680123E06A83401A4375
S3151001C6700A60211DDFF8E422E36A1420434302EB2A
S3151001C68003000CF0F7FA0CF0CEFBDFF8C4020068D9
S3151001C69000280DD02868C06AE16A884208D25FF086
S3151001C6A08050DFF8A4140860BFF34F8FBFF36F8F6C
S3151001C6B031BD2DE9F04104000D000026002C07D1F3
S3151001C6C04F2080F31188BFF34F8FBFF36F8FFEE7B3
S3151001C6D0002D07D14F2080F31188BFF34F8FBFF381
S3151001C6E06F8FFEE7DFF884030068002807D04F201C
S3151001C6F080F31188BFF34F8FBFF36F8FFEE700F002
S3151001C700A8F8DFF84804D0F800802768EF192068E8
S3151001C710804507D2206887420BD2B84509D201203D
S3151001C720060006E02068874201D3B84501D20120F0
S3151001C73006002760002E04D00021B7EB080000F098
S3151001C740A3FC00F08CF80100002908D15FF080509D
S3151001C750DFF8F4231060BFF34F8FBFF36F8F3000F4
S3151001C760BDE8F08138B505000024002D15D0DFF89D
S3151001C770FC020068002807D04F2080F31188BFF310
S3151001C7804F8FBFF36F8FFEE700F063F8002128008B
S3151001C79000F07AFC00F063F80400002C08D15FF079
S3151001C7A08050DFF8A4130860BFF34F8FBFF36F8F6C
S3151001C7B031BD10B586B0002004900020039005AA63
S3151001C7C003A904A80CF018FCDFF848460498029057
S3151001C7D003980190002000900023059ADFF838167F
S3151001C7E00FF20150FFF702FE20602068002801D0E9
S3151001C7F0012400E00024012C02D10CF025FC0400D8
S3151001C800012C16D14F2080F31188BFF34F8FBFF340
S3151001C8106F8F5FF0FF30DFF8B41608600120DFF884
S3151001C820301108600020DFF8241308600CF087FA35
S3151001C8300AE014F1010F07D14F2080F31188BFF3DD
S3151001C8404F8FBFF36F8FFEE7DFF80808006806B059
S3151001C85010BDDFF818020168491C01607047F8B570
S3151001C86000250026DFF804422068002807D14F2052
S3151001C87080F31188BFF34F8FBFF36F8FFEE70CF074
S3151001C880B8FA2068401E20602068002853D12E482F
S3151001C890006800284FD0DFF874150868002824D0E6
S3151001C8A0C868C068050015F118000CF00AFA281DB1
S3151001C8B00CF007FA28490A680123E86A83401A43EB
S3151001C8C00A60291D254AEB6A1420434302EB030033
S3151001C8D00CF0D0F9E86A1D490968C96A8842DAD3A9
S3151001C8E00120DFF82C150860D5E7002D01D000F0E6
S3151001C8F06BFADFF87C773C68002C0CD000F030F82E
S3151001C900002803D00120DFF808150860641E002CEA
S3151001C910F4D100203860DFF8F804006800280AD046
S3151001C920012006005FF08050DFF81C120860BFF38B
S3151001C9304F8FBFF36F8F0CF076FA3000F2BDDFF830
S3151001C9400C02006870470000E0CF0108D0CF010843
S3151001C950ECCF0108FCCF0108E8CF010860BB010844
S3151001C9602DE9F041002741480068002876D1774823
S3151001C9700468641C0460002C1AD185490868006893
S3151001C980002807D04F2080F31188BFF34F8FBFF3D4
S3151001C9906F8FFEE7D1F800807E4802680A60C0F802
S3151001C9A00080DFF8D0060168491C016000F00CFA1E
S3151001C9B0DFF81885D8F8000084423AD3744908681C
S3151001C9C00068002804D15FF0FF30C8F8000030E09D
S3151001C9D00868C068C068050068680600B44202D2DB
S3151001C9E0C8F8006025E0281D0CF06BF9A86A00282C
S3151001C9F003D015F118000CF064F9DFF87C160A68FB
S3151001CA000123E86A83401A430A60291DDFF86C2660
S3151001CA10EB6A1420434302EB03000CF02BF9E86A8E
S3151001CA20DFF85C160968C96A8842C7D30120070076
S3151001CA30C4E7DFF84C060068DFF84016C26A142016
S3151001CA4042438858022801D301200700DFF8C003AA
S3151001CA500068002807D00120070004E0DFF810065F
S3151001CA600168491C01603800BDE8F08108D0010851
S3151001CA7070B5DFF810060068002804D00120DFF831
S3151001CA809013086044E00020DFF884130860DFF893
S3151001CA90F0452068056B5FF0A5362868B04208D1CD
S3151001CAA06868B04205D1A868B04202D1E868B042C0
S3151001CAB005D0206810F1340120680CF095FADFF8E2
S3151001CAC0B8050068B0FA80F1D1F11F011422DFF820
S3151001CAD0AC3502FB01F01858002807D14F2080F31E
S3151001CAE01188BFF34F8FBFF36F8FFEE702FB01F281
S3151001CAF003EB0200426852684260426810F1080373
S3151001CB009A4202D14268526842604068C068206009
S3151001CB1070BD38B504000D00002C07D14F2080F3ED
S3151001CB201188BFF34F8FBFF36F8FFEE7DFF8500504
S3151001CB30006810F1180120000CF0A8F80121280056
S3151001CB4000F0A2FA31BD000004ED00E0E4CF0108C7
S3151001CB5070B505000E001400002D07D14F2080F38B
S3151001CB601188BFF34F8FBFF36F8FFEE7DFF8100504
S3151001CB70006810F1180128000CF07CF8002C02D086
S3151001CB805FF0FF3006002100300000F07DFA70BD25
S3151001CB90D4CF0108D8CF010838B50500E868C468B4
S3151001CBA0002C07D14F2080F31188BFF34F8FBFF3AD
S3151001CBB06F8FFEE714F118000CF083F8DFF8C40448
S3151001CBC00068002815D1201D0CF07BF8DFF8A81499
S3151001CBD00A680123E06A83401A430A60211DDFF8BF
S3151001CBE09C24E36A1420434302EB03000CF042F841
S3151001CBF005E014F11801DFF814020CF03BF8DFF828
S3151001CC0080040068C06AE16A884205D201200121C8
S3151001CC10DFF8FC21116000E0002032BDDFF854146A
S3151001CC2009680160DFF8F0140968416070472DE961
S3151001CC30F04104000D00002C07D14F2080F311881C
S3151001CC40BFF34F8FBFF36F8FFEE7002D07D14F2034
S3151001CC5080F31188BFF34F8FBFF36F8FFEE70CF090
S3151001CC60C8F8DFF8B40406686768F71BDFF8101414
S3151001CC70086890F86400002806D00020096881F839
S3151001CC8064005FF0010824E0286810F1010F02D159
S3151001CC905FF000081DE0DFF8DC03006821688842B8
S3151001CCA007D06068864204D35FF00108002028602F
S3151001CCB00FE02868874208D22868C01B2860200028
S3151001CCC0FFF7ACFF5FF0000803E0002028605FF07B
S3151001CCD001080CF0A8F84046BDE8F08101204C4946
S3151001CCE00860704710B5040000F02DF80CF073F9C8
S3151001CCF0FAE770B50024082C09D2DFF88003142155
S3151001CD0001FB04F108440BF0A3FF641CF3E7DFF801
S3151001CD10105428000BF09CFFDFF8086430000BF06C
S3151001CD2097FF3A480BF094FFDFF8FC030BF090FFE6
S3151001CD30DFF8F8030BF08CFFDFF8F4030560DFF87A
S3151001CD40F403066070BD38B5DFF8EC532868002887
S3151001CD5017D00CF04EF8DFF8D003C068C068040095
S3151001CD60201D0BF0AEFFDFF8D4030168491E0160E8
S3151001CD702868401E28600CF056F8200000F002F8D2
S3151001CD80E2E731BD10B5040094F86300002806D11E
S3151001CD90206B0BF0ADFE20000BF0AAFE13E094F809
S3151001CDA06300012803D120000BF0A2FE0BE094F8DA
S3151001CDB06300022807D04F2080F31188BFF34F8FED
S3151001CDC0BFF36F8FFEE710BDDFF8641308680068C4
S3151001CDD0002804D15FF0FF303C49086004E0086880
S3151001CDE0C0680068394908607047DFF85403006865
S3151001CDF0002801D1012007E0DFF848030068002868
S3151001CE0001D1022000E0002070470000FCCC01088F
S3151001CE10F4CF010804D00108E4EA03102DE9F84320
S3151001CE20040025000026002C4CD0DFF85492E86A45
S3151001CE30D9F80010C96A88423CD2A869002805D4DD
S3151001CE40D9F80000C06AD0F10800A861DFF82C7289
S3151001CE505FF014086869E96A08FB01F139448842F0
S3151001CE6021D1281D0BF02DFF002807D1DFF8D8128C
S3151001CE700A680123E86A83409A430A60D9F80000D8
S3151001CE80C06AE862DFF8C0120A680123E86A8340C3
S3151001CE901A430A60291DE86A08FB00F807EB080027
S3151001CEA00BF0E8FE03E0D9F80000C06AE862012041
S3151001CEB0060007E0686CD9F80010C96A884201D2E9
S3151001CEC0012006003000BDE8F283000000D0010801
S3151001CED070B5040025000026002C48D0DFF8A0010B
S3151001CEE00068854207D04F2080F31188BFF34F8F1A
S3151001CEF0BFF36F8FFEE7A86C002807D14F2080F390
S3151001CF001188BFF34F8FBFF36F8FFEE7A86C401EDA
S3151001CF10A864E86A696C884229D0A86C002826D1D1
S3151001CF20281D0BF0CEFE002807D1DFF84C110A6838
S3151001CF300123E86A83409A430A60686CE862E86AEA
S3151001CF40D0F10800A861DFF830110A680123E86AF8
S3151001CF5083401A430A60291DDFF8F021EB6A142079
S3151001CF60434302EB03000BF085FE0120060030005F
S3151001CF7070BD00002DE9F84F04000F00A0465FF0C8
S3151001CF800109002C63D0D8F84800002807D14F209A
S3151001CF9080F31188BFF34F8FBFF36F8FFEE7D8F879
S3151001CFA04400B84201D23E0002E0D8F8440006001F
S3151001CFB0D8F82C00B0424AD0D8F84800484546D196
S3151001CFC0DFF8BC000068804507D14F2080F3118837
S3151001CFD0BFF34F8FBFF36F8FFEE7D8F82C00050014
S3151001CFE0C8F82C60D8F81800002803D4D6F1080028
S3151001CFF0C8F81800DFF884A05FF0140BD8F81400F5
S3151001D0000BFB05F15144884221D118F104000BF0B4
S3151001D01058FE002808D1DFF830110A680123D8F824
S3151001D0202C0083409A430A60DFF81C110A68012319
S3151001D030D8F82C0083401A430A6018F10401D8F875
S3151001D0402C000BFB00FB0AEB0B000BF013FEBDE8EB
S3151001D050F18F00005C490008DFF8C010086800284D
S3151001D06003D00868826C521C8264086870470000FD
S3151001D070F0CF0108F8CF0108E8CF010860BB01081D
S3151001D080D0CF010808D001082DE9F04105000C00A8
S3151001D09021480768DFF884800020D8F8001081F84D
S3151001D0A06400D8F80000001D0BF00BFE002808D113
S3151001D0B0D8F8000024490A680123C06A83409A43BC
S3151001D0C00A6015F1010F08D1002C06D0D8F800001E
S3151001D0D0011D16480BF0CEFD1AE0E8190600D8F826
S3151001D0E000004660BE4207D2D8F80000011D114863
S3151001D0F000680BF0CBFD0BE0D8F80000011D0C48C1
S3151001D10000680BF0C3FD124801688E4200D206601A
S3151001D110BDE8F08100000000E4CF0108D0CF01087E
S3151001D120D4CC0108E8CC010810CD010824CD0108A2
S3151001D130D4CF0108D8CF0108DCCF0108E0CF010810
S3151001D140ECCF010808D00108E8CF010860BB01083F
S3151001D15000D00108DFF8641A0200D2B28A5C521CB0
S3151001D1600300DBB2CA540200D2B28A5C0F2A03DB77
S3151001D17000220300DBB2CA5470472DE9F8430400BC
S3151001D180DFF83C5A28000DF030FC08260027A0468F
S3151001D1903A003100404600F037FD5FF00808A1461D
S3151001D1A042462900484600F069FD0020BDE8F28399
S3151001D1B02DE9F8430400082500262700320029002E
S3151001D1C0380000F021FD0827DFF8F889A1463A005A
S3151001D1D04146484600F052FD0020BDE8F2832DE994
S3151001D1E0F8430400082500262700320029003800DC
S3151001D1F000F00AFD0127DFF8D089A1463A00414621
S3151001D200484600F03BFD0020BDE8F2832DE9F843C6
S3151001D210040008250026270032002900380000F0F6
S3151001D220F3FC0427DFF8A489A1463A004146484693
S3151001D23000F024FD0020207100206071DFF87C09C8
S3151001D2400078A071072120000AF012FAE07100207F
S3151001D250FFF780FF0020BDE8F2832DE9F8430400B3
S3151001D26008250026270032002900380000F0CCFCE2
S3151001D2700427DFF85889A1463A004146484600F08E
S3151001D280FDFC0020207100206071DFF830098078E4
S3151001D290A071072120000AF0EBF9E0710220FFF7D7
S3151001D2A059FF0020BDE8F283F8B50400002C01D126
S3151001D2B0002008E014252600DFF814792A00310031
S3151001D2C0380000F0DBFCF2BDF0B585B00400002C8F
S3151001D2D001D100200CE068461421FDF761FF1425E9
S3151001D2E0DFF8EC6827002A003100380000F0C6FC90
S3151001D2F005B0F0BD10B586B0040005A802900DF179
S3151001D300130001900DF1120000900DF1110304AA02
S3151001D31003A900200DF0F2FC00282CD1039840F24D
S3151001D320E571884216D30398303020709DF81000AD
S3151001D33060709DF81100A0709DF81200E0709DF8C4
S3151001D340130020719DF8140060710020A071002057
S3151001D350E07120E000202070012060700120A07093
S3151001D3600020E07000202071002060710020A07163
S3151001D3700020E0710FE00020207001206070012074
S3151001D380A0700020E0700020207100206071002044
S3151001D390A0710020E071002006B010BDF8B50400A0
S3151001D3A008250026270032002900380000F02CFC41
S3151001D3B0DFF820080078002802D00120207001E053
S3151001D3C0002020700020F2BD2DE9F8430400082545
S3151001D3D00026270032002900380000F015FC01272D
S3151001D3E0DFF8F487A1463A004146484600F046FC6C
S3151001D3F00020BDE8F283F8B50400082500262700B1
S3151001D40032002900380000F0FFFB002020700120B7
S3151001D41060700020A0701020E070DFF8B807017866
S3151001D4202171007880B24100DFF8B00702880B0045
S3151001D4309BB29A4216D2DFF8A8270388D35C637190
S3151001D44003885B1C03800388D25CA2710288521C7C
S3151001D450028002880B009BB25B1E9A4208DB0022F7
S3151001D460028005E000220280002060710020A07178
S3151001D4700020F2BD70B400259D420CD22C010C592E
S3151001D480002C06D02C010C59241A442606FB05F64D
S3151001D49094516D1CF0E770BC704770B400259D4225
S3151001D4A00CD22C010C59002C06D02C010C59241A23
S3151001D4B0442606FB05F694516D1CF0E770BC7047C7
S3151001D4C02DE9FE4304000821002201AD280000F0D9
S3151001D4D09BFBE82C2BD10627DFF8F4860DF1040906
S3151001D4E03A004146484600F0C9FB002006003000CC
S3151001D4F0C0B2022880F29480DFF8E8163200D2B268
